{
	"TodoList.sol": {
		"Todos": {
			"abi": [
				{
					"inputs": [
						{
							"internalType": "string",
							"name": "_text",
							"type": "string"
						}
					],
					"name": "create",
					"outputs": [],
					"stateMutability": "nonpayable",
					"type": "function"
				},
				{
					"inputs": [
						{
							"internalType": "uint256",
							"name": "_index",
							"type": "uint256"
						}
					],
					"name": "get",
					"outputs": [
						{
							"internalType": "string",
							"name": "text",
							"type": "string"
						},
						{
							"internalType": "bool",
							"name": "completed",
							"type": "bool"
						}
					],
					"stateMutability": "view",
					"type": "function"
				},
				{
					"inputs": [
						{
							"internalType": "uint256",
							"name": "",
							"type": "uint256"
						}
					],
					"name": "todos",
					"outputs": [
						{
							"internalType": "string",
							"name": "text",
							"type": "string"
						},
						{
							"internalType": "bool",
							"name": "completed",
							"type": "bool"
						}
					],
					"stateMutability": "view",
					"type": "function"
				},
				{
					"inputs": [
						{
							"internalType": "uint256",
							"name": "_index",
							"type": "uint256"
						}
					],
					"name": "toggleCompleted",
					"outputs": [],
					"stateMutability": "nonpayable",
					"type": "function"
				},
				{
					"inputs": [
						{
							"internalType": "uint256",
							"name": "_index",
							"type": "uint256"
						},
						{
							"internalType": "string",
							"name": "_text",
							"type": "string"
						}
					],
					"name": "updateText",
					"outputs": [],
					"stateMutability": "nonpayable",
					"type": "function"
				}
			],
			"devdoc": {
				"kind": "dev",
				"methods": {},
				"version": 1
			},
			"evm": {
				"assembly": "    /* \"TodoList.sol\":57:701  contract Todos {... */\n  mstore(0x40, 0x80)\n  callvalue\n  dup1\n  iszero\n  tag_1\n  jumpi\n  0x00\n  dup1\n  revert\ntag_1:\n  pop\n  dataSize(sub_0)\n  dup1\n  dataOffset(sub_0)\n  0x00\n  codecopy\n  0x00\n  return\nstop\n\nsub_0: assembly {\n        /* \"TodoList.sol\":57:701  contract Todos {... */\n      mstore(0x40, 0x80)\n      callvalue\n      dup1\n      iszero\n      tag_1\n      jumpi\n      0x00\n      dup1\n      revert\n    tag_1:\n      pop\n      jumpi(tag_2, lt(calldatasize, 0x04))\n      shr(0xe0, calldataload(0x00))\n      dup1\n      0x455f5024\n      eq\n      tag_3\n      jumpi\n      dup1\n      0x9507d39a\n      eq\n      tag_4\n      jumpi\n      dup1\n      0xb6a46b3b\n      eq\n      tag_5\n      jumpi\n      dup1\n      0xbc8bc2b4\n      eq\n      tag_6\n      jumpi\n      dup1\n      0xcd111614\n      eq\n      tag_7\n      jumpi\n    tag_2:\n      0x00\n      dup1\n      revert\n        /* \"TodoList.sol\":562:699  function toggleCompleted(uint _index) public {... */\n    tag_3:\n      tag_8\n      0x04\n      dup1\n      calldatasize\n      sub\n      dup2\n      add\n      swap1\n      tag_9\n      swap2\n      swap1\n      tag_10\n      jump\t// in\n    tag_9:\n      tag_11\n      jump\t// in\n    tag_8:\n      stop\n        /* \"TodoList.sol\":233:410  function get(uint _index) public view returns (string memory text, bool completed) {... */\n    tag_4:\n      tag_12\n      0x04\n      dup1\n      calldatasize\n      sub\n      dup2\n      add\n      swap1\n      tag_13\n      swap2\n      swap1\n      tag_10\n      jump\t// in\n    tag_13:\n      tag_14\n      jump\t// in\n    tag_12:\n      mload(0x40)\n      tag_15\n      swap3\n      swap2\n      swap1\n      tag_16\n      jump\t// in\n    tag_15:\n      mload(0x40)\n      dup1\n      swap2\n      sub\n      swap1\n      return\n        /* \"TodoList.sol\":174:227  function create(string calldata _text) public {... */\n    tag_5:\n      tag_17\n      0x04\n      dup1\n      calldatasize\n      sub\n      dup2\n      add\n      swap1\n      tag_18\n      swap2\n      swap1\n      tag_19\n      jump\t// in\n    tag_18:\n      tag_20\n      jump\t// in\n    tag_17:\n      stop\n        /* \"TodoList.sol\":148:167  Todo[] public todos */\n    tag_6:\n      tag_21\n      0x04\n      dup1\n      calldatasize\n      sub\n      dup2\n      add\n      swap1\n      tag_22\n      swap2\n      swap1\n      tag_10\n      jump\t// in\n    tag_22:\n      tag_23\n      jump\t// in\n    tag_21:\n      mload(0x40)\n      tag_24\n      swap3\n      swap2\n      swap1\n      tag_16\n      jump\t// in\n    tag_24:\n      mload(0x40)\n      dup1\n      swap2\n      sub\n      swap1\n      return\n        /* \"TodoList.sol\":416:556  function updateText(uint _index, string calldata _text) public {... */\n    tag_7:\n      tag_25\n      0x04\n      dup1\n      calldatasize\n      sub\n      dup2\n      add\n      swap1\n      tag_26\n      swap2\n      swap1\n      tag_27\n      jump\t// in\n    tag_26:\n      tag_28\n      jump\t// in\n    tag_25:\n      stop\n        /* \"TodoList.sol\":562:699  function toggleCompleted(uint _index) public {... */\n    tag_11:\n        /* \"TodoList.sol\":617:634  Todo storage todo */\n      0x00\n        /* \"TodoList.sol\":637:642  todos */\n      dup1\n        /* \"TodoList.sol\":643:649  _index */\n      dup3\n        /* \"TodoList.sol\":637:650  todos[_index] */\n      dup2\n      sload\n      dup2\n      lt\n      tag_30\n      jumpi\n      tag_31\n      tag_32\n      jump\t// in\n    tag_31:\n    tag_30:\n      swap1\n      0x00\n      mstore\n      keccak256(0x00, 0x20)\n      swap1\n      0x02\n      mul\n      add\n        /* \"TodoList.sol\":617:650  Todo storage todo = todos[_index] */\n      swap1\n      pop\n        /* \"TodoList.sol\":678:682  todo */\n      dup1\n        /* \"TodoList.sol\":678:692  todo.completed */\n      0x01\n      add\n      0x00\n      swap1\n      sload\n      swap1\n      0x0100\n      exp\n      swap1\n      div\n      0xff\n      and\n        /* \"TodoList.sol\":677:692  !todo.completed */\n      iszero\n        /* \"TodoList.sol\":660:664  todo */\n      dup2\n        /* \"TodoList.sol\":660:674  todo.completed */\n      0x01\n      add\n      0x00\n        /* \"TodoList.sol\":660:692  todo.completed = !todo.completed */\n      0x0100\n      exp\n      dup2\n      sload\n      dup2\n      0xff\n      mul\n      not\n      and\n      swap1\n      dup4\n      iszero\n      iszero\n      mul\n      or\n      swap1\n      sstore\n      pop\n        /* \"TodoList.sol\":607:699  {... */\n      pop\n        /* \"TodoList.sol\":562:699  function toggleCompleted(uint _index) public {... */\n      pop\n      jump\t// out\n        /* \"TodoList.sol\":233:410  function get(uint _index) public view returns (string memory text, bool completed) {... */\n    tag_14:\n        /* \"TodoList.sol\":280:298  string memory text */\n      0x60\n        /* \"TodoList.sol\":300:314  bool completed */\n      0x00\n        /* \"TodoList.sol\":326:343  Todo storage todo */\n      dup1\n        /* \"TodoList.sol\":346:351  todos */\n      0x00\n        /* \"TodoList.sol\":352:358  _index */\n      dup5\n        /* \"TodoList.sol\":346:359  todos[_index] */\n      dup2\n      sload\n      dup2\n      lt\n      tag_35\n      jumpi\n      tag_36\n      tag_32\n      jump\t// in\n    tag_36:\n    tag_35:\n      swap1\n      0x00\n      mstore\n      keccak256(0x00, 0x20)\n      swap1\n      0x02\n      mul\n      add\n        /* \"TodoList.sol\":326:359  Todo storage todo = todos[_index] */\n      swap1\n      pop\n        /* \"TodoList.sol\":377:381  todo */\n      dup1\n        /* \"TodoList.sol\":377:386  todo.text */\n      0x00\n      add\n        /* \"TodoList.sol\":388:392  todo */\n      dup2\n        /* \"TodoList.sol\":388:402  todo.completed */\n      0x01\n      add\n      0x00\n      swap1\n      sload\n      swap1\n      0x0100\n      exp\n      swap1\n      div\n      0xff\n      and\n        /* \"TodoList.sol\":369:403  return (todo.text, todo.completed) */\n      dup2\n      dup1\n      sload\n      tag_38\n      swap1\n      tag_39\n      jump\t// in\n    tag_38:\n      dup1\n      0x1f\n      add\n      0x20\n      dup1\n      swap2\n      div\n      mul\n      0x20\n      add\n      mload(0x40)\n      swap1\n      dup2\n      add\n      0x40\n      mstore\n      dup1\n      swap3\n      swap2\n      swap1\n      dup2\n      dup2\n      mstore\n      0x20\n      add\n      dup3\n      dup1\n      sload\n      tag_40\n      swap1\n      tag_39\n      jump\t// in\n    tag_40:\n      dup1\n      iszero\n      tag_41\n      jumpi\n      dup1\n      0x1f\n      lt\n      tag_42\n      jumpi\n      0x0100\n      dup1\n      dup4\n      sload\n      div\n      mul\n      dup4\n      mstore\n      swap2\n      0x20\n      add\n      swap2\n      jump(tag_41)\n    tag_42:\n      dup3\n      add\n      swap2\n      swap1\n      0x00\n      mstore\n      keccak256(0x00, 0x20)\n      swap1\n    tag_43:\n      dup2\n      sload\n      dup2\n      mstore\n      swap1\n      0x01\n      add\n      swap1\n      0x20\n      add\n      dup1\n      dup4\n      gt\n      tag_43\n      jumpi\n      dup3\n      swap1\n      sub\n      0x1f\n      and\n      dup3\n      add\n      swap2\n    tag_41:\n      pop\n      pop\n      pop\n      pop\n      pop\n      swap2\n      pop\n      swap3\n      pop\n      swap3\n      pop\n      pop\n        /* \"TodoList.sol\":233:410  function get(uint _index) public view returns (string memory text, bool completed) {... */\n      swap2\n      pop\n      swap2\n      jump\t// out\n        /* \"TodoList.sol\":174:227  function create(string calldata _text) public {... */\n    tag_20:\n      pop\n      pop\n      jump\t// out\n        /* \"TodoList.sol\":148:167  Todo[] public todos */\n    tag_23:\n      0x00\n      dup2\n      dup2\n      sload\n      dup2\n      lt\n      tag_45\n      jumpi\n      0x00\n      dup1\n      revert\n    tag_45:\n      swap1\n      0x00\n      mstore\n      keccak256(0x00, 0x20)\n      swap1\n      0x02\n      mul\n      add\n      0x00\n      swap2\n      pop\n      swap1\n      pop\n      dup1\n      0x00\n      add\n      dup1\n      sload\n      tag_47\n      swap1\n      tag_39\n      jump\t// in\n    tag_47:\n      dup1\n      0x1f\n      add\n      0x20\n      dup1\n      swap2\n      div\n      mul\n      0x20\n      add\n      mload(0x40)\n      swap1\n      dup2\n      add\n      0x40\n      mstore\n      dup1\n      swap3\n      swap2\n      swap1\n      dup2\n      dup2\n      mstore\n      0x20\n      add\n      dup3\n      dup1\n      sload\n      tag_48\n      swap1\n      tag_39\n      jump\t// in\n    tag_48:\n      dup1\n      iszero\n      tag_49\n      jumpi\n      dup1\n      0x1f\n      lt\n      tag_50\n      jumpi\n      0x0100\n      dup1\n      dup4\n      sload\n      div\n      mul\n      dup4\n      mstore\n      swap2\n      0x20\n      add\n      swap2\n      jump(tag_49)\n    tag_50:\n      dup3\n      add\n      swap2\n      swap1\n      0x00\n      mstore\n      keccak256(0x00, 0x20)\n      swap1\n    tag_51:\n      dup2\n      sload\n      dup2\n      mstore\n      swap1\n      0x01\n      add\n      swap1\n      0x20\n      add\n      dup1\n      dup4\n      gt\n      tag_51\n      jumpi\n      dup3\n      swap1\n      sub\n      0x1f\n      and\n      dup3\n      add\n      swap2\n    tag_49:\n      pop\n      pop\n      pop\n      pop\n      pop\n      swap1\n      dup1\n      0x01\n      add\n      0x00\n      swap1\n      sload\n      swap1\n      0x0100\n      exp\n      swap1\n      div\n      0xff\n      and\n      swap1\n      pop\n      dup3\n      jump\t// out\n        /* \"TodoList.sol\":416:556  function updateText(uint _index, string calldata _text) public {... */\n    tag_28:\n        /* \"TodoList.sol\":489:506  Todo storage todo */\n      0x00\n        /* \"TodoList.sol\":509:514  todos */\n      dup1\n        /* \"TodoList.sol\":515:521  _index */\n      dup5\n        /* \"TodoList.sol\":509:522  todos[_index] */\n      dup2\n      sload\n      dup2\n      lt\n      tag_53\n      jumpi\n      tag_54\n      tag_32\n      jump\t// in\n    tag_54:\n    tag_53:\n      swap1\n      0x00\n      mstore\n      keccak256(0x00, 0x20)\n      swap1\n      0x02\n      mul\n      add\n        /* \"TodoList.sol\":489:522  Todo storage todo = todos[_index] */\n      swap1\n      pop\n        /* \"TodoList.sol\":544:549  _text */\n      dup3\n      dup3\n        /* \"TodoList.sol\":532:536  todo */\n      dup3\n        /* \"TodoList.sol\":532:541  todo.text */\n      0x00\n      add\n        /* \"TodoList.sol\":532:549  todo.text = _text */\n      swap2\n      dup3\n      tag_56\n      swap3\n      swap2\n      swap1\n      tag_57\n      jump\t// in\n    tag_56:\n      pop\n        /* \"TodoList.sol\":479:556  {... */\n      pop\n        /* \"TodoList.sol\":416:556  function updateText(uint _index, string calldata _text) public {... */\n      pop\n      pop\n      pop\n      jump\t// out\n        /* \"#utility.yul\":88:205   */\n    tag_59:\n        /* \"#utility.yul\":197:198   */\n      0x00\n        /* \"#utility.yul\":194:195   */\n      dup1\n        /* \"#utility.yul\":187:199   */\n      revert\n        /* \"#utility.yul\":211:328   */\n    tag_60:\n        /* \"#utility.yul\":320:321   */\n      0x00\n        /* \"#utility.yul\":317:318   */\n      dup1\n        /* \"#utility.yul\":310:322   */\n      revert\n        /* \"#utility.yul\":334:411   */\n    tag_61:\n        /* \"#utility.yul\":371:378   */\n      0x00\n        /* \"#utility.yul\":400:405   */\n      dup2\n        /* \"#utility.yul\":389:405   */\n      swap1\n      pop\n        /* \"#utility.yul\":334:411   */\n      swap2\n      swap1\n      pop\n      jump\t// out\n        /* \"#utility.yul\":417:539   */\n    tag_62:\n        /* \"#utility.yul\":490:514   */\n      tag_99\n        /* \"#utility.yul\":508:513   */\n      dup2\n        /* \"#utility.yul\":490:514   */\n      tag_61\n      jump\t// in\n    tag_99:\n        /* \"#utility.yul\":483:488   */\n      dup2\n        /* \"#utility.yul\":480:515   */\n      eq\n        /* \"#utility.yul\":470:533   */\n      tag_100\n      jumpi\n        /* \"#utility.yul\":529:530   */\n      0x00\n        /* \"#utility.yul\":526:527   */\n      dup1\n        /* \"#utility.yul\":519:531   */\n      revert\n        /* \"#utility.yul\":470:533   */\n    tag_100:\n        /* \"#utility.yul\":417:539   */\n      pop\n      jump\t// out\n        /* \"#utility.yul\":545:684   */\n    tag_63:\n        /* \"#utility.yul\":591:596   */\n      0x00\n        /* \"#utility.yul\":629:635   */\n      dup2\n        /* \"#utility.yul\":616:636   */\n      calldataload\n        /* \"#utility.yul\":607:636   */\n      swap1\n      pop\n        /* \"#utility.yul\":645:678   */\n      tag_102\n        /* \"#utility.yul\":672:677   */\n      dup2\n        /* \"#utility.yul\":645:678   */\n      tag_62\n      jump\t// in\n    tag_102:\n        /* \"#utility.yul\":545:684   */\n      swap3\n      swap2\n      pop\n      pop\n      jump\t// out\n        /* \"#utility.yul\":690:1019   */\n    tag_10:\n        /* \"#utility.yul\":749:755   */\n      0x00\n        /* \"#utility.yul\":798:800   */\n      0x20\n        /* \"#utility.yul\":786:795   */\n      dup3\n        /* \"#utility.yul\":777:784   */\n      dup5\n        /* \"#utility.yul\":773:796   */\n      sub\n        /* \"#utility.yul\":769:801   */\n      slt\n        /* \"#utility.yul\":766:885   */\n      iszero\n      tag_104\n      jumpi\n        /* \"#utility.yul\":804:883   */\n      tag_105\n      tag_59\n      jump\t// in\n    tag_105:\n        /* \"#utility.yul\":766:885   */\n    tag_104:\n        /* \"#utility.yul\":924:925   */\n      0x00\n        /* \"#utility.yul\":949:1002   */\n      tag_106\n        /* \"#utility.yul\":994:1001   */\n      dup5\n        /* \"#utility.yul\":985:991   */\n      dup3\n        /* \"#utility.yul\":974:983   */\n      dup6\n        /* \"#utility.yul\":970:992   */\n      add\n        /* \"#utility.yul\":949:1002   */\n      tag_63\n      jump\t// in\n    tag_106:\n        /* \"#utility.yul\":939:1002   */\n      swap2\n      pop\n        /* \"#utility.yul\":895:1012   */\n      pop\n        /* \"#utility.yul\":690:1019   */\n      swap3\n      swap2\n      pop\n      pop\n      jump\t// out\n        /* \"#utility.yul\":1025:1124   */\n    tag_64:\n        /* \"#utility.yul\":1077:1083   */\n      0x00\n        /* \"#utility.yul\":1111:1116   */\n      dup2\n        /* \"#utility.yul\":1105:1117   */\n      mload\n        /* \"#utility.yul\":1095:1117   */\n      swap1\n      pop\n        /* \"#utility.yul\":1025:1124   */\n      swap2\n      swap1\n      pop\n      jump\t// out\n        /* \"#utility.yul\":1130:1299   */\n    tag_65:\n        /* \"#utility.yul\":1214:1225   */\n      0x00\n        /* \"#utility.yul\":1248:1254   */\n      dup3\n        /* \"#utility.yul\":1243:1246   */\n      dup3\n        /* \"#utility.yul\":1236:1255   */\n      mstore\n        /* \"#utility.yul\":1288:1292   */\n      0x20\n        /* \"#utility.yul\":1283:1286   */\n      dup3\n        /* \"#utility.yul\":1279:1293   */\n      add\n        /* \"#utility.yul\":1264:1293   */\n      swap1\n      pop\n        /* \"#utility.yul\":1130:1299   */\n      swap3\n      swap2\n      pop\n      pop\n      jump\t// out\n        /* \"#utility.yul\":1305:1551   */\n    tag_66:\n        /* \"#utility.yul\":1386:1387   */\n      0x00\n        /* \"#utility.yul\":1396:1509   */\n    tag_110:\n        /* \"#utility.yul\":1410:1416   */\n      dup4\n        /* \"#utility.yul\":1407:1408   */\n      dup2\n        /* \"#utility.yul\":1404:1417   */\n      lt\n        /* \"#utility.yul\":1396:1509   */\n      iszero\n      tag_112\n      jumpi\n        /* \"#utility.yul\":1495:1496   */\n      dup1\n        /* \"#utility.yul\":1490:1493   */\n      dup3\n        /* \"#utility.yul\":1486:1497   */\n      add\n        /* \"#utility.yul\":1480:1498   */\n      mload\n        /* \"#utility.yul\":1476:1477   */\n      dup2\n        /* \"#utility.yul\":1471:1474   */\n      dup5\n        /* \"#utility.yul\":1467:1478   */\n      add\n        /* \"#utility.yul\":1460:1499   */\n      mstore\n        /* \"#utility.yul\":1432:1434   */\n      0x20\n        /* \"#utility.yul\":1429:1430   */\n      dup2\n        /* \"#utility.yul\":1425:1435   */\n      add\n        /* \"#utility.yul\":1420:1435   */\n      swap1\n      pop\n        /* \"#utility.yul\":1396:1509   */\n      jump(tag_110)\n    tag_112:\n        /* \"#utility.yul\":1543:1544   */\n      0x00\n        /* \"#utility.yul\":1534:1540   */\n      dup5\n        /* \"#utility.yul\":1529:1532   */\n      dup5\n        /* \"#utility.yul\":1525:1541   */\n      add\n        /* \"#utility.yul\":1518:1545   */\n      mstore\n        /* \"#utility.yul\":1367:1551   */\n      pop\n        /* \"#utility.yul\":1305:1551   */\n      pop\n      pop\n      pop\n      jump\t// out\n        /* \"#utility.yul\":1557:1659   */\n    tag_67:\n        /* \"#utility.yul\":1598:1604   */\n      0x00\n        /* \"#utility.yul\":1649:1651   */\n      0x1f\n        /* \"#utility.yul\":1645:1652   */\n      not\n        /* \"#utility.yul\":1640:1642   */\n      0x1f\n        /* \"#utility.yul\":1633:1638   */\n      dup4\n        /* \"#utility.yul\":1629:1643   */\n      add\n        /* \"#utility.yul\":1625:1653   */\n      and\n        /* \"#utility.yul\":1615:1653   */\n      swap1\n      pop\n        /* \"#utility.yul\":1557:1659   */\n      swap2\n      swap1\n      pop\n      jump\t// out\n        /* \"#utility.yul\":1665:2042   */\n    tag_68:\n        /* \"#utility.yul\":1753:1756   */\n      0x00\n        /* \"#utility.yul\":1781:1820   */\n      tag_115\n        /* \"#utility.yul\":1814:1819   */\n      dup3\n        /* \"#utility.yul\":1781:1820   */\n      tag_64\n      jump\t// in\n    tag_115:\n        /* \"#utility.yul\":1836:1907   */\n      tag_116\n        /* \"#utility.yul\":1900:1906   */\n      dup2\n        /* \"#utility.yul\":1895:1898   */\n      dup6\n        /* \"#utility.yul\":1836:1907   */\n      tag_65\n      jump\t// in\n    tag_116:\n        /* \"#utility.yul\":1829:1907   */\n      swap4\n      pop\n        /* \"#utility.yul\":1916:1981   */\n      tag_117\n        /* \"#utility.yul\":1974:1980   */\n      dup2\n        /* \"#utility.yul\":1969:1972   */\n      dup6\n        /* \"#utility.yul\":1962:1966   */\n      0x20\n        /* \"#utility.yul\":1955:1960   */\n      dup7\n        /* \"#utility.yul\":1951:1967   */\n      add\n        /* \"#utility.yul\":1916:1981   */\n      tag_66\n      jump\t// in\n    tag_117:\n        /* \"#utility.yul\":2006:2035   */\n      tag_118\n        /* \"#utility.yul\":2028:2034   */\n      dup2\n        /* \"#utility.yul\":2006:2035   */\n      tag_67\n      jump\t// in\n    tag_118:\n        /* \"#utility.yul\":2001:2004   */\n      dup5\n        /* \"#utility.yul\":1997:2036   */\n      add\n        /* \"#utility.yul\":1990:2036   */\n      swap2\n      pop\n        /* \"#utility.yul\":1757:2042   */\n      pop\n        /* \"#utility.yul\":1665:2042   */\n      swap3\n      swap2\n      pop\n      pop\n      jump\t// out\n        /* \"#utility.yul\":2048:2138   */\n    tag_69:\n        /* \"#utility.yul\":2082:2089   */\n      0x00\n        /* \"#utility.yul\":2125:2130   */\n      dup2\n        /* \"#utility.yul\":2118:2131   */\n      iszero\n        /* \"#utility.yul\":2111:2132   */\n      iszero\n        /* \"#utility.yul\":2100:2132   */\n      swap1\n      pop\n        /* \"#utility.yul\":2048:2138   */\n      swap2\n      swap1\n      pop\n      jump\t// out\n        /* \"#utility.yul\":2144:2253   */\n    tag_70:\n        /* \"#utility.yul\":2225:2246   */\n      tag_121\n        /* \"#utility.yul\":2240:2245   */\n      dup2\n        /* \"#utility.yul\":2225:2246   */\n      tag_69\n      jump\t// in\n    tag_121:\n        /* \"#utility.yul\":2220:2223   */\n      dup3\n        /* \"#utility.yul\":2213:2247   */\n      mstore\n        /* \"#utility.yul\":2144:2253   */\n      pop\n      pop\n      jump\t// out\n        /* \"#utility.yul\":2259:2670   */\n    tag_16:\n        /* \"#utility.yul\":2394:2398   */\n      0x00\n        /* \"#utility.yul\":2432:2434   */\n      0x40\n        /* \"#utility.yul\":2421:2430   */\n      dup3\n        /* \"#utility.yul\":2417:2435   */\n      add\n        /* \"#utility.yul\":2409:2435   */\n      swap1\n      pop\n        /* \"#utility.yul\":2481:2490   */\n      dup2\n        /* \"#utility.yul\":2475:2479   */\n      dup2\n        /* \"#utility.yul\":2471:2491   */\n      sub\n        /* \"#utility.yul\":2467:2468   */\n      0x00\n        /* \"#utility.yul\":2456:2465   */\n      dup4\n        /* \"#utility.yul\":2452:2469   */\n      add\n        /* \"#utility.yul\":2445:2492   */\n      mstore\n        /* \"#utility.yul\":2509:2587   */\n      tag_123\n        /* \"#utility.yul\":2582:2586   */\n      dup2\n        /* \"#utility.yul\":2573:2579   */\n      dup6\n        /* \"#utility.yul\":2509:2587   */\n      tag_68\n      jump\t// in\n    tag_123:\n        /* \"#utility.yul\":2501:2587   */\n      swap1\n      pop\n        /* \"#utility.yul\":2597:2663   */\n      tag_124\n        /* \"#utility.yul\":2659:2661   */\n      0x20\n        /* \"#utility.yul\":2648:2657   */\n      dup4\n        /* \"#utility.yul\":2644:2662   */\n      add\n        /* \"#utility.yul\":2635:2641   */\n      dup5\n        /* \"#utility.yul\":2597:2663   */\n      tag_70\n      jump\t// in\n    tag_124:\n        /* \"#utility.yul\":2259:2670   */\n      swap4\n      swap3\n      pop\n      pop\n      pop\n      jump\t// out\n        /* \"#utility.yul\":2676:2793   */\n    tag_71:\n        /* \"#utility.yul\":2785:2786   */\n      0x00\n        /* \"#utility.yul\":2782:2783   */\n      dup1\n        /* \"#utility.yul\":2775:2787   */\n      revert\n        /* \"#utility.yul\":2799:2916   */\n    tag_72:\n        /* \"#utility.yul\":2908:2909   */\n      0x00\n        /* \"#utility.yul\":2905:2906   */\n      dup1\n        /* \"#utility.yul\":2898:2910   */\n      revert\n        /* \"#utility.yul\":2922:3039   */\n    tag_73:\n        /* \"#utility.yul\":3031:3032   */\n      0x00\n        /* \"#utility.yul\":3028:3029   */\n      dup1\n        /* \"#utility.yul\":3021:3033   */\n      revert\n        /* \"#utility.yul\":3059:3612   */\n    tag_74:\n        /* \"#utility.yul\":3117:3125   */\n      0x00\n        /* \"#utility.yul\":3127:3133   */\n      dup1\n        /* \"#utility.yul\":3177:3180   */\n      dup4\n        /* \"#utility.yul\":3170:3174   */\n      0x1f\n        /* \"#utility.yul\":3162:3168   */\n      dup5\n        /* \"#utility.yul\":3158:3175   */\n      add\n        /* \"#utility.yul\":3154:3181   */\n      slt\n        /* \"#utility.yul\":3144:3266   */\n      tag_129\n      jumpi\n        /* \"#utility.yul\":3185:3264   */\n      tag_130\n      tag_71\n      jump\t// in\n    tag_130:\n        /* \"#utility.yul\":3144:3266   */\n    tag_129:\n        /* \"#utility.yul\":3298:3304   */\n      dup3\n        /* \"#utility.yul\":3285:3305   */\n      calldataload\n        /* \"#utility.yul\":3275:3305   */\n      swap1\n      pop\n        /* \"#utility.yul\":3328:3346   */\n      0xffffffffffffffff\n        /* \"#utility.yul\":3320:3326   */\n      dup2\n        /* \"#utility.yul\":3317:3347   */\n      gt\n        /* \"#utility.yul\":3314:3431   */\n      iszero\n      tag_131\n      jumpi\n        /* \"#utility.yul\":3350:3429   */\n      tag_132\n      tag_72\n      jump\t// in\n    tag_132:\n        /* \"#utility.yul\":3314:3431   */\n    tag_131:\n        /* \"#utility.yul\":3464:3468   */\n      0x20\n        /* \"#utility.yul\":3456:3462   */\n      dup4\n        /* \"#utility.yul\":3452:3469   */\n      add\n        /* \"#utility.yul\":3440:3469   */\n      swap2\n      pop\n        /* \"#utility.yul\":3518:3521   */\n      dup4\n        /* \"#utility.yul\":3510:3514   */\n      0x01\n        /* \"#utility.yul\":3502:3508   */\n      dup3\n        /* \"#utility.yul\":3498:3515   */\n      mul\n        /* \"#utility.yul\":3488:3496   */\n      dup4\n        /* \"#utility.yul\":3484:3516   */\n      add\n        /* \"#utility.yul\":3481:3522   */\n      gt\n        /* \"#utility.yul\":3478:3606   */\n      iszero\n      tag_133\n      jumpi\n        /* \"#utility.yul\":3525:3604   */\n      tag_134\n      tag_73\n      jump\t// in\n    tag_134:\n        /* \"#utility.yul\":3478:3606   */\n    tag_133:\n        /* \"#utility.yul\":3059:3612   */\n      swap3\n      pop\n      swap3\n      swap1\n      pop\n      jump\t// out\n        /* \"#utility.yul\":3618:4147   */\n    tag_19:\n        /* \"#utility.yul\":3689:3695   */\n      0x00\n        /* \"#utility.yul\":3697:3703   */\n      dup1\n        /* \"#utility.yul\":3746:3748   */\n      0x20\n        /* \"#utility.yul\":3734:3743   */\n      dup4\n        /* \"#utility.yul\":3725:3732   */\n      dup6\n        /* \"#utility.yul\":3721:3744   */\n      sub\n        /* \"#utility.yul\":3717:3749   */\n      slt\n        /* \"#utility.yul\":3714:3833   */\n      iszero\n      tag_136\n      jumpi\n        /* \"#utility.yul\":3752:3831   */\n      tag_137\n      tag_59\n      jump\t// in\n    tag_137:\n        /* \"#utility.yul\":3714:3833   */\n    tag_136:\n        /* \"#utility.yul\":3900:3901   */\n      0x00\n        /* \"#utility.yul\":3889:3898   */\n      dup4\n        /* \"#utility.yul\":3885:3902   */\n      add\n        /* \"#utility.yul\":3872:3903   */\n      calldataload\n        /* \"#utility.yul\":3930:3948   */\n      0xffffffffffffffff\n        /* \"#utility.yul\":3922:3928   */\n      dup2\n        /* \"#utility.yul\":3919:3949   */\n      gt\n        /* \"#utility.yul\":3916:4033   */\n      iszero\n      tag_138\n      jumpi\n        /* \"#utility.yul\":3952:4031   */\n      tag_139\n      tag_60\n      jump\t// in\n    tag_139:\n        /* \"#utility.yul\":3916:4033   */\n    tag_138:\n        /* \"#utility.yul\":4065:4130   */\n      tag_140\n        /* \"#utility.yul\":4122:4129   */\n      dup6\n        /* \"#utility.yul\":4113:4119   */\n      dup3\n        /* \"#utility.yul\":4102:4111   */\n      dup7\n        /* \"#utility.yul\":4098:4120   */\n      add\n        /* \"#utility.yul\":4065:4130   */\n      tag_74\n      jump\t// in\n    tag_140:\n        /* \"#utility.yul\":4047:4130   */\n      swap3\n      pop\n      swap3\n      pop\n        /* \"#utility.yul\":3843:4140   */\n      pop\n        /* \"#utility.yul\":3618:4147   */\n      swap3\n      pop\n      swap3\n      swap1\n      pop\n      jump\t// out\n        /* \"#utility.yul\":4153:4827   */\n    tag_27:\n        /* \"#utility.yul\":4233:4239   */\n      0x00\n        /* \"#utility.yul\":4241:4247   */\n      dup1\n        /* \"#utility.yul\":4249:4255   */\n      0x00\n        /* \"#utility.yul\":4298:4300   */\n      0x40\n        /* \"#utility.yul\":4286:4295   */\n      dup5\n        /* \"#utility.yul\":4277:4284   */\n      dup7\n        /* \"#utility.yul\":4273:4296   */\n      sub\n        /* \"#utility.yul\":4269:4301   */\n      slt\n        /* \"#utility.yul\":4266:4385   */\n      iszero\n      tag_142\n      jumpi\n        /* \"#utility.yul\":4304:4383   */\n      tag_143\n      tag_59\n      jump\t// in\n    tag_143:\n        /* \"#utility.yul\":4266:4385   */\n    tag_142:\n        /* \"#utility.yul\":4424:4425   */\n      0x00\n        /* \"#utility.yul\":4449:4502   */\n      tag_144\n        /* \"#utility.yul\":4494:4501   */\n      dup7\n        /* \"#utility.yul\":4485:4491   */\n      dup3\n        /* \"#utility.yul\":4474:4483   */\n      dup8\n        /* \"#utility.yul\":4470:4492   */\n      add\n        /* \"#utility.yul\":4449:4502   */\n      tag_63\n      jump\t// in\n    tag_144:\n        /* \"#utility.yul\":4439:4502   */\n      swap4\n      pop\n        /* \"#utility.yul\":4395:4512   */\n      pop\n        /* \"#utility.yul\":4579:4581   */\n      0x20\n        /* \"#utility.yul\":4568:4577   */\n      dup5\n        /* \"#utility.yul\":4564:4582   */\n      add\n        /* \"#utility.yul\":4551:4583   */\n      calldataload\n        /* \"#utility.yul\":4610:4628   */\n      0xffffffffffffffff\n        /* \"#utility.yul\":4602:4608   */\n      dup2\n        /* \"#utility.yul\":4599:4629   */\n      gt\n        /* \"#utility.yul\":4596:4713   */\n      iszero\n      tag_145\n      jumpi\n        /* \"#utility.yul\":4632:4711   */\n      tag_146\n      tag_60\n      jump\t// in\n    tag_146:\n        /* \"#utility.yul\":4596:4713   */\n    tag_145:\n        /* \"#utility.yul\":4745:4810   */\n      tag_147\n        /* \"#utility.yul\":4802:4809   */\n      dup7\n        /* \"#utility.yul\":4793:4799   */\n      dup3\n        /* \"#utility.yul\":4782:4791   */\n      dup8\n        /* \"#utility.yul\":4778:4800   */\n      add\n        /* \"#utility.yul\":4745:4810   */\n      tag_74\n      jump\t// in\n    tag_147:\n        /* \"#utility.yul\":4727:4810   */\n      swap3\n      pop\n      swap3\n      pop\n        /* \"#utility.yul\":4522:4820   */\n      pop\n        /* \"#utility.yul\":4153:4827   */\n      swap3\n      pop\n      swap3\n      pop\n      swap3\n      jump\t// out\n        /* \"#utility.yul\":4833:5013   */\n    tag_32:\n        /* \"#utility.yul\":4881:4958   */\n      0x4e487b7100000000000000000000000000000000000000000000000000000000\n        /* \"#utility.yul\":4878:4879   */\n      0x00\n        /* \"#utility.yul\":4871:4959   */\n      mstore\n        /* \"#utility.yul\":4978:4982   */\n      0x32\n        /* \"#utility.yul\":4975:4976   */\n      0x04\n        /* \"#utility.yul\":4968:4983   */\n      mstore\n        /* \"#utility.yul\":5002:5006   */\n      0x24\n        /* \"#utility.yul\":4999:5000   */\n      0x00\n        /* \"#utility.yul\":4992:5007   */\n      revert\n        /* \"#utility.yul\":5019:5199   */\n    tag_75:\n        /* \"#utility.yul\":5067:5144   */\n      0x4e487b7100000000000000000000000000000000000000000000000000000000\n        /* \"#utility.yul\":5064:5065   */\n      0x00\n        /* \"#utility.yul\":5057:5145   */\n      mstore\n        /* \"#utility.yul\":5164:5168   */\n      0x22\n        /* \"#utility.yul\":5161:5162   */\n      0x04\n        /* \"#utility.yul\":5154:5169   */\n      mstore\n        /* \"#utility.yul\":5188:5192   */\n      0x24\n        /* \"#utility.yul\":5185:5186   */\n      0x00\n        /* \"#utility.yul\":5178:5193   */\n      revert\n        /* \"#utility.yul\":5205:5525   */\n    tag_39:\n        /* \"#utility.yul\":5249:5255   */\n      0x00\n        /* \"#utility.yul\":5286:5287   */\n      0x02\n        /* \"#utility.yul\":5280:5284   */\n      dup3\n        /* \"#utility.yul\":5276:5288   */\n      div\n        /* \"#utility.yul\":5266:5288   */\n      swap1\n      pop\n        /* \"#utility.yul\":5333:5334   */\n      0x01\n        /* \"#utility.yul\":5327:5331   */\n      dup3\n        /* \"#utility.yul\":5323:5335   */\n      and\n        /* \"#utility.yul\":5354:5372   */\n      dup1\n        /* \"#utility.yul\":5344:5425   */\n      tag_151\n      jumpi\n        /* \"#utility.yul\":5410:5414   */\n      0x7f\n        /* \"#utility.yul\":5402:5408   */\n      dup3\n        /* \"#utility.yul\":5398:5415   */\n      and\n        /* \"#utility.yul\":5388:5415   */\n      swap2\n      pop\n        /* \"#utility.yul\":5344:5425   */\n    tag_151:\n        /* \"#utility.yul\":5472:5474   */\n      0x20\n        /* \"#utility.yul\":5464:5470   */\n      dup3\n        /* \"#utility.yul\":5461:5475   */\n      lt\n        /* \"#utility.yul\":5441:5459   */\n      dup2\n        /* \"#utility.yul\":5438:5476   */\n      sub\n        /* \"#utility.yul\":5435:5519   */\n      tag_152\n      jumpi\n        /* \"#utility.yul\":5491:5509   */\n      tag_153\n      tag_75\n      jump\t// in\n    tag_153:\n        /* \"#utility.yul\":5435:5519   */\n    tag_152:\n        /* \"#utility.yul\":5256:5525   */\n      pop\n        /* \"#utility.yul\":5205:5525   */\n      swap2\n      swap1\n      pop\n      jump\t// out\n        /* \"#utility.yul\":5531:5628   */\n    tag_76:\n        /* \"#utility.yul\":5590:5596   */\n      0x00\n        /* \"#utility.yul\":5618:5621   */\n      dup3\n        /* \"#utility.yul\":5608:5621   */\n      swap1\n      pop\n        /* \"#utility.yul\":5531:5628   */\n      swap3\n      swap2\n      pop\n      pop\n      jump\t// out\n        /* \"#utility.yul\":5634:5814   */\n    tag_77:\n        /* \"#utility.yul\":5682:5759   */\n      0x4e487b7100000000000000000000000000000000000000000000000000000000\n        /* \"#utility.yul\":5679:5680   */\n      0x00\n        /* \"#utility.yul\":5672:5760   */\n      mstore\n        /* \"#utility.yul\":5779:5783   */\n      0x41\n        /* \"#utility.yul\":5776:5777   */\n      0x04\n        /* \"#utility.yul\":5769:5784   */\n      mstore\n        /* \"#utility.yul\":5803:5807   */\n      0x24\n        /* \"#utility.yul\":5800:5801   */\n      0x00\n        /* \"#utility.yul\":5793:5808   */\n      revert\n        /* \"#utility.yul\":5820:5961   */\n    tag_78:\n        /* \"#utility.yul\":5869:5873   */\n      0x00\n        /* \"#utility.yul\":5892:5895   */\n      dup2\n        /* \"#utility.yul\":5884:5895   */\n      swap1\n      pop\n        /* \"#utility.yul\":5915:5918   */\n      dup2\n        /* \"#utility.yul\":5912:5913   */\n      0x00\n        /* \"#utility.yul\":5905:5919   */\n      mstore\n        /* \"#utility.yul\":5949:5953   */\n      0x20\n        /* \"#utility.yul\":5946:5947   */\n      0x00\n        /* \"#utility.yul\":5936:5954   */\n      keccak256\n        /* \"#utility.yul\":5928:5954   */\n      swap1\n      pop\n        /* \"#utility.yul\":5820:5961   */\n      swap2\n      swap1\n      pop\n      jump\t// out\n        /* \"#utility.yul\":5967:6060   */\n    tag_79:\n        /* \"#utility.yul\":6004:6010   */\n      0x00\n        /* \"#utility.yul\":6051:6053   */\n      0x20\n        /* \"#utility.yul\":6046:6048   */\n      0x1f\n        /* \"#utility.yul\":6039:6044   */\n      dup4\n        /* \"#utility.yul\":6035:6049   */\n      add\n        /* \"#utility.yul\":6031:6054   */\n      div\n        /* \"#utility.yul\":6021:6054   */\n      swap1\n      pop\n        /* \"#utility.yul\":5967:6060   */\n      swap2\n      swap1\n      pop\n      jump\t// out\n        /* \"#utility.yul\":6066:6173   */\n    tag_80:\n        /* \"#utility.yul\":6110:6118   */\n      0x00\n        /* \"#utility.yul\":6160:6165   */\n      dup3\n        /* \"#utility.yul\":6154:6158   */\n      dup3\n        /* \"#utility.yul\":6150:6166   */\n      shl\n        /* \"#utility.yul\":6129:6166   */\n      swap1\n      pop\n        /* \"#utility.yul\":6066:6173   */\n      swap3\n      swap2\n      pop\n      pop\n      jump\t// out\n        /* \"#utility.yul\":6179:6572   */\n    tag_81:\n        /* \"#utility.yul\":6248:6254   */\n      0x00\n        /* \"#utility.yul\":6298:6299   */\n      0x08\n        /* \"#utility.yul\":6286:6296   */\n      dup4\n        /* \"#utility.yul\":6282:6300   */\n      mul\n        /* \"#utility.yul\":6321:6418   */\n      tag_160\n        /* \"#utility.yul\":6351:6417   */\n      0xffffffffffffffffffffffffffffffffffffffffffffffffffffffffffffffff\n        /* \"#utility.yul\":6340:6349   */\n      dup3\n        /* \"#utility.yul\":6321:6418   */\n      tag_80\n      jump\t// in\n    tag_160:\n        /* \"#utility.yul\":6439:6478   */\n      tag_161\n        /* \"#utility.yul\":6469:6477   */\n      dup7\n        /* \"#utility.yul\":6458:6467   */\n      dup4\n        /* \"#utility.yul\":6439:6478   */\n      tag_80\n      jump\t// in\n    tag_161:\n        /* \"#utility.yul\":6427:6478   */\n      swap6\n      pop\n        /* \"#utility.yul\":6511:6515   */\n      dup1\n        /* \"#utility.yul\":6507:6516   */\n      not\n        /* \"#utility.yul\":6500:6505   */\n      dup5\n        /* \"#utility.yul\":6496:6517   */\n      and\n        /* \"#utility.yul\":6487:6517   */\n      swap4\n      pop\n        /* \"#utility.yul\":6560:6564   */\n      dup1\n        /* \"#utility.yul\":6550:6558   */\n      dup7\n        /* \"#utility.yul\":6546:6565   */\n      and\n        /* \"#utility.yul\":6539:6544   */\n      dup5\n        /* \"#utility.yul\":6536:6566   */\n      or\n        /* \"#utility.yul\":6526:6566   */\n      swap3\n      pop\n        /* \"#utility.yul\":6255:6572   */\n      pop\n      pop\n        /* \"#utility.yul\":6179:6572   */\n      swap4\n      swap3\n      pop\n      pop\n      pop\n      jump\t// out\n        /* \"#utility.yul\":6578:6638   */\n    tag_82:\n        /* \"#utility.yul\":6606:6609   */\n      0x00\n        /* \"#utility.yul\":6627:6632   */\n      dup2\n        /* \"#utility.yul\":6620:6632   */\n      swap1\n      pop\n        /* \"#utility.yul\":6578:6638   */\n      swap2\n      swap1\n      pop\n      jump\t// out\n        /* \"#utility.yul\":6644:6786   */\n    tag_83:\n        /* \"#utility.yul\":6694:6703   */\n      0x00\n        /* \"#utility.yul\":6727:6780   */\n      tag_164\n        /* \"#utility.yul\":6745:6779   */\n      tag_165\n        /* \"#utility.yul\":6754:6778   */\n      tag_166\n        /* \"#utility.yul\":6772:6777   */\n      dup5\n        /* \"#utility.yul\":6754:6778   */\n      tag_61\n      jump\t// in\n    tag_166:\n        /* \"#utility.yul\":6745:6779   */\n      tag_82\n      jump\t// in\n    tag_165:\n        /* \"#utility.yul\":6727:6780   */\n      tag_61\n      jump\t// in\n    tag_164:\n        /* \"#utility.yul\":6714:6780   */\n      swap1\n      pop\n        /* \"#utility.yul\":6644:6786   */\n      swap2\n      swap1\n      pop\n      jump\t// out\n        /* \"#utility.yul\":6792:6867   */\n    tag_84:\n        /* \"#utility.yul\":6835:6838   */\n      0x00\n        /* \"#utility.yul\":6856:6861   */\n      dup2\n        /* \"#utility.yul\":6849:6861   */\n      swap1\n      pop\n        /* \"#utility.yul\":6792:6867   */\n      swap2\n      swap1\n      pop\n      jump\t// out\n        /* \"#utility.yul\":6873:7142   */\n    tag_85:\n        /* \"#utility.yul\":6983:7022   */\n      tag_169\n        /* \"#utility.yul\":7014:7021   */\n      dup4\n        /* \"#utility.yul\":6983:7022   */\n      tag_83\n      jump\t// in\n    tag_169:\n        /* \"#utility.yul\":7044:7135   */\n      tag_170\n        /* \"#utility.yul\":7093:7134   */\n      tag_171\n        /* \"#utility.yul\":7117:7133   */\n      dup3\n        /* \"#utility.yul\":7093:7134   */\n      tag_84\n      jump\t// in\n    tag_171:\n        /* \"#utility.yul\":7085:7091   */\n      dup5\n        /* \"#utility.yul\":7078:7082   */\n      dup5\n        /* \"#utility.yul\":7072:7083   */\n      sload\n        /* \"#utility.yul\":7044:7135   */\n      tag_81\n      jump\t// in\n    tag_170:\n        /* \"#utility.yul\":7038:7042   */\n      dup3\n        /* \"#utility.yul\":7031:7136   */\n      sstore\n        /* \"#utility.yul\":6949:7142   */\n      pop\n        /* \"#utility.yul\":6873:7142   */\n      pop\n      pop\n      pop\n      jump\t// out\n        /* \"#utility.yul\":7148:7221   */\n    tag_86:\n        /* \"#utility.yul\":7193:7196   */\n      0x00\n        /* \"#utility.yul\":7148:7221   */\n      swap1\n      jump\t// out\n        /* \"#utility.yul\":7227:7416   */\n    tag_87:\n        /* \"#utility.yul\":7304:7336   */\n      tag_174\n      tag_86\n      jump\t// in\n    tag_174:\n        /* \"#utility.yul\":7345:7410   */\n      tag_175\n        /* \"#utility.yul\":7403:7409   */\n      dup2\n        /* \"#utility.yul\":7395:7401   */\n      dup5\n        /* \"#utility.yul\":7389:7393   */\n      dup5\n        /* \"#utility.yul\":7345:7410   */\n      tag_85\n      jump\t// in\n    tag_175:\n        /* \"#utility.yul\":7280:7416   */\n      pop\n        /* \"#utility.yul\":7227:7416   */\n      pop\n      pop\n      jump\t// out\n        /* \"#utility.yul\":7422:7608   */\n    tag_88:\n        /* \"#utility.yul\":7482:7602   */\n    tag_177:\n        /* \"#utility.yul\":7499:7502   */\n      dup2\n        /* \"#utility.yul\":7492:7497   */\n      dup2\n        /* \"#utility.yul\":7489:7503   */\n      lt\n        /* \"#utility.yul\":7482:7602   */\n      iszero\n      tag_179\n      jumpi\n        /* \"#utility.yul\":7553:7592   */\n      tag_180\n        /* \"#utility.yul\":7590:7591   */\n      0x00\n        /* \"#utility.yul\":7583:7588   */\n      dup3\n        /* \"#utility.yul\":7553:7592   */\n      tag_87\n      jump\t// in\n    tag_180:\n        /* \"#utility.yul\":7526:7527   */\n      0x01\n        /* \"#utility.yul\":7519:7524   */\n      dup2\n        /* \"#utility.yul\":7515:7528   */\n      add\n        /* \"#utility.yul\":7506:7528   */\n      swap1\n      pop\n        /* \"#utility.yul\":7482:7602   */\n      jump(tag_177)\n    tag_179:\n        /* \"#utility.yul\":7422:7608   */\n      pop\n      pop\n      jump\t// out\n        /* \"#utility.yul\":7614:8157   */\n    tag_89:\n        /* \"#utility.yul\":7715:7717   */\n      0x1f\n        /* \"#utility.yul\":7710:7713   */\n      dup3\n        /* \"#utility.yul\":7707:7718   */\n      gt\n        /* \"#utility.yul\":7704:8150   */\n      iszero\n      tag_182\n      jumpi\n        /* \"#utility.yul\":7749:7787   */\n      tag_183\n        /* \"#utility.yul\":7781:7786   */\n      dup2\n        /* \"#utility.yul\":7749:7787   */\n      tag_78\n      jump\t// in\n    tag_183:\n        /* \"#utility.yul\":7833:7862   */\n      tag_184\n        /* \"#utility.yul\":7851:7861   */\n      dup5\n        /* \"#utility.yul\":7833:7862   */\n      tag_79\n      jump\t// in\n    tag_184:\n        /* \"#utility.yul\":7823:7831   */\n      dup2\n        /* \"#utility.yul\":7819:7863   */\n      add\n        /* \"#utility.yul\":8016:8018   */\n      0x20\n        /* \"#utility.yul\":8004:8014   */\n      dup6\n        /* \"#utility.yul\":8001:8019   */\n      lt\n        /* \"#utility.yul\":7998:8047   */\n      iszero\n      tag_185\n      jumpi\n        /* \"#utility.yul\":8037:8045   */\n      dup2\n        /* \"#utility.yul\":8022:8045   */\n      swap1\n      pop\n        /* \"#utility.yul\":7998:8047   */\n    tag_185:\n        /* \"#utility.yul\":8060:8140   */\n      tag_186\n        /* \"#utility.yul\":8116:8138   */\n      tag_187\n        /* \"#utility.yul\":8134:8137   */\n      dup6\n        /* \"#utility.yul\":8116:8138   */\n      tag_79\n      jump\t// in\n    tag_187:\n        /* \"#utility.yul\":8106:8114   */\n      dup4\n        /* \"#utility.yul\":8102:8139   */\n      add\n        /* \"#utility.yul\":8089:8100   */\n      dup3\n        /* \"#utility.yul\":8060:8140   */\n      tag_88\n      jump\t// in\n    tag_186:\n        /* \"#utility.yul\":7719:8150   */\n      pop\n      pop\n        /* \"#utility.yul\":7704:8150   */\n    tag_182:\n        /* \"#utility.yul\":7614:8157   */\n      pop\n      pop\n      pop\n      jump\t// out\n        /* \"#utility.yul\":8163:8280   */\n    tag_90:\n        /* \"#utility.yul\":8217:8225   */\n      0x00\n        /* \"#utility.yul\":8267:8272   */\n      dup3\n        /* \"#utility.yul\":8261:8265   */\n      dup3\n        /* \"#utility.yul\":8257:8273   */\n      shr\n        /* \"#utility.yul\":8236:8273   */\n      swap1\n      pop\n        /* \"#utility.yul\":8163:8280   */\n      swap3\n      swap2\n      pop\n      pop\n      jump\t// out\n        /* \"#utility.yul\":8286:8455   */\n    tag_91:\n        /* \"#utility.yul\":8330:8336   */\n      0x00\n        /* \"#utility.yul\":8363:8414   */\n      tag_190\n        /* \"#utility.yul\":8411:8412   */\n      0x00\n        /* \"#utility.yul\":8407:8413   */\n      not\n        /* \"#utility.yul\":8399:8404   */\n      dup5\n        /* \"#utility.yul\":8396:8397   */\n      0x08\n        /* \"#utility.yul\":8392:8405   */\n      mul\n        /* \"#utility.yul\":8363:8414   */\n      tag_90\n      jump\t// in\n    tag_190:\n        /* \"#utility.yul\":8359:8415   */\n      not\n        /* \"#utility.yul\":8444:8448   */\n      dup1\n        /* \"#utility.yul\":8438:8442   */\n      dup4\n        /* \"#utility.yul\":8434:8449   */\n      and\n        /* \"#utility.yul\":8424:8449   */\n      swap2\n      pop\n        /* \"#utility.yul\":8337:8455   */\n      pop\n        /* \"#utility.yul\":8286:8455   */\n      swap3\n      swap2\n      pop\n      pop\n      jump\t// out\n        /* \"#utility.yul\":8460:8755   */\n    tag_92:\n        /* \"#utility.yul\":8536:8540   */\n      0x00\n        /* \"#utility.yul\":8682:8711   */\n      tag_192\n        /* \"#utility.yul\":8707:8710   */\n      dup4\n        /* \"#utility.yul\":8701:8705   */\n      dup4\n        /* \"#utility.yul\":8682:8711   */\n      tag_91\n      jump\t// in\n    tag_192:\n        /* \"#utility.yul\":8674:8711   */\n      swap2\n      pop\n        /* \"#utility.yul\":8744:8747   */\n      dup3\n        /* \"#utility.yul\":8741:8742   */\n      0x02\n        /* \"#utility.yul\":8737:8748   */\n      mul\n        /* \"#utility.yul\":8731:8735   */\n      dup3\n        /* \"#utility.yul\":8728:8749   */\n      or\n        /* \"#utility.yul\":8720:8749   */\n      swap1\n      pop\n        /* \"#utility.yul\":8460:8755   */\n      swap3\n      swap2\n      pop\n      pop\n      jump\t// out\n        /* \"#utility.yul\":8760:10163   */\n    tag_57:\n        /* \"#utility.yul\":8884:8928   */\n      tag_194\n        /* \"#utility.yul\":8924:8927   */\n      dup4\n        /* \"#utility.yul\":8919:8922   */\n      dup4\n        /* \"#utility.yul\":8884:8928   */\n      tag_76\n      jump\t// in\n    tag_194:\n        /* \"#utility.yul\":8993:9011   */\n      0xffffffffffffffff\n        /* \"#utility.yul\":8985:8991   */\n      dup2\n        /* \"#utility.yul\":8982:9012   */\n      gt\n        /* \"#utility.yul\":8979:9035   */\n      iszero\n      tag_195\n      jumpi\n        /* \"#utility.yul\":9015:9033   */\n      tag_196\n      tag_77\n      jump\t// in\n    tag_196:\n        /* \"#utility.yul\":8979:9035   */\n    tag_195:\n        /* \"#utility.yul\":9059:9097   */\n      tag_197\n        /* \"#utility.yul\":9091:9095   */\n      dup3\n        /* \"#utility.yul\":9085:9096   */\n      sload\n        /* \"#utility.yul\":9059:9097   */\n      tag_39\n      jump\t// in\n    tag_197:\n        /* \"#utility.yul\":9144:9211   */\n      tag_198\n        /* \"#utility.yul\":9204:9210   */\n      dup3\n        /* \"#utility.yul\":9196:9202   */\n      dup3\n        /* \"#utility.yul\":9190:9194   */\n      dup6\n        /* \"#utility.yul\":9144:9211   */\n      tag_89\n      jump\t// in\n    tag_198:\n        /* \"#utility.yul\":9238:9239   */\n      0x00\n        /* \"#utility.yul\":9267:9269   */\n      0x1f\n        /* \"#utility.yul\":9259:9265   */\n      dup4\n        /* \"#utility.yul\":9256:9270   */\n      gt\n        /* \"#utility.yul\":9284:9285   */\n      0x01\n        /* \"#utility.yul\":9279:9911   */\n      dup2\n      eq\n      tag_200\n      jumpi\n        /* \"#utility.yul\":9955:9956   */\n      0x00\n        /* \"#utility.yul\":9972:9978   */\n      dup5\n        /* \"#utility.yul\":9969:10053   */\n      iszero\n      tag_201\n      jumpi\n        /* \"#utility.yul\":10028:10037   */\n      dup3\n        /* \"#utility.yul\":10023:10026   */\n      dup8\n        /* \"#utility.yul\":10019:10038   */\n      add\n        /* \"#utility.yul\":10006:10039   */\n      calldataload\n        /* \"#utility.yul\":9997:10039   */\n      swap1\n      pop\n        /* \"#utility.yul\":9969:10053   */\n    tag_201:\n        /* \"#utility.yul\":10079:10146   */\n      tag_202\n        /* \"#utility.yul\":10139:10145   */\n      dup6\n        /* \"#utility.yul\":10132:10137   */\n      dup3\n        /* \"#utility.yul\":10079:10146   */\n      tag_92\n      jump\t// in\n    tag_202:\n        /* \"#utility.yul\":10073:10077   */\n      dup7\n        /* \"#utility.yul\":10066:10147   */\n      sstore\n        /* \"#utility.yul\":9928:10157   */\n      pop\n        /* \"#utility.yul\":9249:10157   */\n      jump(tag_199)\n        /* \"#utility.yul\":9279:9911   */\n    tag_200:\n        /* \"#utility.yul\":9331:9335   */\n      0x1f\n        /* \"#utility.yul\":9327:9336   */\n      not\n        /* \"#utility.yul\":9319:9325   */\n      dup5\n        /* \"#utility.yul\":9315:9337   */\n      and\n        /* \"#utility.yul\":9365:9402   */\n      tag_203\n        /* \"#utility.yul\":9397:9401   */\n      dup7\n        /* \"#utility.yul\":9365:9402   */\n      tag_78\n      jump\t// in\n    tag_203:\n        /* \"#utility.yul\":9424:9425   */\n      0x00\n        /* \"#utility.yul\":9438:9653   */\n    tag_204:\n        /* \"#utility.yul\":9452:9459   */\n      dup3\n        /* \"#utility.yul\":9449:9450   */\n      dup2\n        /* \"#utility.yul\":9446:9460   */\n      lt\n        /* \"#utility.yul\":9438:9653   */\n      iszero\n      tag_206\n      jumpi\n        /* \"#utility.yul\":9538:9547   */\n      dup5\n        /* \"#utility.yul\":9533:9536   */\n      dup10\n        /* \"#utility.yul\":9529:9548   */\n      add\n        /* \"#utility.yul\":9516:9549   */\n      calldataload\n        /* \"#utility.yul\":9508:9514   */\n      dup3\n        /* \"#utility.yul\":9501:9550   */\n      sstore\n        /* \"#utility.yul\":9589:9590   */\n      0x01\n        /* \"#utility.yul\":9581:9587   */\n      dup3\n        /* \"#utility.yul\":9577:9591   */\n      add\n        /* \"#utility.yul\":9567:9591   */\n      swap2\n      pop\n        /* \"#utility.yul\":9636:9638   */\n      0x20\n        /* \"#utility.yul\":9625:9634   */\n      dup6\n        /* \"#utility.yul\":9621:9639   */\n      add\n        /* \"#utility.yul\":9608:9639   */\n      swap5\n      pop\n        /* \"#utility.yul\":9475:9479   */\n      0x20\n        /* \"#utility.yul\":9472:9473   */\n      dup2\n        /* \"#utility.yul\":9468:9480   */\n      add\n        /* \"#utility.yul\":9463:9480   */\n      swap1\n      pop\n        /* \"#utility.yul\":9438:9653   */\n      jump(tag_204)\n    tag_206:\n        /* \"#utility.yul\":9681:9687   */\n      dup7\n        /* \"#utility.yul\":9672:9679   */\n      dup4\n        /* \"#utility.yul\":9669:9688   */\n      lt\n        /* \"#utility.yul\":9666:9852   */\n      iszero\n      tag_207\n      jumpi\n        /* \"#utility.yul\":9746:9755   */\n      dup5\n        /* \"#utility.yul\":9741:9744   */\n      dup10\n        /* \"#utility.yul\":9737:9756   */\n      add\n        /* \"#utility.yul\":9724:9757   */\n      calldataload\n        /* \"#utility.yul\":9789:9837   */\n      tag_208\n        /* \"#utility.yul\":9831:9835   */\n      0x1f\n        /* \"#utility.yul\":9823:9829   */\n      dup10\n        /* \"#utility.yul\":9819:9836   */\n      and\n        /* \"#utility.yul\":9808:9817   */\n      dup3\n        /* \"#utility.yul\":9789:9837   */\n      tag_91\n      jump\t// in\n    tag_208:\n        /* \"#utility.yul\":9781:9787   */\n      dup4\n        /* \"#utility.yul\":9774:9838   */\n      sstore\n        /* \"#utility.yul\":9689:9852   */\n      pop\n        /* \"#utility.yul\":9666:9852   */\n    tag_207:\n        /* \"#utility.yul\":9898:9899   */\n      0x01\n        /* \"#utility.yul\":9894:9895   */\n      0x02\n        /* \"#utility.yul\":9886:9892   */\n      dup9\n        /* \"#utility.yul\":9882:9896   */\n      mul\n        /* \"#utility.yul\":9878:9900   */\n      add\n        /* \"#utility.yul\":9872:9876   */\n      dup9\n        /* \"#utility.yul\":9865:9901   */\n      sstore\n        /* \"#utility.yul\":9286:9911   */\n      pop\n      pop\n      pop\n        /* \"#utility.yul\":9249:10157   */\n    tag_199:\n      pop\n        /* \"#utility.yul\":8859:10163   */\n      pop\n      pop\n      pop\n        /* \"#utility.yul\":8760:10163   */\n      pop\n      pop\n      pop\n      jump\t// out\n\n    auxdata: 0xa2646970667358221220193f2ce83c474b82ac79e2b8511cfcb94cdb7f68d1ea4170ed9a6c1bb6b572ac64736f6c63430008110033\n}\n",
				"bytecode": {
					"linkReferences": {},
					"object": "608060405234801561001057600080fd5b5061091f806100206000396000f3fe608060405234801561001057600080fd5b50600436106100575760003560e01c8063455f50241461005c5780639507d39a14610078578063b6a46b3b146100a9578063bc8bc2b4146100c5578063cd111614146100f6575b600080fd5b6100766004803603810190610071919061038a565b610112565b005b610092600480360381019061008d919061038a565b610169565b6040516100a0929190610462565b60405180910390f35b6100c360048036038101906100be91906104f7565b61023e565b005b6100df60048036038101906100da919061038a565b610242565b6040516100ed929190610462565b60405180910390f35b610110600480360381019061010b9190610544565b61030b565b005b6000808281548110610127576101266105a4565b5b906000526020600020906002020190508060010160009054906101000a900460ff16158160010160006101000a81548160ff0219169083151502179055505050565b606060008060008481548110610182576101816105a4565b5b90600052602060002090600202019050806000018160010160009054906101000a900460ff168180546101b490610602565b80601f01602080910402602001604051908101604052809291908181526020018280546101e090610602565b801561022d5780601f106102025761010080835404028352916020019161022d565b820191906000526020600020905b81548152906001019060200180831161021057829003601f168201915b505050505091509250925050915091565b5050565b6000818154811061025257600080fd5b906000526020600020906002020160009150905080600001805461027590610602565b80601f01602080910402602001604051908101604052809291908181526020018280546102a190610602565b80156102ee5780601f106102c3576101008083540402835291602001916102ee565b820191906000526020600020905b8154815290600101906020018083116102d157829003601f168201915b5050505050908060010160009054906101000a900460ff16905082565b60008084815481106103205761031f6105a4565b5b906000526020600020906002020190508282826000019182610343929190610819565b5050505050565b600080fd5b600080fd5b6000819050919050565b61036781610354565b811461037257600080fd5b50565b6000813590506103848161035e565b92915050565b6000602082840312156103a05761039f61034a565b5b60006103ae84828501610375565b91505092915050565b600081519050919050565b600082825260208201905092915050565b60005b838110156103f15780820151818401526020810190506103d6565b60008484015250505050565b6000601f19601f8301169050919050565b6000610419826103b7565b61042381856103c2565b93506104338185602086016103d3565b61043c816103fd565b840191505092915050565b60008115159050919050565b61045c81610447565b82525050565b6000604082019050818103600083015261047c818561040e565b905061048b6020830184610453565b9392505050565b600080fd5b600080fd5b600080fd5b60008083601f8401126104b7576104b6610492565b5b8235905067ffffffffffffffff8111156104d4576104d3610497565b5b6020830191508360018202830111156104f0576104ef61049c565b5b9250929050565b6000806020838503121561050e5761050d61034a565b5b600083013567ffffffffffffffff81111561052c5761052b61034f565b5b610538858286016104a1565b92509250509250929050565b60008060006040848603121561055d5761055c61034a565b5b600061056b86828701610375565b935050602084013567ffffffffffffffff81111561058c5761058b61034f565b5b610598868287016104a1565b92509250509250925092565b7f4e487b7100000000000000000000000000000000000000000000000000000000600052603260045260246000fd5b7f4e487b7100000000000000000000000000000000000000000000000000000000600052602260045260246000fd5b6000600282049050600182168061061a57607f821691505b60208210810361062d5761062c6105d3565b5b50919050565b600082905092915050565b7f4e487b7100000000000000000000000000000000000000000000000000000000600052604160045260246000fd5b60008190508160005260206000209050919050565b60006020601f8301049050919050565b600082821b905092915050565b6000600883026106cf7fffffffffffffffffffffffffffffffffffffffffffffffffffffffffffffffff82610692565b6106d98683610692565b95508019841693508086168417925050509392505050565b6000819050919050565b600061071661071161070c84610354565b6106f1565b610354565b9050919050565b6000819050919050565b610730836106fb565b61074461073c8261071d565b84845461069f565b825550505050565b600090565b61075961074c565b610764818484610727565b505050565b5b818110156107885761077d600082610751565b60018101905061076a565b5050565b601f8211156107cd5761079e8161066d565b6107a784610682565b810160208510156107b6578190505b6107ca6107c285610682565b830182610769565b50505b505050565b600082821c905092915050565b60006107f0600019846008026107d2565b1980831691505092915050565b600061080983836107df565b9150826002028217905092915050565b6108238383610633565b67ffffffffffffffff81111561083c5761083b61063e565b5b6108468254610602565b61085182828561078c565b6000601f831160018114610880576000841561086e578287013590505b61087885826107fd565b8655506108e0565b601f19841661088e8661066d565b60005b828110156108b657848901358255600182019150602085019450602081019050610891565b868310156108d357848901356108cf601f8916826107df565b8355505b6001600288020188555050505b5050505050505056fea2646970667358221220193f2ce83c474b82ac79e2b8511cfcb94cdb7f68d1ea4170ed9a6c1bb6b572ac64736f6c63430008110033",
					"opcodes": "PUSH1 0x80 PUSH1 0x40 MSTORE CALLVALUE DUP1 ISZERO PUSH2 0x10 JUMPI PUSH1 0x0 DUP1 REVERT JUMPDEST POP PUSH2 0x91F DUP1 PUSH2 0x20 PUSH1 0x0 CODECOPY PUSH1 0x0 RETURN INVALID PUSH1 0x80 PUSH1 0x40 MSTORE CALLVALUE DUP1 ISZERO PUSH2 0x10 JUMPI PUSH1 0x0 DUP1 REVERT JUMPDEST POP PUSH1 0x4 CALLDATASIZE LT PUSH2 0x57 JUMPI PUSH1 0x0 CALLDATALOAD PUSH1 0xE0 SHR DUP1 PUSH4 0x455F5024 EQ PUSH2 0x5C JUMPI DUP1 PUSH4 0x9507D39A EQ PUSH2 0x78 JUMPI DUP1 PUSH4 0xB6A46B3B EQ PUSH2 0xA9 JUMPI DUP1 PUSH4 0xBC8BC2B4 EQ PUSH2 0xC5 JUMPI DUP1 PUSH4 0xCD111614 EQ PUSH2 0xF6 JUMPI JUMPDEST PUSH1 0x0 DUP1 REVERT JUMPDEST PUSH2 0x76 PUSH1 0x4 DUP1 CALLDATASIZE SUB DUP2 ADD SWAP1 PUSH2 0x71 SWAP2 SWAP1 PUSH2 0x38A JUMP JUMPDEST PUSH2 0x112 JUMP JUMPDEST STOP JUMPDEST PUSH2 0x92 PUSH1 0x4 DUP1 CALLDATASIZE SUB DUP2 ADD SWAP1 PUSH2 0x8D SWAP2 SWAP1 PUSH2 0x38A JUMP JUMPDEST PUSH2 0x169 JUMP JUMPDEST PUSH1 0x40 MLOAD PUSH2 0xA0 SWAP3 SWAP2 SWAP1 PUSH2 0x462 JUMP JUMPDEST PUSH1 0x40 MLOAD DUP1 SWAP2 SUB SWAP1 RETURN JUMPDEST PUSH2 0xC3 PUSH1 0x4 DUP1 CALLDATASIZE SUB DUP2 ADD SWAP1 PUSH2 0xBE SWAP2 SWAP1 PUSH2 0x4F7 JUMP JUMPDEST PUSH2 0x23E JUMP JUMPDEST STOP JUMPDEST PUSH2 0xDF PUSH1 0x4 DUP1 CALLDATASIZE SUB DUP2 ADD SWAP1 PUSH2 0xDA SWAP2 SWAP1 PUSH2 0x38A JUMP JUMPDEST PUSH2 0x242 JUMP JUMPDEST PUSH1 0x40 MLOAD PUSH2 0xED SWAP3 SWAP2 SWAP1 PUSH2 0x462 JUMP JUMPDEST PUSH1 0x40 MLOAD DUP1 SWAP2 SUB SWAP1 RETURN JUMPDEST PUSH2 0x110 PUSH1 0x4 DUP1 CALLDATASIZE SUB DUP2 ADD SWAP1 PUSH2 0x10B SWAP2 SWAP1 PUSH2 0x544 JUMP JUMPDEST PUSH2 0x30B JUMP JUMPDEST STOP JUMPDEST PUSH1 0x0 DUP1 DUP3 DUP2 SLOAD DUP2 LT PUSH2 0x127 JUMPI PUSH2 0x126 PUSH2 0x5A4 JUMP JUMPDEST JUMPDEST SWAP1 PUSH1 0x0 MSTORE PUSH1 0x20 PUSH1 0x0 KECCAK256 SWAP1 PUSH1 0x2 MUL ADD SWAP1 POP DUP1 PUSH1 0x1 ADD PUSH1 0x0 SWAP1 SLOAD SWAP1 PUSH2 0x100 EXP SWAP1 DIV PUSH1 0xFF AND ISZERO DUP2 PUSH1 0x1 ADD PUSH1 0x0 PUSH2 0x100 EXP DUP2 SLOAD DUP2 PUSH1 0xFF MUL NOT AND SWAP1 DUP4 ISZERO ISZERO MUL OR SWAP1 SSTORE POP POP POP JUMP JUMPDEST PUSH1 0x60 PUSH1 0x0 DUP1 PUSH1 0x0 DUP5 DUP2 SLOAD DUP2 LT PUSH2 0x182 JUMPI PUSH2 0x181 PUSH2 0x5A4 JUMP JUMPDEST JUMPDEST SWAP1 PUSH1 0x0 MSTORE PUSH1 0x20 PUSH1 0x0 KECCAK256 SWAP1 PUSH1 0x2 MUL ADD SWAP1 POP DUP1 PUSH1 0x0 ADD DUP2 PUSH1 0x1 ADD PUSH1 0x0 SWAP1 SLOAD SWAP1 PUSH2 0x100 EXP SWAP1 DIV PUSH1 0xFF AND DUP2 DUP1 SLOAD PUSH2 0x1B4 SWAP1 PUSH2 0x602 JUMP JUMPDEST DUP1 PUSH1 0x1F ADD PUSH1 0x20 DUP1 SWAP2 DIV MUL PUSH1 0x20 ADD PUSH1 0x40 MLOAD SWAP1 DUP2 ADD PUSH1 0x40 MSTORE DUP1 SWAP3 SWAP2 SWAP1 DUP2 DUP2 MSTORE PUSH1 0x20 ADD DUP3 DUP1 SLOAD PUSH2 0x1E0 SWAP1 PUSH2 0x602 JUMP JUMPDEST DUP1 ISZERO PUSH2 0x22D JUMPI DUP1 PUSH1 0x1F LT PUSH2 0x202 JUMPI PUSH2 0x100 DUP1 DUP4 SLOAD DIV MUL DUP4 MSTORE SWAP2 PUSH1 0x20 ADD SWAP2 PUSH2 0x22D JUMP JUMPDEST DUP3 ADD SWAP2 SWAP1 PUSH1 0x0 MSTORE PUSH1 0x20 PUSH1 0x0 KECCAK256 SWAP1 JUMPDEST DUP2 SLOAD DUP2 MSTORE SWAP1 PUSH1 0x1 ADD SWAP1 PUSH1 0x20 ADD DUP1 DUP4 GT PUSH2 0x210 JUMPI DUP3 SWAP1 SUB PUSH1 0x1F AND DUP3 ADD SWAP2 JUMPDEST POP POP POP POP POP SWAP2 POP SWAP3 POP SWAP3 POP POP SWAP2 POP SWAP2 JUMP JUMPDEST POP POP JUMP JUMPDEST PUSH1 0x0 DUP2 DUP2 SLOAD DUP2 LT PUSH2 0x252 JUMPI PUSH1 0x0 DUP1 REVERT JUMPDEST SWAP1 PUSH1 0x0 MSTORE PUSH1 0x20 PUSH1 0x0 KECCAK256 SWAP1 PUSH1 0x2 MUL ADD PUSH1 0x0 SWAP2 POP SWAP1 POP DUP1 PUSH1 0x0 ADD DUP1 SLOAD PUSH2 0x275 SWAP1 PUSH2 0x602 JUMP JUMPDEST DUP1 PUSH1 0x1F ADD PUSH1 0x20 DUP1 SWAP2 DIV MUL PUSH1 0x20 ADD PUSH1 0x40 MLOAD SWAP1 DUP2 ADD PUSH1 0x40 MSTORE DUP1 SWAP3 SWAP2 SWAP1 DUP2 DUP2 MSTORE PUSH1 0x20 ADD DUP3 DUP1 SLOAD PUSH2 0x2A1 SWAP1 PUSH2 0x602 JUMP JUMPDEST DUP1 ISZERO PUSH2 0x2EE JUMPI DUP1 PUSH1 0x1F LT PUSH2 0x2C3 JUMPI PUSH2 0x100 DUP1 DUP4 SLOAD DIV MUL DUP4 MSTORE SWAP2 PUSH1 0x20 ADD SWAP2 PUSH2 0x2EE JUMP JUMPDEST DUP3 ADD SWAP2 SWAP1 PUSH1 0x0 MSTORE PUSH1 0x20 PUSH1 0x0 KECCAK256 SWAP1 JUMPDEST DUP2 SLOAD DUP2 MSTORE SWAP1 PUSH1 0x1 ADD SWAP1 PUSH1 0x20 ADD DUP1 DUP4 GT PUSH2 0x2D1 JUMPI DUP3 SWAP1 SUB PUSH1 0x1F AND DUP3 ADD SWAP2 JUMPDEST POP POP POP POP POP SWAP1 DUP1 PUSH1 0x1 ADD PUSH1 0x0 SWAP1 SLOAD SWAP1 PUSH2 0x100 EXP SWAP1 DIV PUSH1 0xFF AND SWAP1 POP DUP3 JUMP JUMPDEST PUSH1 0x0 DUP1 DUP5 DUP2 SLOAD DUP2 LT PUSH2 0x320 JUMPI PUSH2 0x31F PUSH2 0x5A4 JUMP JUMPDEST JUMPDEST SWAP1 PUSH1 0x0 MSTORE PUSH1 0x20 PUSH1 0x0 KECCAK256 SWAP1 PUSH1 0x2 MUL ADD SWAP1 POP DUP3 DUP3 DUP3 PUSH1 0x0 ADD SWAP2 DUP3 PUSH2 0x343 SWAP3 SWAP2 SWAP1 PUSH2 0x819 JUMP JUMPDEST POP POP POP POP POP JUMP JUMPDEST PUSH1 0x0 DUP1 REVERT JUMPDEST PUSH1 0x0 DUP1 REVERT JUMPDEST PUSH1 0x0 DUP2 SWAP1 POP SWAP2 SWAP1 POP JUMP JUMPDEST PUSH2 0x367 DUP2 PUSH2 0x354 JUMP JUMPDEST DUP2 EQ PUSH2 0x372 JUMPI PUSH1 0x0 DUP1 REVERT JUMPDEST POP JUMP JUMPDEST PUSH1 0x0 DUP2 CALLDATALOAD SWAP1 POP PUSH2 0x384 DUP2 PUSH2 0x35E JUMP JUMPDEST SWAP3 SWAP2 POP POP JUMP JUMPDEST PUSH1 0x0 PUSH1 0x20 DUP3 DUP5 SUB SLT ISZERO PUSH2 0x3A0 JUMPI PUSH2 0x39F PUSH2 0x34A JUMP JUMPDEST JUMPDEST PUSH1 0x0 PUSH2 0x3AE DUP5 DUP3 DUP6 ADD PUSH2 0x375 JUMP JUMPDEST SWAP2 POP POP SWAP3 SWAP2 POP POP JUMP JUMPDEST PUSH1 0x0 DUP2 MLOAD SWAP1 POP SWAP2 SWAP1 POP JUMP JUMPDEST PUSH1 0x0 DUP3 DUP3 MSTORE PUSH1 0x20 DUP3 ADD SWAP1 POP SWAP3 SWAP2 POP POP JUMP JUMPDEST PUSH1 0x0 JUMPDEST DUP4 DUP2 LT ISZERO PUSH2 0x3F1 JUMPI DUP1 DUP3 ADD MLOAD DUP2 DUP5 ADD MSTORE PUSH1 0x20 DUP2 ADD SWAP1 POP PUSH2 0x3D6 JUMP JUMPDEST PUSH1 0x0 DUP5 DUP5 ADD MSTORE POP POP POP POP JUMP JUMPDEST PUSH1 0x0 PUSH1 0x1F NOT PUSH1 0x1F DUP4 ADD AND SWAP1 POP SWAP2 SWAP1 POP JUMP JUMPDEST PUSH1 0x0 PUSH2 0x419 DUP3 PUSH2 0x3B7 JUMP JUMPDEST PUSH2 0x423 DUP2 DUP6 PUSH2 0x3C2 JUMP JUMPDEST SWAP4 POP PUSH2 0x433 DUP2 DUP6 PUSH1 0x20 DUP7 ADD PUSH2 0x3D3 JUMP JUMPDEST PUSH2 0x43C DUP2 PUSH2 0x3FD JUMP JUMPDEST DUP5 ADD SWAP2 POP POP SWAP3 SWAP2 POP POP JUMP JUMPDEST PUSH1 0x0 DUP2 ISZERO ISZERO SWAP1 POP SWAP2 SWAP1 POP JUMP JUMPDEST PUSH2 0x45C DUP2 PUSH2 0x447 JUMP JUMPDEST DUP3 MSTORE POP POP JUMP JUMPDEST PUSH1 0x0 PUSH1 0x40 DUP3 ADD SWAP1 POP DUP2 DUP2 SUB PUSH1 0x0 DUP4 ADD MSTORE PUSH2 0x47C DUP2 DUP6 PUSH2 0x40E JUMP JUMPDEST SWAP1 POP PUSH2 0x48B PUSH1 0x20 DUP4 ADD DUP5 PUSH2 0x453 JUMP JUMPDEST SWAP4 SWAP3 POP POP POP JUMP JUMPDEST PUSH1 0x0 DUP1 REVERT JUMPDEST PUSH1 0x0 DUP1 REVERT JUMPDEST PUSH1 0x0 DUP1 REVERT JUMPDEST PUSH1 0x0 DUP1 DUP4 PUSH1 0x1F DUP5 ADD SLT PUSH2 0x4B7 JUMPI PUSH2 0x4B6 PUSH2 0x492 JUMP JUMPDEST JUMPDEST DUP3 CALLDATALOAD SWAP1 POP PUSH8 0xFFFFFFFFFFFFFFFF DUP2 GT ISZERO PUSH2 0x4D4 JUMPI PUSH2 0x4D3 PUSH2 0x497 JUMP JUMPDEST JUMPDEST PUSH1 0x20 DUP4 ADD SWAP2 POP DUP4 PUSH1 0x1 DUP3 MUL DUP4 ADD GT ISZERO PUSH2 0x4F0 JUMPI PUSH2 0x4EF PUSH2 0x49C JUMP JUMPDEST JUMPDEST SWAP3 POP SWAP3 SWAP1 POP JUMP JUMPDEST PUSH1 0x0 DUP1 PUSH1 0x20 DUP4 DUP6 SUB SLT ISZERO PUSH2 0x50E JUMPI PUSH2 0x50D PUSH2 0x34A JUMP JUMPDEST JUMPDEST PUSH1 0x0 DUP4 ADD CALLDATALOAD PUSH8 0xFFFFFFFFFFFFFFFF DUP2 GT ISZERO PUSH2 0x52C JUMPI PUSH2 0x52B PUSH2 0x34F JUMP JUMPDEST JUMPDEST PUSH2 0x538 DUP6 DUP3 DUP7 ADD PUSH2 0x4A1 JUMP JUMPDEST SWAP3 POP SWAP3 POP POP SWAP3 POP SWAP3 SWAP1 POP JUMP JUMPDEST PUSH1 0x0 DUP1 PUSH1 0x0 PUSH1 0x40 DUP5 DUP7 SUB SLT ISZERO PUSH2 0x55D JUMPI PUSH2 0x55C PUSH2 0x34A JUMP JUMPDEST JUMPDEST PUSH1 0x0 PUSH2 0x56B DUP7 DUP3 DUP8 ADD PUSH2 0x375 JUMP JUMPDEST SWAP4 POP POP PUSH1 0x20 DUP5 ADD CALLDATALOAD PUSH8 0xFFFFFFFFFFFFFFFF DUP2 GT ISZERO PUSH2 0x58C JUMPI PUSH2 0x58B PUSH2 0x34F JUMP JUMPDEST JUMPDEST PUSH2 0x598 DUP7 DUP3 DUP8 ADD PUSH2 0x4A1 JUMP JUMPDEST SWAP3 POP SWAP3 POP POP SWAP3 POP SWAP3 POP SWAP3 JUMP JUMPDEST PUSH32 0x4E487B7100000000000000000000000000000000000000000000000000000000 PUSH1 0x0 MSTORE PUSH1 0x32 PUSH1 0x4 MSTORE PUSH1 0x24 PUSH1 0x0 REVERT JUMPDEST PUSH32 0x4E487B7100000000000000000000000000000000000000000000000000000000 PUSH1 0x0 MSTORE PUSH1 0x22 PUSH1 0x4 MSTORE PUSH1 0x24 PUSH1 0x0 REVERT JUMPDEST PUSH1 0x0 PUSH1 0x2 DUP3 DIV SWAP1 POP PUSH1 0x1 DUP3 AND DUP1 PUSH2 0x61A JUMPI PUSH1 0x7F DUP3 AND SWAP2 POP JUMPDEST PUSH1 0x20 DUP3 LT DUP2 SUB PUSH2 0x62D JUMPI PUSH2 0x62C PUSH2 0x5D3 JUMP JUMPDEST JUMPDEST POP SWAP2 SWAP1 POP JUMP JUMPDEST PUSH1 0x0 DUP3 SWAP1 POP SWAP3 SWAP2 POP POP JUMP JUMPDEST PUSH32 0x4E487B7100000000000000000000000000000000000000000000000000000000 PUSH1 0x0 MSTORE PUSH1 0x41 PUSH1 0x4 MSTORE PUSH1 0x24 PUSH1 0x0 REVERT JUMPDEST PUSH1 0x0 DUP2 SWAP1 POP DUP2 PUSH1 0x0 MSTORE PUSH1 0x20 PUSH1 0x0 KECCAK256 SWAP1 POP SWAP2 SWAP1 POP JUMP JUMPDEST PUSH1 0x0 PUSH1 0x20 PUSH1 0x1F DUP4 ADD DIV SWAP1 POP SWAP2 SWAP1 POP JUMP JUMPDEST PUSH1 0x0 DUP3 DUP3 SHL SWAP1 POP SWAP3 SWAP2 POP POP JUMP JUMPDEST PUSH1 0x0 PUSH1 0x8 DUP4 MUL PUSH2 0x6CF PUSH32 0xFFFFFFFFFFFFFFFFFFFFFFFFFFFFFFFFFFFFFFFFFFFFFFFFFFFFFFFFFFFFFFFF DUP3 PUSH2 0x692 JUMP JUMPDEST PUSH2 0x6D9 DUP7 DUP4 PUSH2 0x692 JUMP JUMPDEST SWAP6 POP DUP1 NOT DUP5 AND SWAP4 POP DUP1 DUP7 AND DUP5 OR SWAP3 POP POP POP SWAP4 SWAP3 POP POP POP JUMP JUMPDEST PUSH1 0x0 DUP2 SWAP1 POP SWAP2 SWAP1 POP JUMP JUMPDEST PUSH1 0x0 PUSH2 0x716 PUSH2 0x711 PUSH2 0x70C DUP5 PUSH2 0x354 JUMP JUMPDEST PUSH2 0x6F1 JUMP JUMPDEST PUSH2 0x354 JUMP JUMPDEST SWAP1 POP SWAP2 SWAP1 POP JUMP JUMPDEST PUSH1 0x0 DUP2 SWAP1 POP SWAP2 SWAP1 POP JUMP JUMPDEST PUSH2 0x730 DUP4 PUSH2 0x6FB JUMP JUMPDEST PUSH2 0x744 PUSH2 0x73C DUP3 PUSH2 0x71D JUMP JUMPDEST DUP5 DUP5 SLOAD PUSH2 0x69F JUMP JUMPDEST DUP3 SSTORE POP POP POP POP JUMP JUMPDEST PUSH1 0x0 SWAP1 JUMP JUMPDEST PUSH2 0x759 PUSH2 0x74C JUMP JUMPDEST PUSH2 0x764 DUP2 DUP5 DUP5 PUSH2 0x727 JUMP JUMPDEST POP POP POP JUMP JUMPDEST JUMPDEST DUP2 DUP2 LT ISZERO PUSH2 0x788 JUMPI PUSH2 0x77D PUSH1 0x0 DUP3 PUSH2 0x751 JUMP JUMPDEST PUSH1 0x1 DUP2 ADD SWAP1 POP PUSH2 0x76A JUMP JUMPDEST POP POP JUMP JUMPDEST PUSH1 0x1F DUP3 GT ISZERO PUSH2 0x7CD JUMPI PUSH2 0x79E DUP2 PUSH2 0x66D JUMP JUMPDEST PUSH2 0x7A7 DUP5 PUSH2 0x682 JUMP JUMPDEST DUP2 ADD PUSH1 0x20 DUP6 LT ISZERO PUSH2 0x7B6 JUMPI DUP2 SWAP1 POP JUMPDEST PUSH2 0x7CA PUSH2 0x7C2 DUP6 PUSH2 0x682 JUMP JUMPDEST DUP4 ADD DUP3 PUSH2 0x769 JUMP JUMPDEST POP POP JUMPDEST POP POP POP JUMP JUMPDEST PUSH1 0x0 DUP3 DUP3 SHR SWAP1 POP SWAP3 SWAP2 POP POP JUMP JUMPDEST PUSH1 0x0 PUSH2 0x7F0 PUSH1 0x0 NOT DUP5 PUSH1 0x8 MUL PUSH2 0x7D2 JUMP JUMPDEST NOT DUP1 DUP4 AND SWAP2 POP POP SWAP3 SWAP2 POP POP JUMP JUMPDEST PUSH1 0x0 PUSH2 0x809 DUP4 DUP4 PUSH2 0x7DF JUMP JUMPDEST SWAP2 POP DUP3 PUSH1 0x2 MUL DUP3 OR SWAP1 POP SWAP3 SWAP2 POP POP JUMP JUMPDEST PUSH2 0x823 DUP4 DUP4 PUSH2 0x633 JUMP JUMPDEST PUSH8 0xFFFFFFFFFFFFFFFF DUP2 GT ISZERO PUSH2 0x83C JUMPI PUSH2 0x83B PUSH2 0x63E JUMP JUMPDEST JUMPDEST PUSH2 0x846 DUP3 SLOAD PUSH2 0x602 JUMP JUMPDEST PUSH2 0x851 DUP3 DUP3 DUP6 PUSH2 0x78C JUMP JUMPDEST PUSH1 0x0 PUSH1 0x1F DUP4 GT PUSH1 0x1 DUP2 EQ PUSH2 0x880 JUMPI PUSH1 0x0 DUP5 ISZERO PUSH2 0x86E JUMPI DUP3 DUP8 ADD CALLDATALOAD SWAP1 POP JUMPDEST PUSH2 0x878 DUP6 DUP3 PUSH2 0x7FD JUMP JUMPDEST DUP7 SSTORE POP PUSH2 0x8E0 JUMP JUMPDEST PUSH1 0x1F NOT DUP5 AND PUSH2 0x88E DUP7 PUSH2 0x66D JUMP JUMPDEST PUSH1 0x0 JUMPDEST DUP3 DUP2 LT ISZERO PUSH2 0x8B6 JUMPI DUP5 DUP10 ADD CALLDATALOAD DUP3 SSTORE PUSH1 0x1 DUP3 ADD SWAP2 POP PUSH1 0x20 DUP6 ADD SWAP5 POP PUSH1 0x20 DUP2 ADD SWAP1 POP PUSH2 0x891 JUMP JUMPDEST DUP7 DUP4 LT ISZERO PUSH2 0x8D3 JUMPI DUP5 DUP10 ADD CALLDATALOAD PUSH2 0x8CF PUSH1 0x1F DUP10 AND DUP3 PUSH2 0x7DF JUMP JUMPDEST DUP4 SSTORE POP JUMPDEST PUSH1 0x1 PUSH1 0x2 DUP9 MUL ADD DUP9 SSTORE POP POP POP JUMPDEST POP POP POP POP POP POP POP JUMP INVALID LOG2 PUSH5 0x6970667358 0x22 SLT KECCAK256 NOT EXTCODEHASH 0x2C 0xE8 EXTCODECOPY SELFBALANCE 0x4B DUP3 0xAC PUSH26 0xE2B8511CFCB94CDB7F68D1EA4170ED9A6C1BB6B572AC64736F6C PUSH4 0x43000811 STOP CALLER "
				},
				"gasEstimates": {
					"creation": {
						"codeDepositCost": "467000",
						"executionCost": "499",
						"totalCost": "467499"
					},
					"external": {
						"create(string)": "496",
						"get(uint256)": "infinite",
						"todos(uint256)": "infinite",
						"toggleCompleted(uint256)": "29006",
						"updateText(uint256,string)": "infinite"
					}
				},
				"methodIdentifiers": {
					"create(string)": "b6a46b3b",
					"get(uint256)": "9507d39a",
					"todos(uint256)": "bc8bc2b4",
					"toggleCompleted(uint256)": "455f5024",
					"updateText(uint256,string)": "cd111614"
				}
			},
			"storageLayout": {
				"storage": [
					{
						"astId": 10,
						"contract": "TodoList.sol:Todos",
						"label": "todos",
						"offset": 0,
						"slot": "0",
						"type": "t_array(t_struct(Todo)6_storage)dyn_storage"
					}
				],
				"types": {
					"t_array(t_struct(Todo)6_storage)dyn_storage": {
						"base": "t_struct(Todo)6_storage",
						"encoding": "dynamic_array",
						"label": "struct Todos.Todo[]",
						"numberOfBytes": "32"
					},
					"t_bool": {
						"encoding": "inplace",
						"label": "bool",
						"numberOfBytes": "1"
					},
					"t_string_storage": {
						"encoding": "bytes",
						"label": "string",
						"numberOfBytes": "32"
					},
					"t_struct(Todo)6_storage": {
						"encoding": "inplace",
						"label": "struct Todos.Todo",
						"members": [
							{
								"astId": 3,
								"contract": "TodoList.sol:Todos",
								"label": "text",
								"offset": 0,
								"slot": "0",
								"type": "t_string_storage"
							},
							{
								"astId": 5,
								"contract": "TodoList.sol:Todos",
								"label": "completed",
								"offset": 0,
								"slot": "1",
								"type": "t_bool"
							}
						],
						"numberOfBytes": "64"
					}
				}
			},
			"userdoc": {
				"kind": "user",
				"methods": {},
				"version": 1
			}
		}
	}
}