{
	"HelloWorld.sol": {
		"SimpleStorage": {
			"abi": [
				{
					"inputs": [
						{
							"components": [
								{
									"internalType": "string",
									"name": "text",
									"type": "string"
								},
								{
									"internalType": "bool",
									"name": "completed",
									"type": "bool"
								}
							],
							"internalType": "struct SimpleStorage.Todo",
							"name": "_todo",
							"type": "tuple"
						}
					],
					"name": "create",
					"outputs": [],
					"stateMutability": "nonpayable",
					"type": "function"
				},
				{
					"inputs": [],
					"name": "get",
					"outputs": [],
					"stateMutability": "view",
					"type": "function"
				},
				{
					"inputs": [
						{
							"internalType": "uint256",
							"name": "",
							"type": "uint256"
						}
					],
					"name": "todos",
					"outputs": [
						{
							"internalType": "string",
							"name": "text",
							"type": "string"
						},
						{
							"internalType": "bool",
							"name": "completed",
							"type": "bool"
						}
					],
					"stateMutability": "view",
					"type": "function"
				},
				{
					"inputs": [],
					"name": "updateText",
					"outputs": [],
					"stateMutability": "nonpayable",
					"type": "function"
				}
			],
			"devdoc": {
				"kind": "dev",
				"methods": {},
				"version": 1
			},
			"evm": {
				"assembly": "    /* \"HelloWorld.sol\":56:350  contract SimpleStorage {... */\n  mstore(0x40, 0x80)\n  callvalue\n  dup1\n  iszero\n  tag_1\n  jumpi\n  0x00\n  dup1\n  revert\ntag_1:\n  pop\n  dataSize(sub_0)\n  dup1\n  dataOffset(sub_0)\n  0x00\n  codecopy\n  0x00\n  return\nstop\n\nsub_0: assembly {\n        /* \"HelloWorld.sol\":56:350  contract SimpleStorage {... */\n      mstore(0x40, 0x80)\n      callvalue\n      dup1\n      iszero\n      tag_1\n      jumpi\n      0x00\n      dup1\n      revert\n    tag_1:\n      pop\n      jumpi(tag_2, lt(calldatasize, 0x04))\n      shr(0xe0, calldataload(0x00))\n      dup1\n      0x5cce26f1\n      eq\n      tag_3\n      jumpi\n      dup1\n      0x6d4ce63c\n      eq\n      tag_4\n      jumpi\n      dup1\n      0xbc8bc2b4\n      eq\n      tag_5\n      jumpi\n      dup1\n      0xfee10aee\n      eq\n      tag_6\n      jumpi\n    tag_2:\n      0x00\n      dup1\n      revert\n        /* \"HelloWorld.sol\":180:260  function create(Todo calldata _todo) external {... */\n    tag_3:\n      tag_7\n      0x04\n      dup1\n      calldatasize\n      sub\n      dup2\n      add\n      swap1\n      tag_8\n      swap2\n      swap1\n      tag_9\n      jump\t// in\n    tag_8:\n      tag_10\n      jump\t// in\n    tag_7:\n      stop\n        /* \"HelloWorld.sol\":311:348  function get() external view {... */\n    tag_4:\n      tag_11\n      tag_12\n      jump\t// in\n    tag_11:\n      stop\n        /* \"HelloWorld.sol\":154:173  Todo[] public todos */\n    tag_5:\n      tag_13\n      0x04\n      dup1\n      calldatasize\n      sub\n      dup2\n      add\n      swap1\n      tag_14\n      swap2\n      swap1\n      tag_15\n      jump\t// in\n    tag_14:\n      tag_16\n      jump\t// in\n    tag_13:\n      mload(0x40)\n      tag_17\n      swap3\n      swap2\n      swap1\n      tag_18\n      jump\t// in\n    tag_17:\n      mload(0x40)\n      dup1\n      swap2\n      sub\n      swap1\n      return\n        /* \"HelloWorld.sol\":266:305  function updateText() external {... */\n    tag_6:\n      tag_19\n      tag_20\n      jump\t// in\n    tag_19:\n      stop\n        /* \"HelloWorld.sol\":180:260  function create(Todo calldata _todo) external {... */\n    tag_10:\n        /* \"HelloWorld.sol\":236:241  todos */\n      0x00\n        /* \"HelloWorld.sol\":247:252  _todo */\n      dup2\n        /* \"HelloWorld.sol\":236:253  todos.push(_todo) */\n      swap1\n      dup1\n      0x01\n      dup2\n      sload\n      add\n      dup1\n      dup3\n      sstore\n      dup1\n      swap2\n      pop\n      pop\n      0x01\n      swap1\n      sub\n      swap1\n      0x00\n      mstore\n      keccak256(0x00, 0x20)\n      swap1\n      0x02\n      mul\n      add\n      0x00\n      swap1\n      swap2\n      swap1\n      swap2\n      swap1\n      swap2\n      pop\n      dup2\n      dup2\n      tag_23\n      swap2\n      swap1\n      tag_24\n      jump\t// in\n    tag_23:\n      pop\n      pop\n        /* \"HelloWorld.sol\":180:260  function create(Todo calldata _todo) external {... */\n      pop\n      jump\t// out\n        /* \"HelloWorld.sol\":311:348  function get() external view {... */\n    tag_12:\n      jump\t// out\n        /* \"HelloWorld.sol\":154:173  Todo[] public todos */\n    tag_16:\n      0x00\n      dup2\n      dup2\n      sload\n      dup2\n      lt\n      tag_26\n      jumpi\n      0x00\n      dup1\n      revert\n    tag_26:\n      swap1\n      0x00\n      mstore\n      keccak256(0x00, 0x20)\n      swap1\n      0x02\n      mul\n      add\n      0x00\n      swap2\n      pop\n      swap1\n      pop\n      dup1\n      0x00\n      add\n      dup1\n      sload\n      tag_28\n      swap1\n      tag_29\n      jump\t// in\n    tag_28:\n      dup1\n      0x1f\n      add\n      0x20\n      dup1\n      swap2\n      div\n      mul\n      0x20\n      add\n      mload(0x40)\n      swap1\n      dup2\n      add\n      0x40\n      mstore\n      dup1\n      swap3\n      swap2\n      swap1\n      dup2\n      dup2\n      mstore\n      0x20\n      add\n      dup3\n      dup1\n      sload\n      tag_30\n      swap1\n      tag_29\n      jump\t// in\n    tag_30:\n      dup1\n      iszero\n      tag_31\n      jumpi\n      dup1\n      0x1f\n      lt\n      tag_32\n      jumpi\n      0x0100\n      dup1\n      dup4\n      sload\n      div\n      mul\n      dup4\n      mstore\n      swap2\n      0x20\n      add\n      swap2\n      jump(tag_31)\n    tag_32:\n      dup3\n      add\n      swap2\n      swap1\n      0x00\n      mstore\n      keccak256(0x00, 0x20)\n      swap1\n    tag_33:\n      dup2\n      sload\n      dup2\n      mstore\n      swap1\n      0x01\n      add\n      swap1\n      0x20\n      add\n      dup1\n      dup4\n      gt\n      tag_33\n      jumpi\n      dup3\n      swap1\n      sub\n      0x1f\n      and\n      dup3\n      add\n      swap2\n    tag_31:\n      pop\n      pop\n      pop\n      pop\n      pop\n      swap1\n      dup1\n      0x01\n      add\n      0x00\n      swap1\n      sload\n      swap1\n      0x0100\n      exp\n      swap1\n      div\n      0xff\n      and\n      swap1\n      pop\n      dup3\n      jump\t// out\n        /* \"HelloWorld.sol\":266:305  function updateText() external {... */\n    tag_20:\n      jump\t// out\n        /* \"#utility.yul\":40:265   */\n    tag_36:\n        /* \"#utility.yul\":107:112   */\n      0x00\n        /* \"#utility.yul\":148:150   */\n      0x40\n        /* \"#utility.yul\":139:145   */\n      dup3\n        /* \"#utility.yul\":134:137   */\n      dup5\n        /* \"#utility.yul\":130:146   */\n      sub\n        /* \"#utility.yul\":126:151   */\n      slt\n        /* \"#utility.yul\":123:235   */\n      iszero\n      tag_38\n      jumpi\n        /* \"#utility.yul\":154:233   */\n      tag_39\n      tag_40\n      jump\t// in\n    tag_39:\n        /* \"#utility.yul\":123:235   */\n    tag_38:\n        /* \"#utility.yul\":253:259   */\n      dup2\n        /* \"#utility.yul\":244:259   */\n      swap1\n      pop\n        /* \"#utility.yul\":40:265   */\n      swap3\n      swap2\n      pop\n      pop\n      jump\t// out\n        /* \"#utility.yul\":271:410   */\n    tag_41:\n        /* \"#utility.yul\":317:322   */\n      0x00\n        /* \"#utility.yul\":355:361   */\n      dup2\n        /* \"#utility.yul\":342:362   */\n      calldataload\n        /* \"#utility.yul\":333:362   */\n      swap1\n      pop\n        /* \"#utility.yul\":371:404   */\n      tag_43\n        /* \"#utility.yul\":398:403   */\n      dup2\n        /* \"#utility.yul\":371:404   */\n      tag_44\n      jump\t// in\n    tag_43:\n        /* \"#utility.yul\":271:410   */\n      swap3\n      swap2\n      pop\n      pop\n      jump\t// out\n        /* \"#utility.yul\":416:947   */\n    tag_9:\n        /* \"#utility.yul\":496:502   */\n      0x00\n        /* \"#utility.yul\":545:547   */\n      0x20\n        /* \"#utility.yul\":533:542   */\n      dup3\n        /* \"#utility.yul\":524:531   */\n      dup5\n        /* \"#utility.yul\":520:543   */\n      sub\n        /* \"#utility.yul\":516:548   */\n      slt\n        /* \"#utility.yul\":513:632   */\n      iszero\n      tag_46\n      jumpi\n        /* \"#utility.yul\":551:630   */\n      tag_47\n      tag_48\n      jump\t// in\n    tag_47:\n        /* \"#utility.yul\":513:632   */\n    tag_46:\n        /* \"#utility.yul\":699:700   */\n      0x00\n        /* \"#utility.yul\":688:697   */\n      dup3\n        /* \"#utility.yul\":684:701   */\n      add\n        /* \"#utility.yul\":671:702   */\n      calldataload\n        /* \"#utility.yul\":729:747   */\n      0xffffffffffffffff\n        /* \"#utility.yul\":721:727   */\n      dup2\n        /* \"#utility.yul\":718:748   */\n      gt\n        /* \"#utility.yul\":715:832   */\n      iszero\n      tag_49\n      jumpi\n        /* \"#utility.yul\":751:830   */\n      tag_50\n      tag_51\n      jump\t// in\n    tag_50:\n        /* \"#utility.yul\":715:832   */\n    tag_49:\n        /* \"#utility.yul\":856:930   */\n      tag_52\n        /* \"#utility.yul\":922:929   */\n      dup5\n        /* \"#utility.yul\":913:919   */\n      dup3\n        /* \"#utility.yul\":902:911   */\n      dup6\n        /* \"#utility.yul\":898:920   */\n      add\n        /* \"#utility.yul\":856:930   */\n      tag_36\n      jump\t// in\n    tag_52:\n        /* \"#utility.yul\":846:930   */\n      swap2\n      pop\n        /* \"#utility.yul\":642:940   */\n      pop\n        /* \"#utility.yul\":416:947   */\n      swap3\n      swap2\n      pop\n      pop\n      jump\t// out\n        /* \"#utility.yul\":953:1282   */\n    tag_15:\n        /* \"#utility.yul\":1012:1018   */\n      0x00\n        /* \"#utility.yul\":1061:1063   */\n      0x20\n        /* \"#utility.yul\":1049:1058   */\n      dup3\n        /* \"#utility.yul\":1040:1047   */\n      dup5\n        /* \"#utility.yul\":1036:1059   */\n      sub\n        /* \"#utility.yul\":1032:1064   */\n      slt\n        /* \"#utility.yul\":1029:1148   */\n      iszero\n      tag_54\n      jumpi\n        /* \"#utility.yul\":1067:1146   */\n      tag_55\n      tag_48\n      jump\t// in\n    tag_55:\n        /* \"#utility.yul\":1029:1148   */\n    tag_54:\n        /* \"#utility.yul\":1187:1188   */\n      0x00\n        /* \"#utility.yul\":1212:1265   */\n      tag_56\n        /* \"#utility.yul\":1257:1264   */\n      dup5\n        /* \"#utility.yul\":1248:1254   */\n      dup3\n        /* \"#utility.yul\":1237:1246   */\n      dup6\n        /* \"#utility.yul\":1233:1255   */\n      add\n        /* \"#utility.yul\":1212:1265   */\n      tag_41\n      jump\t// in\n    tag_56:\n        /* \"#utility.yul\":1202:1265   */\n      swap2\n      pop\n        /* \"#utility.yul\":1158:1275   */\n      pop\n        /* \"#utility.yul\":953:1282   */\n      swap3\n      swap2\n      pop\n      pop\n      jump\t// out\n        /* \"#utility.yul\":1288:1397   */\n    tag_57:\n        /* \"#utility.yul\":1369:1390   */\n      tag_59\n        /* \"#utility.yul\":1384:1389   */\n      dup2\n        /* \"#utility.yul\":1369:1390   */\n      tag_60\n      jump\t// in\n    tag_59:\n        /* \"#utility.yul\":1364:1367   */\n      dup3\n        /* \"#utility.yul\":1357:1391   */\n      mstore\n        /* \"#utility.yul\":1288:1397   */\n      pop\n      pop\n      jump\t// out\n        /* \"#utility.yul\":1403:1767   */\n    tag_61:\n        /* \"#utility.yul\":1491:1494   */\n      0x00\n        /* \"#utility.yul\":1519:1558   */\n      tag_63\n        /* \"#utility.yul\":1552:1557   */\n      dup3\n        /* \"#utility.yul\":1519:1558   */\n      tag_64\n      jump\t// in\n    tag_63:\n        /* \"#utility.yul\":1574:1645   */\n      tag_65\n        /* \"#utility.yul\":1638:1644   */\n      dup2\n        /* \"#utility.yul\":1633:1636   */\n      dup6\n        /* \"#utility.yul\":1574:1645   */\n      tag_66\n      jump\t// in\n    tag_65:\n        /* \"#utility.yul\":1567:1645   */\n      swap4\n      pop\n        /* \"#utility.yul\":1654:1706   */\n      tag_67\n        /* \"#utility.yul\":1699:1705   */\n      dup2\n        /* \"#utility.yul\":1694:1697   */\n      dup6\n        /* \"#utility.yul\":1687:1691   */\n      0x20\n        /* \"#utility.yul\":1680:1685   */\n      dup7\n        /* \"#utility.yul\":1676:1692   */\n      add\n        /* \"#utility.yul\":1654:1706   */\n      tag_68\n      jump\t// in\n    tag_67:\n        /* \"#utility.yul\":1731:1760   */\n      tag_69\n        /* \"#utility.yul\":1753:1759   */\n      dup2\n        /* \"#utility.yul\":1731:1760   */\n      tag_70\n      jump\t// in\n    tag_69:\n        /* \"#utility.yul\":1726:1729   */\n      dup5\n        /* \"#utility.yul\":1722:1761   */\n      add\n        /* \"#utility.yul\":1715:1761   */\n      swap2\n      pop\n        /* \"#utility.yul\":1495:1767   */\n      pop\n        /* \"#utility.yul\":1403:1767   */\n      swap3\n      swap2\n      pop\n      pop\n      jump\t// out\n        /* \"#utility.yul\":1773:2184   */\n    tag_18:\n        /* \"#utility.yul\":1908:1912   */\n      0x00\n        /* \"#utility.yul\":1946:1948   */\n      0x40\n        /* \"#utility.yul\":1935:1944   */\n      dup3\n        /* \"#utility.yul\":1931:1949   */\n      add\n        /* \"#utility.yul\":1923:1949   */\n      swap1\n      pop\n        /* \"#utility.yul\":1995:2004   */\n      dup2\n        /* \"#utility.yul\":1989:1993   */\n      dup2\n        /* \"#utility.yul\":1985:2005   */\n      sub\n        /* \"#utility.yul\":1981:1982   */\n      0x00\n        /* \"#utility.yul\":1970:1979   */\n      dup4\n        /* \"#utility.yul\":1966:1983   */\n      add\n        /* \"#utility.yul\":1959:2006   */\n      mstore\n        /* \"#utility.yul\":2023:2101   */\n      tag_72\n        /* \"#utility.yul\":2096:2100   */\n      dup2\n        /* \"#utility.yul\":2087:2093   */\n      dup6\n        /* \"#utility.yul\":2023:2101   */\n      tag_61\n      jump\t// in\n    tag_72:\n        /* \"#utility.yul\":2015:2101   */\n      swap1\n      pop\n        /* \"#utility.yul\":2111:2177   */\n      tag_73\n        /* \"#utility.yul\":2173:2175   */\n      0x20\n        /* \"#utility.yul\":2162:2171   */\n      dup4\n        /* \"#utility.yul\":2158:2176   */\n      add\n        /* \"#utility.yul\":2149:2155   */\n      dup5\n        /* \"#utility.yul\":2111:2177   */\n      tag_57\n      jump\t// in\n    tag_73:\n        /* \"#utility.yul\":1773:2184   */\n      swap4\n      swap3\n      pop\n      pop\n      pop\n      jump\t// out\n        /* \"#utility.yul\":2190:2915   */\n    tag_74:\n        /* \"#utility.yul\":2268:2272   */\n      0x00\n        /* \"#utility.yul\":2274:2280   */\n      dup1\n        /* \"#utility.yul\":2330:2341   */\n      dup4\n        /* \"#utility.yul\":2317:2342   */\n      calldataload\n        /* \"#utility.yul\":2430:2431   */\n      0x01\n        /* \"#utility.yul\":2424:2428   */\n      0x20\n        /* \"#utility.yul\":2420:2432   */\n      sub\n        /* \"#utility.yul\":2409:2417   */\n      dup5\n        /* \"#utility.yul\":2393:2407   */\n      calldatasize\n        /* \"#utility.yul\":2389:2418   */\n      sub\n        /* \"#utility.yul\":2385:2433   */\n      sub\n        /* \"#utility.yul\":2365:2383   */\n      dup2\n        /* \"#utility.yul\":2361:2434   */\n      slt\n        /* \"#utility.yul\":2351:2519   */\n      tag_76\n      jumpi\n        /* \"#utility.yul\":2438:2517   */\n      tag_77\n      tag_78\n      jump\t// in\n    tag_77:\n        /* \"#utility.yul\":2351:2519   */\n    tag_76:\n        /* \"#utility.yul\":2550:2568   */\n      dup1\n        /* \"#utility.yul\":2540:2548   */\n      dup5\n        /* \"#utility.yul\":2536:2569   */\n      add\n        /* \"#utility.yul\":2528:2569   */\n      swap3\n      pop\n        /* \"#utility.yul\":2602:2606   */\n      dup3\n        /* \"#utility.yul\":2589:2607   */\n      calldataload\n        /* \"#utility.yul\":2579:2607   */\n      swap2\n      pop\n        /* \"#utility.yul\":2630:2648   */\n      0xffffffffffffffff\n        /* \"#utility.yul\":2622:2628   */\n      dup3\n        /* \"#utility.yul\":2619:2649   */\n      gt\n        /* \"#utility.yul\":2616:2733   */\n      iszero\n      tag_79\n      jumpi\n        /* \"#utility.yul\":2652:2731   */\n      tag_80\n      tag_81\n      jump\t// in\n    tag_80:\n        /* \"#utility.yul\":2616:2733   */\n    tag_79:\n        /* \"#utility.yul\":2760:2762   */\n      0x20\n        /* \"#utility.yul\":2754:2758   */\n      dup4\n        /* \"#utility.yul\":2750:2763   */\n      add\n        /* \"#utility.yul\":2742:2763   */\n      swap3\n      pop\n        /* \"#utility.yul\":2817:2821   */\n      0x01\n        /* \"#utility.yul\":2809:2815   */\n      dup3\n        /* \"#utility.yul\":2805:2822   */\n      mul\n        /* \"#utility.yul\":2789:2803   */\n      calldatasize\n        /* \"#utility.yul\":2785:2823   */\n      sub\n        /* \"#utility.yul\":2779:2783   */\n      dup4\n        /* \"#utility.yul\":2775:2824   */\n      sgt\n        /* \"#utility.yul\":2772:2908   */\n      iszero\n      tag_82\n      jumpi\n        /* \"#utility.yul\":2827:2906   */\n      tag_83\n      tag_84\n      jump\t// in\n    tag_83:\n        /* \"#utility.yul\":2772:2908   */\n    tag_82:\n        /* \"#utility.yul\":2281:2915   */\n      pop\n        /* \"#utility.yul\":2190:2915   */\n      swap3\n      pop\n      swap3\n      swap1\n      pop\n      jump\t// out\n        /* \"#utility.yul\":3002:3143   */\n    tag_87:\n        /* \"#utility.yul\":3051:3055   */\n      0x00\n        /* \"#utility.yul\":3074:3077   */\n      dup2\n        /* \"#utility.yul\":3066:3077   */\n      swap1\n      pop\n        /* \"#utility.yul\":3097:3100   */\n      dup2\n        /* \"#utility.yul\":3094:3095   */\n      0x00\n        /* \"#utility.yul\":3087:3101   */\n      mstore\n        /* \"#utility.yul\":3131:3135   */\n      0x20\n        /* \"#utility.yul\":3128:3129   */\n      0x00\n        /* \"#utility.yul\":3118:3136   */\n      keccak256\n        /* \"#utility.yul\":3110:3136   */\n      swap1\n      pop\n        /* \"#utility.yul\":3002:3143   */\n      swap2\n      swap1\n      pop\n      jump\t// out\n        /* \"#utility.yul\":3149:3246   */\n    tag_89:\n        /* \"#utility.yul\":3208:3214   */\n      0x00\n        /* \"#utility.yul\":3236:3239   */\n      dup3\n        /* \"#utility.yul\":3226:3239   */\n      swap1\n      pop\n        /* \"#utility.yul\":3149:3246   */\n      swap3\n      swap2\n      pop\n      pop\n      jump\t// out\n        /* \"#utility.yul\":3252:3351   */\n    tag_64:\n        /* \"#utility.yul\":3304:3310   */\n      0x00\n        /* \"#utility.yul\":3338:3343   */\n      dup2\n        /* \"#utility.yul\":3332:3344   */\n      mload\n        /* \"#utility.yul\":3322:3344   */\n      swap1\n      pop\n        /* \"#utility.yul\":3252:3351   */\n      swap2\n      swap1\n      pop\n      jump\t// out\n        /* \"#utility.yul\":3357:3526   */\n    tag_66:\n        /* \"#utility.yul\":3441:3452   */\n      0x00\n        /* \"#utility.yul\":3475:3481   */\n      dup3\n        /* \"#utility.yul\":3470:3473   */\n      dup3\n        /* \"#utility.yul\":3463:3482   */\n      mstore\n        /* \"#utility.yul\":3515:3519   */\n      0x20\n        /* \"#utility.yul\":3510:3513   */\n      dup3\n        /* \"#utility.yul\":3506:3520   */\n      add\n        /* \"#utility.yul\":3491:3520   */\n      swap1\n      pop\n        /* \"#utility.yul\":3357:3526   */\n      swap3\n      swap2\n      pop\n      pop\n      jump\t// out\n        /* \"#utility.yul\":3532:4075   */\n    tag_93:\n        /* \"#utility.yul\":3633:3635   */\n      0x1f\n        /* \"#utility.yul\":3628:3631   */\n      dup3\n        /* \"#utility.yul\":3625:3636   */\n      gt\n        /* \"#utility.yul\":3622:4068   */\n      iszero\n      tag_95\n      jumpi\n        /* \"#utility.yul\":3667:3705   */\n      tag_96\n        /* \"#utility.yul\":3699:3704   */\n      dup2\n        /* \"#utility.yul\":3667:3705   */\n      tag_87\n      jump\t// in\n    tag_96:\n        /* \"#utility.yul\":3751:3780   */\n      tag_97\n        /* \"#utility.yul\":3769:3779   */\n      dup5\n        /* \"#utility.yul\":3751:3780   */\n      tag_98\n      jump\t// in\n    tag_97:\n        /* \"#utility.yul\":3741:3749   */\n      dup2\n        /* \"#utility.yul\":3737:3781   */\n      add\n        /* \"#utility.yul\":3934:3936   */\n      0x20\n        /* \"#utility.yul\":3922:3932   */\n      dup6\n        /* \"#utility.yul\":3919:3937   */\n      lt\n        /* \"#utility.yul\":3916:3965   */\n      iszero\n      tag_99\n      jumpi\n        /* \"#utility.yul\":3955:3963   */\n      dup2\n        /* \"#utility.yul\":3940:3963   */\n      swap1\n      pop\n        /* \"#utility.yul\":3916:3965   */\n    tag_99:\n        /* \"#utility.yul\":3978:4058   */\n      tag_100\n        /* \"#utility.yul\":4034:4056   */\n      tag_101\n        /* \"#utility.yul\":4052:4055   */\n      dup6\n        /* \"#utility.yul\":4034:4056   */\n      tag_98\n      jump\t// in\n    tag_101:\n        /* \"#utility.yul\":4024:4032   */\n      dup4\n        /* \"#utility.yul\":4020:4057   */\n      add\n        /* \"#utility.yul\":4007:4018   */\n      dup3\n        /* \"#utility.yul\":3978:4058   */\n      tag_102\n      jump\t// in\n    tag_100:\n        /* \"#utility.yul\":3637:4068   */\n      pop\n      pop\n        /* \"#utility.yul\":3622:4068   */\n    tag_95:\n        /* \"#utility.yul\":3532:4075   */\n      pop\n      pop\n      pop\n      jump\t// out\n        /* \"#utility.yul\":4081:4171   */\n    tag_60:\n        /* \"#utility.yul\":4115:4122   */\n      0x00\n        /* \"#utility.yul\":4158:4163   */\n      dup2\n        /* \"#utility.yul\":4151:4164   */\n      iszero\n        /* \"#utility.yul\":4144:4165   */\n      iszero\n        /* \"#utility.yul\":4133:4165   */\n      swap1\n      pop\n        /* \"#utility.yul\":4081:4171   */\n      swap2\n      swap1\n      pop\n      jump\t// out\n        /* \"#utility.yul\":4177:4254   */\n    tag_104:\n        /* \"#utility.yul\":4214:4221   */\n      0x00\n        /* \"#utility.yul\":4243:4248   */\n      dup2\n        /* \"#utility.yul\":4232:4248   */\n      swap1\n      pop\n        /* \"#utility.yul\":4177:4254   */\n      swap2\n      swap1\n      pop\n      jump\t// out\n        /* \"#utility.yul\":4260:4446   */\n    tag_102:\n        /* \"#utility.yul\":4320:4440   */\n    tag_107:\n        /* \"#utility.yul\":4337:4340   */\n      dup2\n        /* \"#utility.yul\":4330:4335   */\n      dup2\n        /* \"#utility.yul\":4327:4341   */\n      lt\n        /* \"#utility.yul\":4320:4440   */\n      iszero\n      tag_109\n      jumpi\n        /* \"#utility.yul\":4391:4430   */\n      tag_110\n        /* \"#utility.yul\":4428:4429   */\n      0x00\n        /* \"#utility.yul\":4421:4426   */\n      dup3\n        /* \"#utility.yul\":4391:4430   */\n      tag_111\n      jump\t// in\n    tag_110:\n        /* \"#utility.yul\":4364:4365   */\n      0x01\n        /* \"#utility.yul\":4357:4362   */\n      dup2\n        /* \"#utility.yul\":4353:4366   */\n      add\n        /* \"#utility.yul\":4344:4366   */\n      swap1\n      pop\n        /* \"#utility.yul\":4320:4440   */\n      jump(tag_107)\n    tag_109:\n        /* \"#utility.yul\":4260:4446   */\n      pop\n      pop\n      jump\t// out\n        /* \"#utility.yul\":4452:4556   */\n    tag_112:\n        /* \"#utility.yul\":4496:4505   */\n      0x00\n        /* \"#utility.yul\":4529:4550   */\n      tag_114\n        /* \"#utility.yul\":4544:4549   */\n      dup3\n        /* \"#utility.yul\":4529:4550   */\n      tag_60\n      jump\t// in\n    tag_114:\n        /* \"#utility.yul\":4516:4550   */\n      swap1\n      pop\n        /* \"#utility.yul\":4452:4556   */\n      swap2\n      swap1\n      pop\n      jump\t// out\n        /* \"#utility.yul\":4562:4675   */\n    tag_115:\n        /* \"#utility.yul\":4612:4621   */\n      0x00\n        /* \"#utility.yul\":4645:4669   */\n      tag_117\n        /* \"#utility.yul\":4663:4668   */\n      dup3\n        /* \"#utility.yul\":4645:4669   */\n      tag_104\n      jump\t// in\n    tag_117:\n        /* \"#utility.yul\":4632:4669   */\n      swap1\n      pop\n        /* \"#utility.yul\":4562:4675   */\n      swap2\n      swap1\n      pop\n      jump\t// out\n        /* \"#utility.yul\":4681:6084   */\n    tag_118:\n        /* \"#utility.yul\":4805:4849   */\n      tag_120\n        /* \"#utility.yul\":4845:4848   */\n      dup4\n        /* \"#utility.yul\":4840:4843   */\n      dup4\n        /* \"#utility.yul\":4805:4849   */\n      tag_89\n      jump\t// in\n    tag_120:\n        /* \"#utility.yul\":4914:4932   */\n      0xffffffffffffffff\n        /* \"#utility.yul\":4906:4912   */\n      dup2\n        /* \"#utility.yul\":4903:4933   */\n      gt\n        /* \"#utility.yul\":4900:4956   */\n      iszero\n      tag_121\n      jumpi\n        /* \"#utility.yul\":4936:4954   */\n      tag_122\n      tag_123\n      jump\t// in\n    tag_122:\n        /* \"#utility.yul\":4900:4956   */\n    tag_121:\n        /* \"#utility.yul\":4980:5018   */\n      tag_124\n        /* \"#utility.yul\":5012:5016   */\n      dup3\n        /* \"#utility.yul\":5006:5017   */\n      sload\n        /* \"#utility.yul\":4980:5018   */\n      tag_29\n      jump\t// in\n    tag_124:\n        /* \"#utility.yul\":5065:5132   */\n      tag_125\n        /* \"#utility.yul\":5125:5131   */\n      dup3\n        /* \"#utility.yul\":5117:5123   */\n      dup3\n        /* \"#utility.yul\":5111:5115   */\n      dup6\n        /* \"#utility.yul\":5065:5132   */\n      tag_93\n      jump\t// in\n    tag_125:\n        /* \"#utility.yul\":5159:5160   */\n      0x00\n        /* \"#utility.yul\":5188:5190   */\n      0x1f\n        /* \"#utility.yul\":5180:5186   */\n      dup4\n        /* \"#utility.yul\":5177:5191   */\n      gt\n        /* \"#utility.yul\":5205:5206   */\n      0x01\n        /* \"#utility.yul\":5200:5832   */\n      dup2\n      eq\n      tag_127\n      jumpi\n        /* \"#utility.yul\":5876:5877   */\n      0x00\n        /* \"#utility.yul\":5893:5899   */\n      dup5\n        /* \"#utility.yul\":5890:5974   */\n      iszero\n      tag_128\n      jumpi\n        /* \"#utility.yul\":5949:5958   */\n      dup3\n        /* \"#utility.yul\":5944:5947   */\n      dup8\n        /* \"#utility.yul\":5940:5959   */\n      add\n        /* \"#utility.yul\":5927:5960   */\n      calldataload\n        /* \"#utility.yul\":5918:5960   */\n      swap1\n      pop\n        /* \"#utility.yul\":5890:5974   */\n    tag_128:\n        /* \"#utility.yul\":6000:6067   */\n      tag_129\n        /* \"#utility.yul\":6060:6066   */\n      dup6\n        /* \"#utility.yul\":6053:6058   */\n      dup3\n        /* \"#utility.yul\":6000:6067   */\n      tag_130\n      jump\t// in\n    tag_129:\n        /* \"#utility.yul\":5994:5998   */\n      dup7\n        /* \"#utility.yul\":5987:6068   */\n      sstore\n        /* \"#utility.yul\":5849:6078   */\n      pop\n        /* \"#utility.yul\":5170:6078   */\n      jump(tag_126)\n        /* \"#utility.yul\":5200:5832   */\n    tag_127:\n        /* \"#utility.yul\":5252:5256   */\n      0x1f\n        /* \"#utility.yul\":5248:5257   */\n      not\n        /* \"#utility.yul\":5240:5246   */\n      dup5\n        /* \"#utility.yul\":5236:5258   */\n      and\n        /* \"#utility.yul\":5286:5323   */\n      tag_131\n        /* \"#utility.yul\":5318:5322   */\n      dup7\n        /* \"#utility.yul\":5286:5323   */\n      tag_87\n      jump\t// in\n    tag_131:\n        /* \"#utility.yul\":5345:5346   */\n      0x00\n        /* \"#utility.yul\":5359:5574   */\n    tag_132:\n        /* \"#utility.yul\":5373:5380   */\n      dup3\n        /* \"#utility.yul\":5370:5371   */\n      dup2\n        /* \"#utility.yul\":5367:5381   */\n      lt\n        /* \"#utility.yul\":5359:5574   */\n      iszero\n      tag_134\n      jumpi\n        /* \"#utility.yul\":5459:5468   */\n      dup5\n        /* \"#utility.yul\":5454:5457   */\n      dup10\n        /* \"#utility.yul\":5450:5469   */\n      add\n        /* \"#utility.yul\":5437:5470   */\n      calldataload\n        /* \"#utility.yul\":5429:5435   */\n      dup3\n        /* \"#utility.yul\":5422:5471   */\n      sstore\n        /* \"#utility.yul\":5510:5511   */\n      0x01\n        /* \"#utility.yul\":5502:5508   */\n      dup3\n        /* \"#utility.yul\":5498:5512   */\n      add\n        /* \"#utility.yul\":5488:5512   */\n      swap2\n      pop\n        /* \"#utility.yul\":5557:5559   */\n      0x20\n        /* \"#utility.yul\":5546:5555   */\n      dup6\n        /* \"#utility.yul\":5542:5560   */\n      add\n        /* \"#utility.yul\":5529:5560   */\n      swap5\n      pop\n        /* \"#utility.yul\":5396:5400   */\n      0x20\n        /* \"#utility.yul\":5393:5394   */\n      dup2\n        /* \"#utility.yul\":5389:5401   */\n      add\n        /* \"#utility.yul\":5384:5401   */\n      swap1\n      pop\n        /* \"#utility.yul\":5359:5574   */\n      jump(tag_132)\n    tag_134:\n        /* \"#utility.yul\":5602:5608   */\n      dup7\n        /* \"#utility.yul\":5593:5600   */\n      dup4\n        /* \"#utility.yul\":5590:5609   */\n      lt\n        /* \"#utility.yul\":5587:5773   */\n      iszero\n      tag_135\n      jumpi\n        /* \"#utility.yul\":5667:5676   */\n      dup5\n        /* \"#utility.yul\":5662:5665   */\n      dup10\n        /* \"#utility.yul\":5658:5677   */\n      add\n        /* \"#utility.yul\":5645:5678   */\n      calldataload\n        /* \"#utility.yul\":5710:5758   */\n      tag_136\n        /* \"#utility.yul\":5752:5756   */\n      0x1f\n        /* \"#utility.yul\":5744:5750   */\n      dup10\n        /* \"#utility.yul\":5740:5757   */\n      and\n        /* \"#utility.yul\":5729:5738   */\n      dup3\n        /* \"#utility.yul\":5710:5758   */\n      tag_137\n      jump\t// in\n    tag_136:\n        /* \"#utility.yul\":5702:5708   */\n      dup4\n        /* \"#utility.yul\":5695:5759   */\n      sstore\n        /* \"#utility.yul\":5610:5773   */\n      pop\n        /* \"#utility.yul\":5587:5773   */\n    tag_135:\n        /* \"#utility.yul\":5819:5820   */\n      0x01\n        /* \"#utility.yul\":5815:5816   */\n      0x02\n        /* \"#utility.yul\":5807:5813   */\n      dup9\n        /* \"#utility.yul\":5803:5817   */\n      mul\n        /* \"#utility.yul\":5799:5821   */\n      add\n        /* \"#utility.yul\":5793:5797   */\n      dup9\n        /* \"#utility.yul\":5786:5822   */\n      sstore\n        /* \"#utility.yul\":5207:5832   */\n      pop\n      pop\n      pop\n        /* \"#utility.yul\":5170:6078   */\n    tag_126:\n      pop\n        /* \"#utility.yul\":4780:6084   */\n      pop\n      pop\n      pop\n        /* \"#utility.yul\":4681:6084   */\n      pop\n      pop\n      pop\n      jump\t// out\n        /* \"#utility.yul\":6090:6397   */\n    tag_68:\n        /* \"#utility.yul\":6158:6159   */\n      0x00\n        /* \"#utility.yul\":6168:6281   */\n    tag_139:\n        /* \"#utility.yul\":6182:6188   */\n      dup4\n        /* \"#utility.yul\":6179:6180   */\n      dup2\n        /* \"#utility.yul\":6176:6189   */\n      lt\n        /* \"#utility.yul\":6168:6281   */\n      iszero\n      tag_141\n      jumpi\n        /* \"#utility.yul\":6267:6268   */\n      dup1\n        /* \"#utility.yul\":6262:6265   */\n      dup3\n        /* \"#utility.yul\":6258:6269   */\n      add\n        /* \"#utility.yul\":6252:6270   */\n      mload\n        /* \"#utility.yul\":6248:6249   */\n      dup2\n        /* \"#utility.yul\":6243:6246   */\n      dup5\n        /* \"#utility.yul\":6239:6250   */\n      add\n        /* \"#utility.yul\":6232:6271   */\n      mstore\n        /* \"#utility.yul\":6204:6206   */\n      0x20\n        /* \"#utility.yul\":6201:6202   */\n      dup2\n        /* \"#utility.yul\":6197:6207   */\n      add\n        /* \"#utility.yul\":6192:6207   */\n      swap1\n      pop\n        /* \"#utility.yul\":6168:6281   */\n      jump(tag_139)\n    tag_141:\n        /* \"#utility.yul\":6299:6305   */\n      dup4\n        /* \"#utility.yul\":6296:6297   */\n      dup2\n        /* \"#utility.yul\":6293:6306   */\n      gt\n        /* \"#utility.yul\":6290:6391   */\n      iszero\n      tag_142\n      jumpi\n        /* \"#utility.yul\":6379:6380   */\n      0x00\n        /* \"#utility.yul\":6370:6376   */\n      dup5\n        /* \"#utility.yul\":6365:6368   */\n      dup5\n        /* \"#utility.yul\":6361:6377   */\n      add\n        /* \"#utility.yul\":6354:6381   */\n      mstore\n        /* \"#utility.yul\":6290:6391   */\n    tag_142:\n        /* \"#utility.yul\":6139:6397   */\n      pop\n        /* \"#utility.yul\":6090:6397   */\n      pop\n      pop\n      pop\n      jump\t// out\n        /* \"#utility.yul\":6403:7214   */\n    tag_143:\n        /* \"#utility.yul\":6567:6568   */\n      0x00\n        /* \"#utility.yul\":6561:6565   */\n      dup2\n        /* \"#utility.yul\":6557:6569   */\n      add\n        /* \"#utility.yul\":6613:6614   */\n      0x00\n        /* \"#utility.yul\":6606:6611   */\n      dup4\n        /* \"#utility.yul\":6602:6615   */\n      add\n        /* \"#utility.yul\":6678:6741   */\n      tag_145\n        /* \"#utility.yul\":6728:6740   */\n      dup2\n        /* \"#utility.yul\":6721:6726   */\n      dup6\n        /* \"#utility.yul\":6678:6741   */\n      tag_74\n      jump\t// in\n    tag_145:\n        /* \"#utility.yul\":6755:6867   */\n      tag_146\n        /* \"#utility.yul\":6853:6866   */\n      dup2\n        /* \"#utility.yul\":6838:6851   */\n      dup4\n        /* \"#utility.yul\":6826:6836   */\n      dup7\n        /* \"#utility.yul\":6755:6867   */\n      tag_147\n      jump\t// in\n    tag_146:\n        /* \"#utility.yul\":6524:6878   */\n      pop\n      pop\n      pop\n      pop\n        /* \"#utility.yul\":6931:6932   */\n      0x01\n        /* \"#utility.yul\":6925:6929   */\n      dup2\n        /* \"#utility.yul\":6921:6933   */\n      add\n        /* \"#utility.yul\":6977:6979   */\n      0x20\n        /* \"#utility.yul\":6970:6975   */\n      dup4\n        /* \"#utility.yul\":6966:6980   */\n      add\n        /* \"#utility.yul\":7028:7040   */\n      dup1\n        /* \"#utility.yul\":7071:7110   */\n      tag_148\n        /* \"#utility.yul\":7096:7109   */\n      dup2\n        /* \"#utility.yul\":7071:7110   */\n      tag_149\n      jump\t// in\n    tag_148:\n        /* \"#utility.yul\":7054:7110   */\n      swap1\n      pop\n        /* \"#utility.yul\":7124:7196   */\n      tag_150\n        /* \"#utility.yul\":7182:7195   */\n      dup2\n        /* \"#utility.yul\":7170:7180   */\n      dup5\n        /* \"#utility.yul\":7124:7196   */\n      tag_151\n      jump\t// in\n    tag_150:\n        /* \"#utility.yul\":6888:7207   */\n      pop\n      pop\n      pop\n        /* \"#utility.yul\":6403:7214   */\n      pop\n      pop\n      jump\t// out\n        /* \"#utility.yul\":7220:7313   */\n    tag_98:\n        /* \"#utility.yul\":7257:7263   */\n      0x00\n        /* \"#utility.yul\":7304:7306   */\n      0x20\n        /* \"#utility.yul\":7299:7301   */\n      0x1f\n        /* \"#utility.yul\":7292:7297   */\n      dup4\n        /* \"#utility.yul\":7288:7302   */\n      add\n        /* \"#utility.yul\":7284:7307   */\n      div\n        /* \"#utility.yul\":7274:7307   */\n      swap1\n      pop\n        /* \"#utility.yul\":7220:7313   */\n      swap2\n      swap1\n      pop\n      jump\t// out\n        /* \"#utility.yul\":7319:7639   */\n    tag_29:\n        /* \"#utility.yul\":7363:7369   */\n      0x00\n        /* \"#utility.yul\":7400:7401   */\n      0x02\n        /* \"#utility.yul\":7394:7398   */\n      dup3\n        /* \"#utility.yul\":7390:7402   */\n      div\n        /* \"#utility.yul\":7380:7402   */\n      swap1\n      pop\n        /* \"#utility.yul\":7447:7448   */\n      0x01\n        /* \"#utility.yul\":7441:7445   */\n      dup3\n        /* \"#utility.yul\":7437:7449   */\n      and\n        /* \"#utility.yul\":7468:7486   */\n      dup1\n        /* \"#utility.yul\":7458:7539   */\n      tag_154\n      jumpi\n        /* \"#utility.yul\":7524:7528   */\n      0x7f\n        /* \"#utility.yul\":7516:7522   */\n      dup3\n        /* \"#utility.yul\":7512:7529   */\n      and\n        /* \"#utility.yul\":7502:7529   */\n      swap2\n      pop\n        /* \"#utility.yul\":7458:7539   */\n    tag_154:\n        /* \"#utility.yul\":7586:7588   */\n      0x20\n        /* \"#utility.yul\":7578:7584   */\n      dup3\n        /* \"#utility.yul\":7575:7589   */\n      lt\n        /* \"#utility.yul\":7555:7573   */\n      dup2\n        /* \"#utility.yul\":7552:7590   */\n      eq\n        /* \"#utility.yul\":7549:7633   */\n      iszero\n      tag_155\n      jumpi\n        /* \"#utility.yul\":7605:7623   */\n      tag_156\n      tag_157\n      jump\t// in\n    tag_156:\n        /* \"#utility.yul\":7549:7633   */\n    tag_155:\n        /* \"#utility.yul\":7370:7639   */\n      pop\n        /* \"#utility.yul\":7319:7639   */\n      swap2\n      swap1\n      pop\n      jump\t// out\n        /* \"#utility.yul\":7645:7940   */\n    tag_130:\n        /* \"#utility.yul\":7721:7725   */\n      0x00\n        /* \"#utility.yul\":7867:7896   */\n      tag_159\n        /* \"#utility.yul\":7892:7895   */\n      dup4\n        /* \"#utility.yul\":7886:7890   */\n      dup4\n        /* \"#utility.yul\":7867:7896   */\n      tag_137\n      jump\t// in\n    tag_159:\n        /* \"#utility.yul\":7859:7896   */\n      swap2\n      pop\n        /* \"#utility.yul\":7929:7932   */\n      dup3\n        /* \"#utility.yul\":7926:7927   */\n      0x02\n        /* \"#utility.yul\":7922:7933   */\n      mul\n        /* \"#utility.yul\":7916:7920   */\n      dup3\n        /* \"#utility.yul\":7913:7934   */\n      or\n        /* \"#utility.yul\":7905:7934   */\n      swap1\n      pop\n        /* \"#utility.yul\":7645:7940   */\n      swap3\n      swap2\n      pop\n      pop\n      jump\t// out\n        /* \"#utility.yul\":7945:8114   */\n    tag_137:\n        /* \"#utility.yul\":7989:7995   */\n      0x00\n        /* \"#utility.yul\":8022:8073   */\n      tag_161\n        /* \"#utility.yul\":8070:8071   */\n      0x00\n        /* \"#utility.yul\":8066:8072   */\n      not\n        /* \"#utility.yul\":8058:8063   */\n      dup5\n        /* \"#utility.yul\":8055:8056   */\n      0x08\n        /* \"#utility.yul\":8051:8064   */\n      mul\n        /* \"#utility.yul\":8022:8073   */\n      tag_162\n      jump\t// in\n    tag_161:\n        /* \"#utility.yul\":8018:8074   */\n      not\n        /* \"#utility.yul\":8103:8107   */\n      dup1\n        /* \"#utility.yul\":8097:8101   */\n      dup4\n        /* \"#utility.yul\":8093:8108   */\n      and\n        /* \"#utility.yul\":8083:8108   */\n      swap2\n      pop\n        /* \"#utility.yul\":7996:8114   */\n      pop\n        /* \"#utility.yul\":7945:8114   */\n      swap3\n      swap2\n      pop\n      pop\n      jump\t// out\n        /* \"#utility.yul\":8305:8485   */\n    tag_157:\n        /* \"#utility.yul\":8353:8430   */\n      0x4e487b7100000000000000000000000000000000000000000000000000000000\n        /* \"#utility.yul\":8350:8351   */\n      0x00\n        /* \"#utility.yul\":8343:8431   */\n      mstore\n        /* \"#utility.yul\":8450:8454   */\n      0x22\n        /* \"#utility.yul\":8447:8448   */\n      0x04\n        /* \"#utility.yul\":8440:8455   */\n      mstore\n        /* \"#utility.yul\":8474:8478   */\n      0x24\n        /* \"#utility.yul\":8471:8472   */\n      0x00\n        /* \"#utility.yul\":8464:8479   */\n      revert\n        /* \"#utility.yul\":8491:8671   */\n    tag_123:\n        /* \"#utility.yul\":8539:8616   */\n      0x4e487b7100000000000000000000000000000000000000000000000000000000\n        /* \"#utility.yul\":8536:8537   */\n      0x00\n        /* \"#utility.yul\":8529:8617   */\n      mstore\n        /* \"#utility.yul\":8636:8640   */\n      0x41\n        /* \"#utility.yul\":8633:8634   */\n      0x04\n        /* \"#utility.yul\":8626:8641   */\n      mstore\n        /* \"#utility.yul\":8660:8664   */\n      0x24\n        /* \"#utility.yul\":8657:8658   */\n      0x00\n        /* \"#utility.yul\":8650:8665   */\n      revert\n        /* \"#utility.yul\":8677:8749   */\n    tag_167:\n        /* \"#utility.yul\":8717:8720   */\n      0x00\n        /* \"#utility.yul\":8738:8743   */\n      dup2\n        /* \"#utility.yul\":8731:8743   */\n      swap1\n      pop\n        /* \"#utility.yul\":8677:8749   */\n      swap2\n      swap1\n      pop\n      jump\t// out\n        /* \"#utility.yul\":8755:8830   */\n    tag_169:\n        /* \"#utility.yul\":8798:8801   */\n      0x00\n        /* \"#utility.yul\":8819:8824   */\n      dup2\n        /* \"#utility.yul\":8812:8824   */\n      swap1\n      pop\n        /* \"#utility.yul\":8755:8830   */\n      swap2\n      swap1\n      pop\n      jump\t// out\n        /* \"#utility.yul\":8836:9016   */\n    tag_149:\n        /* \"#utility.yul\":8878:8889   */\n      0x00\n        /* \"#utility.yul\":8927:8930   */\n      dup2\n        /* \"#utility.yul\":8914:8931   */\n      calldataload\n        /* \"#utility.yul\":8940:8970   */\n      tag_172\n        /* \"#utility.yul\":8964:8969   */\n      dup2\n        /* \"#utility.yul\":8940:8970   */\n      tag_173\n      jump\t// in\n    tag_172:\n        /* \"#utility.yul\":9004:9009   */\n      dup1\n        /* \"#utility.yul\":8980:9009   */\n      swap2\n      pop\n        /* \"#utility.yul\":8890:9016   */\n      pop\n        /* \"#utility.yul\":8836:9016   */\n      swap2\n      swap1\n      pop\n      jump\t// out\n        /* \"#utility.yul\":9022:9139   */\n    tag_81:\n        /* \"#utility.yul\":9131:9132   */\n      0x00\n        /* \"#utility.yul\":9128:9129   */\n      dup1\n        /* \"#utility.yul\":9121:9133   */\n      revert\n        /* \"#utility.yul\":9145:9262   */\n    tag_40:\n        /* \"#utility.yul\":9254:9255   */\n      0x00\n        /* \"#utility.yul\":9251:9252   */\n      dup1\n        /* \"#utility.yul\":9244:9256   */\n      revert\n        /* \"#utility.yul\":9268:9385   */\n    tag_78:\n        /* \"#utility.yul\":9377:9378   */\n      0x00\n        /* \"#utility.yul\":9374:9375   */\n      dup1\n        /* \"#utility.yul\":9367:9379   */\n      revert\n        /* \"#utility.yul\":9391:9508   */\n    tag_84:\n        /* \"#utility.yul\":9500:9501   */\n      0x00\n        /* \"#utility.yul\":9497:9498   */\n      dup1\n        /* \"#utility.yul\":9490:9502   */\n      revert\n        /* \"#utility.yul\":9514:9631   */\n    tag_51:\n        /* \"#utility.yul\":9623:9624   */\n      0x00\n        /* \"#utility.yul\":9620:9621   */\n      dup1\n        /* \"#utility.yul\":9613:9625   */\n      revert\n        /* \"#utility.yul\":9637:9754   */\n    tag_48:\n        /* \"#utility.yul\":9746:9747   */\n      0x00\n        /* \"#utility.yul\":9743:9744   */\n      dup1\n        /* \"#utility.yul\":9736:9748   */\n      revert\n        /* \"#utility.yul\":9760:9862   */\n    tag_70:\n        /* \"#utility.yul\":9801:9807   */\n      0x00\n        /* \"#utility.yul\":9852:9854   */\n      0x1f\n        /* \"#utility.yul\":9848:9855   */\n      not\n        /* \"#utility.yul\":9843:9845   */\n      0x1f\n        /* \"#utility.yul\":9836:9841   */\n      dup4\n        /* \"#utility.yul\":9832:9846   */\n      add\n        /* \"#utility.yul\":9828:9856   */\n      and\n        /* \"#utility.yul\":9818:9856   */\n      swap1\n      pop\n        /* \"#utility.yul\":9760:9862   */\n      swap2\n      swap1\n      pop\n      jump\t// out\n        /* \"#utility.yul\":9868:9960   */\n    tag_181:\n        /* \"#utility.yul\":9900:9908   */\n      0x00\n        /* \"#utility.yul\":9947:9952   */\n      dup2\n        /* \"#utility.yul\":9944:9945   */\n      0x00\n        /* \"#utility.yul\":9940:9953   */\n      shl\n        /* \"#utility.yul\":9919:9953   */\n      swap1\n      pop\n        /* \"#utility.yul\":9868:9960   */\n      swap2\n      swap1\n      pop\n      jump\t// out\n        /* \"#utility.yul\":9966:10073   */\n    tag_183:\n        /* \"#utility.yul\":10010:10018   */\n      0x00\n        /* \"#utility.yul\":10060:10065   */\n      dup3\n        /* \"#utility.yul\":10054:10058   */\n      dup3\n        /* \"#utility.yul\":10050:10066   */\n      shl\n        /* \"#utility.yul\":10029:10066   */\n      swap1\n      pop\n        /* \"#utility.yul\":9966:10073   */\n      swap3\n      swap2\n      pop\n      pop\n      jump\t// out\n        /* \"#utility.yul\":10079:10196   */\n    tag_162:\n        /* \"#utility.yul\":10133:10141   */\n      0x00\n        /* \"#utility.yul\":10183:10188   */\n      dup3\n        /* \"#utility.yul\":10177:10181   */\n      dup3\n        /* \"#utility.yul\":10173:10189   */\n      shr\n        /* \"#utility.yul\":10152:10189   */\n      swap1\n      pop\n        /* \"#utility.yul\":10079:10196   */\n      swap3\n      swap2\n      pop\n      pop\n      jump\t// out\n        /* \"#utility.yul\":10202:10391   */\n    tag_111:\n        /* \"#utility.yul\":10279:10311   */\n      tag_187\n      tag_188\n      jump\t// in\n    tag_187:\n        /* \"#utility.yul\":10320:10385   */\n      tag_189\n        /* \"#utility.yul\":10378:10384   */\n      dup2\n        /* \"#utility.yul\":10370:10376   */\n      dup5\n        /* \"#utility.yul\":10364:10368   */\n      dup5\n        /* \"#utility.yul\":10320:10385   */\n      tag_190\n      jump\t// in\n    tag_189:\n        /* \"#utility.yul\":10255:10391   */\n      pop\n        /* \"#utility.yul\":10202:10391   */\n      pop\n      pop\n      jump\t// out\n        /* \"#utility.yul\":10397:10623   */\n    tag_191:\n        /* \"#utility.yul\":10454:10460   */\n      0x00\n        /* \"#utility.yul\":10483:10486   */\n      0xff\n        /* \"#utility.yul\":10507:10529   */\n      tag_193\n        /* \"#utility.yul\":10520:10528   */\n      dup5\n        /* \"#utility.yul\":10507:10529   */\n      tag_181\n      jump\t// in\n    tag_193:\n        /* \"#utility.yul\":10495:10529   */\n      swap4\n      pop\n        /* \"#utility.yul\":10562:10566   */\n      dup1\n        /* \"#utility.yul\":10558:10567   */\n      not\n        /* \"#utility.yul\":10551:10556   */\n      dup4\n        /* \"#utility.yul\":10547:10568   */\n      and\n        /* \"#utility.yul\":10538:10568   */\n      swap3\n      pop\n        /* \"#utility.yul\":10611:10615   */\n      dup1\n        /* \"#utility.yul\":10601:10609   */\n      dup5\n        /* \"#utility.yul\":10597:10616   */\n      and\n        /* \"#utility.yul\":10590:10595   */\n      dup4\n        /* \"#utility.yul\":10587:10617   */\n      or\n        /* \"#utility.yul\":10577:10617   */\n      swap2\n      pop\n        /* \"#utility.yul\":10461:10623   */\n      pop\n        /* \"#utility.yul\":10397:10623   */\n      swap3\n      swap2\n      pop\n      pop\n      jump\t// out\n        /* \"#utility.yul\":10629:11022   */\n    tag_194:\n        /* \"#utility.yul\":10698:10704   */\n      0x00\n        /* \"#utility.yul\":10748:10749   */\n      0x08\n        /* \"#utility.yul\":10736:10746   */\n      dup4\n        /* \"#utility.yul\":10732:10750   */\n      mul\n        /* \"#utility.yul\":10771:10868   */\n      tag_196\n        /* \"#utility.yul\":10801:10867   */\n      0xffffffffffffffffffffffffffffffffffffffffffffffffffffffffffffffff\n        /* \"#utility.yul\":10790:10799   */\n      dup3\n        /* \"#utility.yul\":10771:10868   */\n      tag_183\n      jump\t// in\n    tag_196:\n        /* \"#utility.yul\":10889:10928   */\n      tag_197\n        /* \"#utility.yul\":10919:10927   */\n      dup7\n        /* \"#utility.yul\":10908:10917   */\n      dup4\n        /* \"#utility.yul\":10889:10928   */\n      tag_183\n      jump\t// in\n    tag_197:\n        /* \"#utility.yul\":10877:10928   */\n      swap6\n      pop\n        /* \"#utility.yul\":10961:10965   */\n      dup1\n        /* \"#utility.yul\":10957:10966   */\n      not\n        /* \"#utility.yul\":10950:10955   */\n      dup5\n        /* \"#utility.yul\":10946:10967   */\n      and\n        /* \"#utility.yul\":10937:10967   */\n      swap4\n      pop\n        /* \"#utility.yul\":11010:11014   */\n      dup1\n        /* \"#utility.yul\":11000:11008   */\n      dup7\n        /* \"#utility.yul\":10996:11015   */\n      and\n        /* \"#utility.yul\":10989:10994   */\n      dup5\n        /* \"#utility.yul\":10986:11016   */\n      or\n        /* \"#utility.yul\":10976:11016   */\n      swap3\n      pop\n        /* \"#utility.yul\":10705:11022   */\n      pop\n      pop\n        /* \"#utility.yul\":10629:11022   */\n      swap4\n      swap3\n      pop\n      pop\n      pop\n      jump\t// out\n        /* \"#utility.yul\":11028:11274   */\n    tag_151:\n        /* \"#utility.yul\":11132:11165   */\n      tag_199\n        /* \"#utility.yul\":11157:11164   */\n      dup3\n        /* \"#utility.yul\":11132:11165   */\n      tag_112\n      jump\t// in\n    tag_199:\n        /* \"#utility.yul\":11187:11267   */\n      tag_200\n        /* \"#utility.yul\":11228:11266   */\n      tag_201\n        /* \"#utility.yul\":11249:11265   */\n      dup3\n        /* \"#utility.yul\":11228:11266   */\n      tag_167\n      jump\t// in\n    tag_201:\n        /* \"#utility.yul\":11221:11225   */\n      dup4\n        /* \"#utility.yul\":11215:11226   */\n      sload\n        /* \"#utility.yul\":11187:11267   */\n      tag_191\n      jump\t// in\n    tag_200:\n        /* \"#utility.yul\":11181:11185   */\n      dup3\n        /* \"#utility.yul\":11174:11268   */\n      sstore\n        /* \"#utility.yul\":11098:11274   */\n      pop\n        /* \"#utility.yul\":11028:11274   */\n      pop\n      pop\n      jump\t// out\n        /* \"#utility.yul\":11280:11498   */\n    tag_147:\n        /* \"#utility.yul\":11395:11492   */\n      tag_203\n        /* \"#utility.yul\":11484:11491   */\n      dup4\n        /* \"#utility.yul\":11475:11482   */\n      dup4\n        /* \"#utility.yul\":11469:11473   */\n      dup4\n        /* \"#utility.yul\":11395:11492   */\n      tag_118\n      jump\t// in\n    tag_203:\n        /* \"#utility.yul\":11280:11498   */\n      pop\n      pop\n      pop\n      jump\t// out\n        /* \"#utility.yul\":11504:11736   */\n    tag_24:\n        /* \"#utility.yul\":11628:11730   */\n      tag_205\n        /* \"#utility.yul\":11722:11729   */\n      dup3\n        /* \"#utility.yul\":11716:11720   */\n      dup3\n        /* \"#utility.yul\":11628:11730   */\n      tag_143\n      jump\t// in\n    tag_205:\n        /* \"#utility.yul\":11504:11736   */\n      pop\n      pop\n      jump\t// out\n        /* \"#utility.yul\":11742:12011   */\n    tag_190:\n        /* \"#utility.yul\":11852:11891   */\n      tag_207\n        /* \"#utility.yul\":11883:11890   */\n      dup4\n        /* \"#utility.yul\":11852:11891   */\n      tag_115\n      jump\t// in\n    tag_207:\n        /* \"#utility.yul\":11913:12004   */\n      tag_208\n        /* \"#utility.yul\":11962:12003   */\n      tag_209\n        /* \"#utility.yul\":11986:12002   */\n      dup3\n        /* \"#utility.yul\":11962:12003   */\n      tag_169\n      jump\t// in\n    tag_209:\n        /* \"#utility.yul\":11954:11960   */\n      dup5\n        /* \"#utility.yul\":11947:11951   */\n      dup5\n        /* \"#utility.yul\":11941:11952   */\n      sload\n        /* \"#utility.yul\":11913:12004   */\n      tag_194\n      jump\t// in\n    tag_208:\n        /* \"#utility.yul\":11907:11911   */\n      dup3\n        /* \"#utility.yul\":11900:12005   */\n      sstore\n        /* \"#utility.yul\":11818:12011   */\n      pop\n        /* \"#utility.yul\":11742:12011   */\n      pop\n      pop\n      pop\n      jump\t// out\n        /* \"#utility.yul\":12017:12133   */\n    tag_173:\n        /* \"#utility.yul\":12087:12108   */\n      tag_211\n        /* \"#utility.yul\":12102:12107   */\n      dup2\n        /* \"#utility.yul\":12087:12108   */\n      tag_60\n      jump\t// in\n    tag_211:\n        /* \"#utility.yul\":12080:12085   */\n      dup2\n        /* \"#utility.yul\":12077:12109   */\n      eq\n        /* \"#utility.yul\":12067:12127   */\n      tag_212\n      jumpi\n        /* \"#utility.yul\":12123:12124   */\n      0x00\n        /* \"#utility.yul\":12120:12121   */\n      dup1\n        /* \"#utility.yul\":12113:12125   */\n      revert\n        /* \"#utility.yul\":12067:12127   */\n    tag_212:\n        /* \"#utility.yul\":12017:12133   */\n      pop\n      jump\t// out\n        /* \"#utility.yul\":12139:12261   */\n    tag_44:\n        /* \"#utility.yul\":12212:12236   */\n      tag_214\n        /* \"#utility.yul\":12230:12235   */\n      dup2\n        /* \"#utility.yul\":12212:12236   */\n      tag_104\n      jump\t// in\n    tag_214:\n        /* \"#utility.yul\":12205:12210   */\n      dup2\n        /* \"#utility.yul\":12202:12237   */\n      eq\n        /* \"#utility.yul\":12192:12255   */\n      tag_215\n      jumpi\n        /* \"#utility.yul\":12251:12252   */\n      0x00\n        /* \"#utility.yul\":12248:12249   */\n      dup1\n        /* \"#utility.yul\":12241:12253   */\n      revert\n        /* \"#utility.yul\":12192:12255   */\n    tag_215:\n        /* \"#utility.yul\":12139:12261   */\n      pop\n      jump\t// out\n        /* \"#utility.yul\":12267:12340   */\n    tag_188:\n        /* \"#utility.yul\":12312:12315   */\n      0x00\n        /* \"#utility.yul\":12267:12340   */\n      swap1\n      jump\t// out\n\n    auxdata: 0xa264697066735822122009459c14d4c866aff092eaee71046af06cd6a7b6ebf44a2222d326c98f93406064736f6c63430008070033\n}\n",
				"bytecode": {
					"linkReferences": {},
					"object": "608060405234801561001057600080fd5b5061081f806100206000396000f3fe608060405234801561001057600080fd5b506004361061004c5760003560e01c80635cce26f1146100515780636d4ce63c1461006d578063bc8bc2b414610077578063fee10aee146100a8575b600080fd5b61006b600480360381019061006691906101f0565b6100b2565b005b6100756100ef565b005b610091600480360381019061008c9190610239565b6100f1565b60405161009f9291906102ae565b60405180910390f35b6100b06101ba565b005b600081908060018154018082558091505060019003906000526020600020906002020160009091909190915081816100ea9190610783565b505050565b565b6000818154811061010157600080fd5b906000526020600020906002020160009150905080600001805461012490610579565b80601f016020809104026020016040519081016040528092919081815260200182805461015090610579565b801561019d5780601f106101725761010080835404028352916020019161019d565b820191906000526020600020905b81548152906001019060200180831161018057829003601f168201915b5050505050908060010160009054906101000a900460ff16905082565b565b6000604082840312156101d2576101d1610672565b5b81905092915050565b6000813590506101ea816107cd565b92915050565b60006020828403121561020657610205610686565b5b600082013567ffffffffffffffff81111561022457610223610681565b5b610230848285016101bc565b91505092915050565b60006020828403121561024f5761024e610686565b5b600061025d848285016101db565b91505092915050565b61026f816103c3565b82525050565b600061028082610361565b61028a818561036c565b935061029a8185602086016104f0565b6102a38161068b565b840191505092915050565b600060408201905081810360008301526102c88185610275565b90506102d76020830184610266565b9392505050565b600080833560016020038436030381126102fb576102fa610677565b5b80840192508235915067ffffffffffffffff82111561031d5761031c61066d565b5b6020830192506001820236038313156103395761033861067c565b5b509250929050565b60008190508160005260206000209050919050565b600082905092915050565b600081519050919050565b600082825260208201905092915050565b601f8211156103be5761038f81610341565b61039884610569565b810160208510156103a7578190505b6103bb6103b385610569565b8301826103d9565b50505b505050565b60008115159050919050565b6000819050919050565b5b818110156103f8576103ed6000826106c3565b6001810190506103da565b5050565b6000610407826103c3565b9050919050565b6000610419826103cf565b9050919050565b61042a8383610356565b67ffffffffffffffff81111561044357610442610614565b5b61044d8254610579565b61045882828561037d565b6000601f8311600181146104875760008415610475578287013590505b61047f85826105ab565b8655506104e7565b601f19841661049586610341565b60005b828110156104bd57848901358255600182019150602085019450602081019050610498565b868310156104da57848901356104d6601f8916826105c7565b8355505b6001600288020188555050505b50505050505050565b60005b8381101561050e5780820151818401526020810190506104f3565b8381111561051d576000848401525b50505050565b600081016000830161053581856102de565b610540818386610773565b5050505060018101602083018061055681610657565b90506105628184610750565b5050505050565b60006020601f8301049050919050565b6000600282049050600182168061059157607f821691505b602082108114156105a5576105a46105e5565b5b50919050565b60006105b783836105c7565b9150826002028217905092915050565b60006105d8600019846008026106b6565b1980831691505092915050565b7f4e487b7100000000000000000000000000000000000000000000000000000000600052602260045260246000fd5b7f4e487b7100000000000000000000000000000000000000000000000000000000600052604160045260246000fd5b6000819050919050565b6000819050919050565b60008135610664816107b6565b80915050919050565b600080fd5b600080fd5b600080fd5b600080fd5b600080fd5b600080fd5b6000601f19601f8301169050919050565b60008160001b9050919050565b600082821b905092915050565b600082821c905092915050565b6106cb6107e4565b6106d6818484610791565b505050565b600060ff6106e88461069c565b9350801983169250808416831791505092915050565b60006008830261072e7fffffffffffffffffffffffffffffffffffffffffffffffffffffffffffffffff826106a9565b61073886836106a9565b95508019841693508086168417925050509392505050565b610759826103fc565b61076c61076582610643565b83546106db565b8255505050565b61077e838383610420565b505050565b61078d8282610523565b5050565b61079a8361040e565b6107ae6107a68261064d565b8484546106fe565b825550505050565b6107bf816103c3565b81146107ca57600080fd5b50565b6107d6816103cf565b81146107e157600080fd5b50565b60009056fea264697066735822122009459c14d4c866aff092eaee71046af06cd6a7b6ebf44a2222d326c98f93406064736f6c63430008070033",
					"opcodes": "PUSH1 0x80 PUSH1 0x40 MSTORE CALLVALUE DUP1 ISZERO PUSH2 0x10 JUMPI PUSH1 0x0 DUP1 REVERT JUMPDEST POP PUSH2 0x81F DUP1 PUSH2 0x20 PUSH1 0x0 CODECOPY PUSH1 0x0 RETURN INVALID PUSH1 0x80 PUSH1 0x40 MSTORE CALLVALUE DUP1 ISZERO PUSH2 0x10 JUMPI PUSH1 0x0 DUP1 REVERT JUMPDEST POP PUSH1 0x4 CALLDATASIZE LT PUSH2 0x4C JUMPI PUSH1 0x0 CALLDATALOAD PUSH1 0xE0 SHR DUP1 PUSH4 0x5CCE26F1 EQ PUSH2 0x51 JUMPI DUP1 PUSH4 0x6D4CE63C EQ PUSH2 0x6D JUMPI DUP1 PUSH4 0xBC8BC2B4 EQ PUSH2 0x77 JUMPI DUP1 PUSH4 0xFEE10AEE EQ PUSH2 0xA8 JUMPI JUMPDEST PUSH1 0x0 DUP1 REVERT JUMPDEST PUSH2 0x6B PUSH1 0x4 DUP1 CALLDATASIZE SUB DUP2 ADD SWAP1 PUSH2 0x66 SWAP2 SWAP1 PUSH2 0x1F0 JUMP JUMPDEST PUSH2 0xB2 JUMP JUMPDEST STOP JUMPDEST PUSH2 0x75 PUSH2 0xEF JUMP JUMPDEST STOP JUMPDEST PUSH2 0x91 PUSH1 0x4 DUP1 CALLDATASIZE SUB DUP2 ADD SWAP1 PUSH2 0x8C SWAP2 SWAP1 PUSH2 0x239 JUMP JUMPDEST PUSH2 0xF1 JUMP JUMPDEST PUSH1 0x40 MLOAD PUSH2 0x9F SWAP3 SWAP2 SWAP1 PUSH2 0x2AE JUMP JUMPDEST PUSH1 0x40 MLOAD DUP1 SWAP2 SUB SWAP1 RETURN JUMPDEST PUSH2 0xB0 PUSH2 0x1BA JUMP JUMPDEST STOP JUMPDEST PUSH1 0x0 DUP2 SWAP1 DUP1 PUSH1 0x1 DUP2 SLOAD ADD DUP1 DUP3 SSTORE DUP1 SWAP2 POP POP PUSH1 0x1 SWAP1 SUB SWAP1 PUSH1 0x0 MSTORE PUSH1 0x20 PUSH1 0x0 KECCAK256 SWAP1 PUSH1 0x2 MUL ADD PUSH1 0x0 SWAP1 SWAP2 SWAP1 SWAP2 SWAP1 SWAP2 POP DUP2 DUP2 PUSH2 0xEA SWAP2 SWAP1 PUSH2 0x783 JUMP JUMPDEST POP POP POP JUMP JUMPDEST JUMP JUMPDEST PUSH1 0x0 DUP2 DUP2 SLOAD DUP2 LT PUSH2 0x101 JUMPI PUSH1 0x0 DUP1 REVERT JUMPDEST SWAP1 PUSH1 0x0 MSTORE PUSH1 0x20 PUSH1 0x0 KECCAK256 SWAP1 PUSH1 0x2 MUL ADD PUSH1 0x0 SWAP2 POP SWAP1 POP DUP1 PUSH1 0x0 ADD DUP1 SLOAD PUSH2 0x124 SWAP1 PUSH2 0x579 JUMP JUMPDEST DUP1 PUSH1 0x1F ADD PUSH1 0x20 DUP1 SWAP2 DIV MUL PUSH1 0x20 ADD PUSH1 0x40 MLOAD SWAP1 DUP2 ADD PUSH1 0x40 MSTORE DUP1 SWAP3 SWAP2 SWAP1 DUP2 DUP2 MSTORE PUSH1 0x20 ADD DUP3 DUP1 SLOAD PUSH2 0x150 SWAP1 PUSH2 0x579 JUMP JUMPDEST DUP1 ISZERO PUSH2 0x19D JUMPI DUP1 PUSH1 0x1F LT PUSH2 0x172 JUMPI PUSH2 0x100 DUP1 DUP4 SLOAD DIV MUL DUP4 MSTORE SWAP2 PUSH1 0x20 ADD SWAP2 PUSH2 0x19D JUMP JUMPDEST DUP3 ADD SWAP2 SWAP1 PUSH1 0x0 MSTORE PUSH1 0x20 PUSH1 0x0 KECCAK256 SWAP1 JUMPDEST DUP2 SLOAD DUP2 MSTORE SWAP1 PUSH1 0x1 ADD SWAP1 PUSH1 0x20 ADD DUP1 DUP4 GT PUSH2 0x180 JUMPI DUP3 SWAP1 SUB PUSH1 0x1F AND DUP3 ADD SWAP2 JUMPDEST POP POP POP POP POP SWAP1 DUP1 PUSH1 0x1 ADD PUSH1 0x0 SWAP1 SLOAD SWAP1 PUSH2 0x100 EXP SWAP1 DIV PUSH1 0xFF AND SWAP1 POP DUP3 JUMP JUMPDEST JUMP JUMPDEST PUSH1 0x0 PUSH1 0x40 DUP3 DUP5 SUB SLT ISZERO PUSH2 0x1D2 JUMPI PUSH2 0x1D1 PUSH2 0x672 JUMP JUMPDEST JUMPDEST DUP2 SWAP1 POP SWAP3 SWAP2 POP POP JUMP JUMPDEST PUSH1 0x0 DUP2 CALLDATALOAD SWAP1 POP PUSH2 0x1EA DUP2 PUSH2 0x7CD JUMP JUMPDEST SWAP3 SWAP2 POP POP JUMP JUMPDEST PUSH1 0x0 PUSH1 0x20 DUP3 DUP5 SUB SLT ISZERO PUSH2 0x206 JUMPI PUSH2 0x205 PUSH2 0x686 JUMP JUMPDEST JUMPDEST PUSH1 0x0 DUP3 ADD CALLDATALOAD PUSH8 0xFFFFFFFFFFFFFFFF DUP2 GT ISZERO PUSH2 0x224 JUMPI PUSH2 0x223 PUSH2 0x681 JUMP JUMPDEST JUMPDEST PUSH2 0x230 DUP5 DUP3 DUP6 ADD PUSH2 0x1BC JUMP JUMPDEST SWAP2 POP POP SWAP3 SWAP2 POP POP JUMP JUMPDEST PUSH1 0x0 PUSH1 0x20 DUP3 DUP5 SUB SLT ISZERO PUSH2 0x24F JUMPI PUSH2 0x24E PUSH2 0x686 JUMP JUMPDEST JUMPDEST PUSH1 0x0 PUSH2 0x25D DUP5 DUP3 DUP6 ADD PUSH2 0x1DB JUMP JUMPDEST SWAP2 POP POP SWAP3 SWAP2 POP POP JUMP JUMPDEST PUSH2 0x26F DUP2 PUSH2 0x3C3 JUMP JUMPDEST DUP3 MSTORE POP POP JUMP JUMPDEST PUSH1 0x0 PUSH2 0x280 DUP3 PUSH2 0x361 JUMP JUMPDEST PUSH2 0x28A DUP2 DUP6 PUSH2 0x36C JUMP JUMPDEST SWAP4 POP PUSH2 0x29A DUP2 DUP6 PUSH1 0x20 DUP7 ADD PUSH2 0x4F0 JUMP JUMPDEST PUSH2 0x2A3 DUP2 PUSH2 0x68B JUMP JUMPDEST DUP5 ADD SWAP2 POP POP SWAP3 SWAP2 POP POP JUMP JUMPDEST PUSH1 0x0 PUSH1 0x40 DUP3 ADD SWAP1 POP DUP2 DUP2 SUB PUSH1 0x0 DUP4 ADD MSTORE PUSH2 0x2C8 DUP2 DUP6 PUSH2 0x275 JUMP JUMPDEST SWAP1 POP PUSH2 0x2D7 PUSH1 0x20 DUP4 ADD DUP5 PUSH2 0x266 JUMP JUMPDEST SWAP4 SWAP3 POP POP POP JUMP JUMPDEST PUSH1 0x0 DUP1 DUP4 CALLDATALOAD PUSH1 0x1 PUSH1 0x20 SUB DUP5 CALLDATASIZE SUB SUB DUP2 SLT PUSH2 0x2FB JUMPI PUSH2 0x2FA PUSH2 0x677 JUMP JUMPDEST JUMPDEST DUP1 DUP5 ADD SWAP3 POP DUP3 CALLDATALOAD SWAP2 POP PUSH8 0xFFFFFFFFFFFFFFFF DUP3 GT ISZERO PUSH2 0x31D JUMPI PUSH2 0x31C PUSH2 0x66D JUMP JUMPDEST JUMPDEST PUSH1 0x20 DUP4 ADD SWAP3 POP PUSH1 0x1 DUP3 MUL CALLDATASIZE SUB DUP4 SGT ISZERO PUSH2 0x339 JUMPI PUSH2 0x338 PUSH2 0x67C JUMP JUMPDEST JUMPDEST POP SWAP3 POP SWAP3 SWAP1 POP JUMP JUMPDEST PUSH1 0x0 DUP2 SWAP1 POP DUP2 PUSH1 0x0 MSTORE PUSH1 0x20 PUSH1 0x0 KECCAK256 SWAP1 POP SWAP2 SWAP1 POP JUMP JUMPDEST PUSH1 0x0 DUP3 SWAP1 POP SWAP3 SWAP2 POP POP JUMP JUMPDEST PUSH1 0x0 DUP2 MLOAD SWAP1 POP SWAP2 SWAP1 POP JUMP JUMPDEST PUSH1 0x0 DUP3 DUP3 MSTORE PUSH1 0x20 DUP3 ADD SWAP1 POP SWAP3 SWAP2 POP POP JUMP JUMPDEST PUSH1 0x1F DUP3 GT ISZERO PUSH2 0x3BE JUMPI PUSH2 0x38F DUP2 PUSH2 0x341 JUMP JUMPDEST PUSH2 0x398 DUP5 PUSH2 0x569 JUMP JUMPDEST DUP2 ADD PUSH1 0x20 DUP6 LT ISZERO PUSH2 0x3A7 JUMPI DUP2 SWAP1 POP JUMPDEST PUSH2 0x3BB PUSH2 0x3B3 DUP6 PUSH2 0x569 JUMP JUMPDEST DUP4 ADD DUP3 PUSH2 0x3D9 JUMP JUMPDEST POP POP JUMPDEST POP POP POP JUMP JUMPDEST PUSH1 0x0 DUP2 ISZERO ISZERO SWAP1 POP SWAP2 SWAP1 POP JUMP JUMPDEST PUSH1 0x0 DUP2 SWAP1 POP SWAP2 SWAP1 POP JUMP JUMPDEST JUMPDEST DUP2 DUP2 LT ISZERO PUSH2 0x3F8 JUMPI PUSH2 0x3ED PUSH1 0x0 DUP3 PUSH2 0x6C3 JUMP JUMPDEST PUSH1 0x1 DUP2 ADD SWAP1 POP PUSH2 0x3DA JUMP JUMPDEST POP POP JUMP JUMPDEST PUSH1 0x0 PUSH2 0x407 DUP3 PUSH2 0x3C3 JUMP JUMPDEST SWAP1 POP SWAP2 SWAP1 POP JUMP JUMPDEST PUSH1 0x0 PUSH2 0x419 DUP3 PUSH2 0x3CF JUMP JUMPDEST SWAP1 POP SWAP2 SWAP1 POP JUMP JUMPDEST PUSH2 0x42A DUP4 DUP4 PUSH2 0x356 JUMP JUMPDEST PUSH8 0xFFFFFFFFFFFFFFFF DUP2 GT ISZERO PUSH2 0x443 JUMPI PUSH2 0x442 PUSH2 0x614 JUMP JUMPDEST JUMPDEST PUSH2 0x44D DUP3 SLOAD PUSH2 0x579 JUMP JUMPDEST PUSH2 0x458 DUP3 DUP3 DUP6 PUSH2 0x37D JUMP JUMPDEST PUSH1 0x0 PUSH1 0x1F DUP4 GT PUSH1 0x1 DUP2 EQ PUSH2 0x487 JUMPI PUSH1 0x0 DUP5 ISZERO PUSH2 0x475 JUMPI DUP3 DUP8 ADD CALLDATALOAD SWAP1 POP JUMPDEST PUSH2 0x47F DUP6 DUP3 PUSH2 0x5AB JUMP JUMPDEST DUP7 SSTORE POP PUSH2 0x4E7 JUMP JUMPDEST PUSH1 0x1F NOT DUP5 AND PUSH2 0x495 DUP7 PUSH2 0x341 JUMP JUMPDEST PUSH1 0x0 JUMPDEST DUP3 DUP2 LT ISZERO PUSH2 0x4BD JUMPI DUP5 DUP10 ADD CALLDATALOAD DUP3 SSTORE PUSH1 0x1 DUP3 ADD SWAP2 POP PUSH1 0x20 DUP6 ADD SWAP5 POP PUSH1 0x20 DUP2 ADD SWAP1 POP PUSH2 0x498 JUMP JUMPDEST DUP7 DUP4 LT ISZERO PUSH2 0x4DA JUMPI DUP5 DUP10 ADD CALLDATALOAD PUSH2 0x4D6 PUSH1 0x1F DUP10 AND DUP3 PUSH2 0x5C7 JUMP JUMPDEST DUP4 SSTORE POP JUMPDEST PUSH1 0x1 PUSH1 0x2 DUP9 MUL ADD DUP9 SSTORE POP POP POP JUMPDEST POP POP POP POP POP POP POP JUMP JUMPDEST PUSH1 0x0 JUMPDEST DUP4 DUP2 LT ISZERO PUSH2 0x50E JUMPI DUP1 DUP3 ADD MLOAD DUP2 DUP5 ADD MSTORE PUSH1 0x20 DUP2 ADD SWAP1 POP PUSH2 0x4F3 JUMP JUMPDEST DUP4 DUP2 GT ISZERO PUSH2 0x51D JUMPI PUSH1 0x0 DUP5 DUP5 ADD MSTORE JUMPDEST POP POP POP POP JUMP JUMPDEST PUSH1 0x0 DUP2 ADD PUSH1 0x0 DUP4 ADD PUSH2 0x535 DUP2 DUP6 PUSH2 0x2DE JUMP JUMPDEST PUSH2 0x540 DUP2 DUP4 DUP7 PUSH2 0x773 JUMP JUMPDEST POP POP POP POP PUSH1 0x1 DUP2 ADD PUSH1 0x20 DUP4 ADD DUP1 PUSH2 0x556 DUP2 PUSH2 0x657 JUMP JUMPDEST SWAP1 POP PUSH2 0x562 DUP2 DUP5 PUSH2 0x750 JUMP JUMPDEST POP POP POP POP POP JUMP JUMPDEST PUSH1 0x0 PUSH1 0x20 PUSH1 0x1F DUP4 ADD DIV SWAP1 POP SWAP2 SWAP1 POP JUMP JUMPDEST PUSH1 0x0 PUSH1 0x2 DUP3 DIV SWAP1 POP PUSH1 0x1 DUP3 AND DUP1 PUSH2 0x591 JUMPI PUSH1 0x7F DUP3 AND SWAP2 POP JUMPDEST PUSH1 0x20 DUP3 LT DUP2 EQ ISZERO PUSH2 0x5A5 JUMPI PUSH2 0x5A4 PUSH2 0x5E5 JUMP JUMPDEST JUMPDEST POP SWAP2 SWAP1 POP JUMP JUMPDEST PUSH1 0x0 PUSH2 0x5B7 DUP4 DUP4 PUSH2 0x5C7 JUMP JUMPDEST SWAP2 POP DUP3 PUSH1 0x2 MUL DUP3 OR SWAP1 POP SWAP3 SWAP2 POP POP JUMP JUMPDEST PUSH1 0x0 PUSH2 0x5D8 PUSH1 0x0 NOT DUP5 PUSH1 0x8 MUL PUSH2 0x6B6 JUMP JUMPDEST NOT DUP1 DUP4 AND SWAP2 POP POP SWAP3 SWAP2 POP POP JUMP JUMPDEST PUSH32 0x4E487B7100000000000000000000000000000000000000000000000000000000 PUSH1 0x0 MSTORE PUSH1 0x22 PUSH1 0x4 MSTORE PUSH1 0x24 PUSH1 0x0 REVERT JUMPDEST PUSH32 0x4E487B7100000000000000000000000000000000000000000000000000000000 PUSH1 0x0 MSTORE PUSH1 0x41 PUSH1 0x4 MSTORE PUSH1 0x24 PUSH1 0x0 REVERT JUMPDEST PUSH1 0x0 DUP2 SWAP1 POP SWAP2 SWAP1 POP JUMP JUMPDEST PUSH1 0x0 DUP2 SWAP1 POP SWAP2 SWAP1 POP JUMP JUMPDEST PUSH1 0x0 DUP2 CALLDATALOAD PUSH2 0x664 DUP2 PUSH2 0x7B6 JUMP JUMPDEST DUP1 SWAP2 POP POP SWAP2 SWAP1 POP JUMP JUMPDEST PUSH1 0x0 DUP1 REVERT JUMPDEST PUSH1 0x0 DUP1 REVERT JUMPDEST PUSH1 0x0 DUP1 REVERT JUMPDEST PUSH1 0x0 DUP1 REVERT JUMPDEST PUSH1 0x0 DUP1 REVERT JUMPDEST PUSH1 0x0 DUP1 REVERT JUMPDEST PUSH1 0x0 PUSH1 0x1F NOT PUSH1 0x1F DUP4 ADD AND SWAP1 POP SWAP2 SWAP1 POP JUMP JUMPDEST PUSH1 0x0 DUP2 PUSH1 0x0 SHL SWAP1 POP SWAP2 SWAP1 POP JUMP JUMPDEST PUSH1 0x0 DUP3 DUP3 SHL SWAP1 POP SWAP3 SWAP2 POP POP JUMP JUMPDEST PUSH1 0x0 DUP3 DUP3 SHR SWAP1 POP SWAP3 SWAP2 POP POP JUMP JUMPDEST PUSH2 0x6CB PUSH2 0x7E4 JUMP JUMPDEST PUSH2 0x6D6 DUP2 DUP5 DUP5 PUSH2 0x791 JUMP JUMPDEST POP POP POP JUMP JUMPDEST PUSH1 0x0 PUSH1 0xFF PUSH2 0x6E8 DUP5 PUSH2 0x69C JUMP JUMPDEST SWAP4 POP DUP1 NOT DUP4 AND SWAP3 POP DUP1 DUP5 AND DUP4 OR SWAP2 POP POP SWAP3 SWAP2 POP POP JUMP JUMPDEST PUSH1 0x0 PUSH1 0x8 DUP4 MUL PUSH2 0x72E PUSH32 0xFFFFFFFFFFFFFFFFFFFFFFFFFFFFFFFFFFFFFFFFFFFFFFFFFFFFFFFFFFFFFFFF DUP3 PUSH2 0x6A9 JUMP JUMPDEST PUSH2 0x738 DUP7 DUP4 PUSH2 0x6A9 JUMP JUMPDEST SWAP6 POP DUP1 NOT DUP5 AND SWAP4 POP DUP1 DUP7 AND DUP5 OR SWAP3 POP POP POP SWAP4 SWAP3 POP POP POP JUMP JUMPDEST PUSH2 0x759 DUP3 PUSH2 0x3FC JUMP JUMPDEST PUSH2 0x76C PUSH2 0x765 DUP3 PUSH2 0x643 JUMP JUMPDEST DUP4 SLOAD PUSH2 0x6DB JUMP JUMPDEST DUP3 SSTORE POP POP POP JUMP JUMPDEST PUSH2 0x77E DUP4 DUP4 DUP4 PUSH2 0x420 JUMP JUMPDEST POP POP POP JUMP JUMPDEST PUSH2 0x78D DUP3 DUP3 PUSH2 0x523 JUMP JUMPDEST POP POP JUMP JUMPDEST PUSH2 0x79A DUP4 PUSH2 0x40E JUMP JUMPDEST PUSH2 0x7AE PUSH2 0x7A6 DUP3 PUSH2 0x64D JUMP JUMPDEST DUP5 DUP5 SLOAD PUSH2 0x6FE JUMP JUMPDEST DUP3 SSTORE POP POP POP POP JUMP JUMPDEST PUSH2 0x7BF DUP2 PUSH2 0x3C3 JUMP JUMPDEST DUP2 EQ PUSH2 0x7CA JUMPI PUSH1 0x0 DUP1 REVERT JUMPDEST POP JUMP JUMPDEST PUSH2 0x7D6 DUP2 PUSH2 0x3CF JUMP JUMPDEST DUP2 EQ PUSH2 0x7E1 JUMPI PUSH1 0x0 DUP1 REVERT JUMPDEST POP JUMP JUMPDEST PUSH1 0x0 SWAP1 JUMP INVALID LOG2 PUSH5 0x6970667358 0x22 SLT KECCAK256 MULMOD GASLIMIT SWAP13 EQ 0xD4 0xC8 PUSH7 0xAFF092EAEE7104 PUSH11 0xF06CD6A7B6EBF44A2222D3 0x26 0xC9 DUP16 SWAP4 BLOCKHASH PUSH1 0x64 PUSH20 0x6F6C634300080700330000000000000000000000 "
				},
				"gasEstimates": {
					"creation": {
						"codeDepositCost": "415800",
						"executionCost": "449",
						"totalCost": "416249"
					},
					"external": {
						"create((string,bool))": "infinite",
						"get()": "144",
						"todos(uint256)": "infinite",
						"updateText()": "188"
					}
				},
				"methodIdentifiers": {
					"create((string,bool))": "5cce26f1",
					"get()": "6d4ce63c",
					"todos(uint256)": "bc8bc2b4",
					"updateText()": "fee10aee"
				}
			},
			"storageLayout": {
				"storage": [
					{
						"astId": 10,
						"contract": "HelloWorld.sol:SimpleStorage",
						"label": "todos",
						"offset": 0,
						"slot": "0",
						"type": "t_array(t_struct(Todo)6_storage)dyn_storage"
					}
				],
				"types": {
					"t_array(t_struct(Todo)6_storage)dyn_storage": {
						"base": "t_struct(Todo)6_storage",
						"encoding": "dynamic_array",
						"label": "struct SimpleStorage.Todo[]",
						"numberOfBytes": "32"
					},
					"t_bool": {
						"encoding": "inplace",
						"label": "bool",
						"numberOfBytes": "1"
					},
					"t_string_storage": {
						"encoding": "bytes",
						"label": "string",
						"numberOfBytes": "32"
					},
					"t_struct(Todo)6_storage": {
						"encoding": "inplace",
						"label": "struct SimpleStorage.Todo",
						"members": [
							{
								"astId": 3,
								"contract": "HelloWorld.sol:SimpleStorage",
								"label": "text",
								"offset": 0,
								"slot": "0",
								"type": "t_string_storage"
							},
							{
								"astId": 5,
								"contract": "HelloWorld.sol:SimpleStorage",
								"label": "completed",
								"offset": 0,
								"slot": "1",
								"type": "t_bool"
							}
						],
						"numberOfBytes": "64"
					}
				}
			},
			"userdoc": {
				"kind": "user",
				"methods": {},
				"version": 1
			}
		}
	}
}