{
	"FeeCollector.sol": {
		"FeeCollector": {
			"abi": [
				{
					"inputs": [],
					"stateMutability": "nonpayable",
					"type": "constructor"
				},
				{
					"inputs": [],
					"name": "balance",
					"outputs": [
						{
							"internalType": "uint256",
							"name": "",
							"type": "uint256"
						}
					],
					"stateMutability": "view",
					"type": "function"
				},
				{
					"inputs": [
						{
							"internalType": "address",
							"name": "",
							"type": "address"
						}
					],
					"name": "balances",
					"outputs": [
						{
							"internalType": "int256",
							"name": "",
							"type": "int256"
						}
					],
					"stateMutability": "view",
					"type": "function"
				},
				{
					"inputs": [
						{
							"internalType": "address",
							"name": "",
							"type": "address"
						}
					],
					"name": "inserted",
					"outputs": [
						{
							"internalType": "bool",
							"name": "",
							"type": "bool"
						}
					],
					"stateMutability": "view",
					"type": "function"
				},
				{
					"inputs": [],
					"name": "owner",
					"outputs": [
						{
							"internalType": "address",
							"name": "",
							"type": "address"
						}
					],
					"stateMutability": "view",
					"type": "function"
				},
				{
					"inputs": [
						{
							"internalType": "uint256",
							"name": "amount",
							"type": "uint256"
						},
						{
							"internalType": "address payable",
							"name": "destAddr",
							"type": "address"
						}
					],
					"name": "withdraw",
					"outputs": [],
					"stateMutability": "nonpayable",
					"type": "function"
				},
				{
					"stateMutability": "payable",
					"type": "receive"
				}
			],
			"devdoc": {
				"kind": "dev",
				"methods": {},
				"version": 1
			},
			"evm": {
				"assembly": "    /* \"FeeCollector.sol\":57:691  contract FeeCollector {... */\n  mstore(0x40, 0x80)\n    /* \"FeeCollector.sol\":245:294  constructor() {... */\n  callvalue\n  dup1\n  iszero\n  tag_1\n  jumpi\n  0x00\n  dup1\n  revert\ntag_1:\n  pop\n    /* \"FeeCollector.sol\":277:287  msg.sender */\n  caller\n    /* \"FeeCollector.sol\":269:274  owner */\n  0x00\n  dup1\n    /* \"FeeCollector.sol\":269:287  owner = msg.sender */\n  0x0100\n  exp\n  dup2\n  sload\n  dup2\n  0xffffffffffffffffffffffffffffffffffffffff\n  mul\n  not\n  and\n  swap1\n  dup4\n  0xffffffffffffffffffffffffffffffffffffffff\n  and\n  mul\n  or\n  swap1\n  sstore\n  pop\n    /* \"FeeCollector.sol\":57:691  contract FeeCollector {... */\n  dataSize(sub_0)\n  dup1\n  dataOffset(sub_0)\n  0x00\n  codecopy\n  0x00\n  return\nstop\n\nsub_0: assembly {\n        /* \"FeeCollector.sol\":57:691  contract FeeCollector {... */\n      mstore(0x40, 0x80)\n      jumpi(tag_1, lt(calldatasize, 0x04))\n      shr(0xe0, calldataload(0x00))\n      dup1\n      0xf714ce\n      eq\n      tag_3\n      jumpi\n      dup1\n      0x27e235e3\n      eq\n      tag_4\n      jumpi\n      dup1\n      0x7cd380f1\n      eq\n      tag_5\n      jumpi\n      dup1\n      0x8da5cb5b\n      eq\n      tag_6\n      jumpi\n      dup1\n      0xb69ef8a8\n      eq\n      tag_7\n      jumpi\n      jump(tag_2)\n    tag_1:\n      jumpi(tag_2, calldatasize)\n        /* \"FeeCollector.sol\":348:357  msg.value */\n      callvalue\n        /* \"FeeCollector.sol\":337:344  balance */\n      0x01\n      0x00\n        /* \"FeeCollector.sol\":337:357  balance += msg.value */\n      dup3\n      dup3\n      sload\n      tag_10\n      swap2\n      swap1\n      tag_11\n      jump\t// in\n    tag_10:\n      swap3\n      pop\n      pop\n      dup2\n      swap1\n      sstore\n      stop\n        /* \"FeeCollector.sol\":57:691  contract FeeCollector {... */\n    tag_2:\n      0x00\n      dup1\n      revert\n        /* \"FeeCollector.sol\":543:689  function withdraw(uint amount, address payable destAddr) public Auth(amount) {... */\n    tag_3:\n      callvalue\n      dup1\n      iszero\n      tag_12\n      jumpi\n      0x00\n      dup1\n      revert\n    tag_12:\n      pop\n      tag_13\n      0x04\n      dup1\n      calldatasize\n      sub\n      dup2\n      add\n      swap1\n      tag_14\n      swap2\n      swap1\n      tag_15\n      jump\t// in\n    tag_14:\n      tag_16\n      jump\t// in\n    tag_13:\n      stop\n        /* \"FeeCollector.sol\":140:182  mapping(address => int256) public balances */\n    tag_4:\n      callvalue\n      dup1\n      iszero\n      tag_17\n      jumpi\n      0x00\n      dup1\n      revert\n    tag_17:\n      pop\n      tag_18\n      0x04\n      dup1\n      calldatasize\n      sub\n      dup2\n      add\n      swap1\n      tag_19\n      swap2\n      swap1\n      tag_20\n      jump\t// in\n    tag_19:\n      tag_21\n      jump\t// in\n    tag_18:\n      mload(0x40)\n      tag_22\n      swap2\n      swap1\n      tag_23\n      jump\t// in\n    tag_22:\n      mload(0x40)\n      dup1\n      swap2\n      sub\n      swap1\n      return\n        /* \"FeeCollector.sol\":188:228  mapping(address => bool) public inserted */\n    tag_5:\n      callvalue\n      dup1\n      iszero\n      tag_24\n      jumpi\n      0x00\n      dup1\n      revert\n    tag_24:\n      pop\n      tag_25\n      0x04\n      dup1\n      calldatasize\n      sub\n      dup2\n      add\n      swap1\n      tag_26\n      swap2\n      swap1\n      tag_20\n      jump\t// in\n    tag_26:\n      tag_27\n      jump\t// in\n    tag_25:\n      mload(0x40)\n      tag_28\n      swap2\n      swap1\n      tag_29\n      jump\t// in\n    tag_28:\n      mload(0x40)\n      dup1\n      swap2\n      sub\n      swap1\n      return\n        /* \"FeeCollector.sol\":85:105  address public owner */\n    tag_6:\n      callvalue\n      dup1\n      iszero\n      tag_30\n      jumpi\n      0x00\n      dup1\n      revert\n    tag_30:\n      pop\n      tag_31\n      tag_32\n      jump\t// in\n    tag_31:\n      mload(0x40)\n      tag_33\n      swap2\n      swap1\n      tag_34\n      jump\t// in\n    tag_33:\n      mload(0x40)\n      dup1\n      swap2\n      sub\n      swap1\n      return\n        /* \"FeeCollector.sol\":111:133  uint256 public balance */\n    tag_7:\n      callvalue\n      dup1\n      iszero\n      tag_35\n      jumpi\n      0x00\n      dup1\n      revert\n    tag_35:\n      pop\n      tag_36\n      tag_37\n      jump\t// in\n    tag_36:\n      mload(0x40)\n      tag_38\n      swap2\n      swap1\n      tag_39\n      jump\t// in\n    tag_38:\n      mload(0x40)\n      dup1\n      swap2\n      sub\n      swap1\n      return\n        /* \"FeeCollector.sol\":543:689  function withdraw(uint amount, address payable destAddr) public Auth(amount) {... */\n    tag_16:\n        /* \"FeeCollector.sol\":612:618  amount */\n      dup2\n        /* \"FeeCollector.sol\":429:434  owner */\n      0x00\n      dup1\n      sload\n      swap1\n      0x0100\n      exp\n      swap1\n      div\n      0xffffffffffffffffffffffffffffffffffffffff\n      and\n        /* \"FeeCollector.sol\":415:434  msg.sender == owner */\n      0xffffffffffffffffffffffffffffffffffffffff\n      and\n        /* \"FeeCollector.sol\":415:425  msg.sender */\n      caller\n        /* \"FeeCollector.sol\":415:434  msg.sender == owner */\n      0xffffffffffffffffffffffffffffffffffffffff\n      and\n      eq\n        /* \"FeeCollector.sol\":407:462  require(msg.sender == owner, \"Only owner can withdraw\") */\n      tag_41\n      jumpi\n      mload(0x40)\n      0x08c379a000000000000000000000000000000000000000000000000000000000\n      dup2\n      mstore\n      0x04\n      add\n      tag_42\n      swap1\n      tag_43\n      jump\t// in\n    tag_42:\n      mload(0x40)\n      dup1\n      swap2\n      sub\n      swap1\n      revert\n    tag_41:\n        /* \"FeeCollector.sol\":490:497  balance */\n      sload(0x01)\n        /* \"FeeCollector.sol\":480:486  amount */\n      dup2\n        /* \"FeeCollector.sol\":480:497  amount <= balance */\n      gt\n      iszero\n        /* \"FeeCollector.sol\":472:519  require(amount <= balance, \"Insufficent funds\") */\n      tag_44\n      jumpi\n      mload(0x40)\n      0x08c379a000000000000000000000000000000000000000000000000000000000\n      dup2\n      mstore\n      0x04\n      add\n      tag_45\n      swap1\n      tag_46\n      jump\t// in\n    tag_45:\n      mload(0x40)\n      dup1\n      swap2\n      sub\n      swap1\n      revert\n    tag_44:\n        /* \"FeeCollector.sol\":630:638  destAddr */\n      dup2\n        /* \"FeeCollector.sol\":630:647  destAddr.transfer */\n      0xffffffffffffffffffffffffffffffffffffffff\n      and\n        /* \"FeeCollector.sol\":630:655  destAddr.transfer(amount) */\n      0x08fc\n        /* \"FeeCollector.sol\":648:654  amount */\n      dup5\n        /* \"FeeCollector.sol\":630:655  destAddr.transfer(amount) */\n      swap1\n      dup2\n      iszero\n      mul\n      swap1\n      mload(0x40)\n      0x00\n      mload(0x40)\n      dup1\n      dup4\n      sub\n      dup2\n      dup6\n      dup9\n      dup9\n      call\n      swap4\n      pop\n      pop\n      pop\n      pop\n      iszero\n      dup1\n      iszero\n      tag_49\n      jumpi\n      returndatasize\n      0x00\n      dup1\n      returndatacopy\n      revert(0x00, returndatasize)\n    tag_49:\n      pop\n        /* \"FeeCollector.sol\":676:682  amount */\n      dup3\n        /* \"FeeCollector.sol\":665:672  balance */\n      0x01\n      0x00\n        /* \"FeeCollector.sol\":665:682  balance -= amount */\n      dup3\n      dup3\n      sload\n      tag_50\n      swap2\n      swap1\n      tag_51\n      jump\t// in\n    tag_50:\n      swap3\n      pop\n      pop\n      dup2\n      swap1\n      sstore\n      pop\n        /* \"FeeCollector.sol\":543:689  function withdraw(uint amount, address payable destAddr) public Auth(amount) {... */\n      pop\n      pop\n      pop\n      jump\t// out\n        /* \"FeeCollector.sol\":140:182  mapping(address => int256) public balances */\n    tag_21:\n      mstore(0x20, 0x02)\n      dup1\n      0x00\n      mstore\n      keccak256(0x00, 0x40)\n      0x00\n      swap2\n      pop\n      swap1\n      pop\n      sload\n      dup2\n      jump\t// out\n        /* \"FeeCollector.sol\":188:228  mapping(address => bool) public inserted */\n    tag_27:\n      mstore(0x20, 0x03)\n      dup1\n      0x00\n      mstore\n      keccak256(0x00, 0x40)\n      0x00\n      swap2\n      pop\n      sload\n      swap1\n      0x0100\n      exp\n      swap1\n      div\n      0xff\n      and\n      dup2\n      jump\t// out\n        /* \"FeeCollector.sol\":85:105  address public owner */\n    tag_32:\n      0x00\n      dup1\n      sload\n      swap1\n      0x0100\n      exp\n      swap1\n      div\n      0xffffffffffffffffffffffffffffffffffffffff\n      and\n      dup2\n      jump\t// out\n        /* \"FeeCollector.sol\":111:133  uint256 public balance */\n    tag_37:\n      sload(0x01)\n      dup2\n      jump\t// out\n        /* \"#utility.yul\":7:84   */\n    tag_52:\n        /* \"#utility.yul\":44:51   */\n      0x00\n        /* \"#utility.yul\":73:78   */\n      dup2\n        /* \"#utility.yul\":62:78   */\n      swap1\n      pop\n        /* \"#utility.yul\":7:84   */\n      swap2\n      swap1\n      pop\n      jump\t// out\n        /* \"#utility.yul\":90:270   */\n    tag_53:\n        /* \"#utility.yul\":138:215   */\n      0x4e487b7100000000000000000000000000000000000000000000000000000000\n        /* \"#utility.yul\":135:136   */\n      0x00\n        /* \"#utility.yul\":128:216   */\n      mstore\n        /* \"#utility.yul\":235:239   */\n      0x11\n        /* \"#utility.yul\":232:233   */\n      0x04\n        /* \"#utility.yul\":225:240   */\n      mstore\n        /* \"#utility.yul\":259:263   */\n      0x24\n        /* \"#utility.yul\":256:257   */\n      0x00\n        /* \"#utility.yul\":249:264   */\n      revert\n        /* \"#utility.yul\":276:467   */\n    tag_11:\n        /* \"#utility.yul\":316:319   */\n      0x00\n        /* \"#utility.yul\":335:355   */\n      tag_81\n        /* \"#utility.yul\":353:354   */\n      dup3\n        /* \"#utility.yul\":335:355   */\n      tag_52\n      jump\t// in\n    tag_81:\n        /* \"#utility.yul\":330:355   */\n      swap2\n      pop\n        /* \"#utility.yul\":369:389   */\n      tag_82\n        /* \"#utility.yul\":387:388   */\n      dup4\n        /* \"#utility.yul\":369:389   */\n      tag_52\n      jump\t// in\n    tag_82:\n        /* \"#utility.yul\":364:389   */\n      swap3\n      pop\n        /* \"#utility.yul\":412:413   */\n      dup3\n        /* \"#utility.yul\":409:410   */\n      dup3\n        /* \"#utility.yul\":405:414   */\n      add\n        /* \"#utility.yul\":398:414   */\n      swap1\n      pop\n        /* \"#utility.yul\":433:436   */\n      dup1\n        /* \"#utility.yul\":430:431   */\n      dup3\n        /* \"#utility.yul\":427:437   */\n      gt\n        /* \"#utility.yul\":424:460   */\n      iszero\n      tag_83\n      jumpi\n        /* \"#utility.yul\":440:458   */\n      tag_84\n      tag_53\n      jump\t// in\n    tag_84:\n        /* \"#utility.yul\":424:460   */\n    tag_83:\n        /* \"#utility.yul\":276:467   */\n      swap3\n      swap2\n      pop\n      pop\n      jump\t// out\n        /* \"#utility.yul\":554:671   */\n    tag_55:\n        /* \"#utility.yul\":663:664   */\n      0x00\n        /* \"#utility.yul\":660:661   */\n      dup1\n        /* \"#utility.yul\":653:665   */\n      revert\n        /* \"#utility.yul\":800:922   */\n    tag_57:\n        /* \"#utility.yul\":873:897   */\n      tag_89\n        /* \"#utility.yul\":891:896   */\n      dup2\n        /* \"#utility.yul\":873:897   */\n      tag_52\n      jump\t// in\n    tag_89:\n        /* \"#utility.yul\":866:871   */\n      dup2\n        /* \"#utility.yul\":863:898   */\n      eq\n        /* \"#utility.yul\":853:916   */\n      tag_90\n      jumpi\n        /* \"#utility.yul\":912:913   */\n      0x00\n        /* \"#utility.yul\":909:910   */\n      dup1\n        /* \"#utility.yul\":902:914   */\n      revert\n        /* \"#utility.yul\":853:916   */\n    tag_90:\n        /* \"#utility.yul\":800:922   */\n      pop\n      jump\t// out\n        /* \"#utility.yul\":928:1067   */\n    tag_58:\n        /* \"#utility.yul\":974:979   */\n      0x00\n        /* \"#utility.yul\":1012:1018   */\n      dup2\n        /* \"#utility.yul\":999:1019   */\n      calldataload\n        /* \"#utility.yul\":990:1019   */\n      swap1\n      pop\n        /* \"#utility.yul\":1028:1061   */\n      tag_92\n        /* \"#utility.yul\":1055:1060   */\n      dup2\n        /* \"#utility.yul\":1028:1061   */\n      tag_57\n      jump\t// in\n    tag_92:\n        /* \"#utility.yul\":928:1067   */\n      swap3\n      swap2\n      pop\n      pop\n      jump\t// out\n        /* \"#utility.yul\":1073:1199   */\n    tag_59:\n        /* \"#utility.yul\":1110:1117   */\n      0x00\n        /* \"#utility.yul\":1150:1192   */\n      0xffffffffffffffffffffffffffffffffffffffff\n        /* \"#utility.yul\":1143:1148   */\n      dup3\n        /* \"#utility.yul\":1139:1193   */\n      and\n        /* \"#utility.yul\":1128:1193   */\n      swap1\n      pop\n        /* \"#utility.yul\":1073:1199   */\n      swap2\n      swap1\n      pop\n      jump\t// out\n        /* \"#utility.yul\":1205:1309   */\n    tag_60:\n        /* \"#utility.yul\":1250:1257   */\n      0x00\n        /* \"#utility.yul\":1279:1303   */\n      tag_95\n        /* \"#utility.yul\":1297:1302   */\n      dup3\n        /* \"#utility.yul\":1279:1303   */\n      tag_59\n      jump\t// in\n    tag_95:\n        /* \"#utility.yul\":1268:1303   */\n      swap1\n      pop\n        /* \"#utility.yul\":1205:1309   */\n      swap2\n      swap1\n      pop\n      jump\t// out\n        /* \"#utility.yul\":1315:1453   */\n    tag_61:\n        /* \"#utility.yul\":1396:1428   */\n      tag_97\n        /* \"#utility.yul\":1422:1427   */\n      dup2\n        /* \"#utility.yul\":1396:1428   */\n      tag_60\n      jump\t// in\n    tag_97:\n        /* \"#utility.yul\":1389:1394   */\n      dup2\n        /* \"#utility.yul\":1386:1429   */\n      eq\n        /* \"#utility.yul\":1376:1447   */\n      tag_98\n      jumpi\n        /* \"#utility.yul\":1443:1444   */\n      0x00\n        /* \"#utility.yul\":1440:1441   */\n      dup1\n        /* \"#utility.yul\":1433:1445   */\n      revert\n        /* \"#utility.yul\":1376:1447   */\n    tag_98:\n        /* \"#utility.yul\":1315:1453   */\n      pop\n      jump\t// out\n        /* \"#utility.yul\":1459:1614   */\n    tag_62:\n        /* \"#utility.yul\":1513:1518   */\n      0x00\n        /* \"#utility.yul\":1551:1557   */\n      dup2\n        /* \"#utility.yul\":1538:1558   */\n      calldataload\n        /* \"#utility.yul\":1529:1558   */\n      swap1\n      pop\n        /* \"#utility.yul\":1567:1608   */\n      tag_100\n        /* \"#utility.yul\":1602:1607   */\n      dup2\n        /* \"#utility.yul\":1567:1608   */\n      tag_61\n      jump\t// in\n    tag_100:\n        /* \"#utility.yul\":1459:1614   */\n      swap3\n      swap2\n      pop\n      pop\n      jump\t// out\n        /* \"#utility.yul\":1620:2110   */\n    tag_15:\n        /* \"#utility.yul\":1696:1702   */\n      0x00\n        /* \"#utility.yul\":1704:1710   */\n      dup1\n        /* \"#utility.yul\":1753:1755   */\n      0x40\n        /* \"#utility.yul\":1741:1750   */\n      dup4\n        /* \"#utility.yul\":1732:1739   */\n      dup6\n        /* \"#utility.yul\":1728:1751   */\n      sub\n        /* \"#utility.yul\":1724:1756   */\n      slt\n        /* \"#utility.yul\":1721:1840   */\n      iszero\n      tag_102\n      jumpi\n        /* \"#utility.yul\":1759:1838   */\n      tag_103\n      tag_55\n      jump\t// in\n    tag_103:\n        /* \"#utility.yul\":1721:1840   */\n    tag_102:\n        /* \"#utility.yul\":1879:1880   */\n      0x00\n        /* \"#utility.yul\":1904:1957   */\n      tag_104\n        /* \"#utility.yul\":1949:1956   */\n      dup6\n        /* \"#utility.yul\":1940:1946   */\n      dup3\n        /* \"#utility.yul\":1929:1938   */\n      dup7\n        /* \"#utility.yul\":1925:1947   */\n      add\n        /* \"#utility.yul\":1904:1957   */\n      tag_58\n      jump\t// in\n    tag_104:\n        /* \"#utility.yul\":1894:1957   */\n      swap3\n      pop\n        /* \"#utility.yul\":1850:1967   */\n      pop\n        /* \"#utility.yul\":2006:2008   */\n      0x20\n        /* \"#utility.yul\":2032:2093   */\n      tag_105\n        /* \"#utility.yul\":2085:2092   */\n      dup6\n        /* \"#utility.yul\":2076:2082   */\n      dup3\n        /* \"#utility.yul\":2065:2074   */\n      dup7\n        /* \"#utility.yul\":2061:2083   */\n      add\n        /* \"#utility.yul\":2032:2093   */\n      tag_62\n      jump\t// in\n    tag_105:\n        /* \"#utility.yul\":2022:2093   */\n      swap2\n      pop\n        /* \"#utility.yul\":1977:2103   */\n      pop\n        /* \"#utility.yul\":1620:2110   */\n      swap3\n      pop\n      swap3\n      swap1\n      pop\n      jump\t// out\n        /* \"#utility.yul\":2116:2212   */\n    tag_63:\n        /* \"#utility.yul\":2153:2160   */\n      0x00\n        /* \"#utility.yul\":2182:2206   */\n      tag_107\n        /* \"#utility.yul\":2200:2205   */\n      dup3\n        /* \"#utility.yul\":2182:2206   */\n      tag_59\n      jump\t// in\n    tag_107:\n        /* \"#utility.yul\":2171:2206   */\n      swap1\n      pop\n        /* \"#utility.yul\":2116:2212   */\n      swap2\n      swap1\n      pop\n      jump\t// out\n        /* \"#utility.yul\":2218:2340   */\n    tag_64:\n        /* \"#utility.yul\":2291:2315   */\n      tag_109\n        /* \"#utility.yul\":2309:2314   */\n      dup2\n        /* \"#utility.yul\":2291:2315   */\n      tag_63\n      jump\t// in\n    tag_109:\n        /* \"#utility.yul\":2284:2289   */\n      dup2\n        /* \"#utility.yul\":2281:2316   */\n      eq\n        /* \"#utility.yul\":2271:2334   */\n      tag_110\n      jumpi\n        /* \"#utility.yul\":2330:2331   */\n      0x00\n        /* \"#utility.yul\":2327:2328   */\n      dup1\n        /* \"#utility.yul\":2320:2332   */\n      revert\n        /* \"#utility.yul\":2271:2334   */\n    tag_110:\n        /* \"#utility.yul\":2218:2340   */\n      pop\n      jump\t// out\n        /* \"#utility.yul\":2346:2485   */\n    tag_65:\n        /* \"#utility.yul\":2392:2397   */\n      0x00\n        /* \"#utility.yul\":2430:2436   */\n      dup2\n        /* \"#utility.yul\":2417:2437   */\n      calldataload\n        /* \"#utility.yul\":2408:2437   */\n      swap1\n      pop\n        /* \"#utility.yul\":2446:2479   */\n      tag_112\n        /* \"#utility.yul\":2473:2478   */\n      dup2\n        /* \"#utility.yul\":2446:2479   */\n      tag_64\n      jump\t// in\n    tag_112:\n        /* \"#utility.yul\":2346:2485   */\n      swap3\n      swap2\n      pop\n      pop\n      jump\t// out\n        /* \"#utility.yul\":2491:2820   */\n    tag_20:\n        /* \"#utility.yul\":2550:2556   */\n      0x00\n        /* \"#utility.yul\":2599:2601   */\n      0x20\n        /* \"#utility.yul\":2587:2596   */\n      dup3\n        /* \"#utility.yul\":2578:2585   */\n      dup5\n        /* \"#utility.yul\":2574:2597   */\n      sub\n        /* \"#utility.yul\":2570:2602   */\n      slt\n        /* \"#utility.yul\":2567:2686   */\n      iszero\n      tag_114\n      jumpi\n        /* \"#utility.yul\":2605:2684   */\n      tag_115\n      tag_55\n      jump\t// in\n    tag_115:\n        /* \"#utility.yul\":2567:2686   */\n    tag_114:\n        /* \"#utility.yul\":2725:2726   */\n      0x00\n        /* \"#utility.yul\":2750:2803   */\n      tag_116\n        /* \"#utility.yul\":2795:2802   */\n      dup5\n        /* \"#utility.yul\":2786:2792   */\n      dup3\n        /* \"#utility.yul\":2775:2784   */\n      dup6\n        /* \"#utility.yul\":2771:2793   */\n      add\n        /* \"#utility.yul\":2750:2803   */\n      tag_65\n      jump\t// in\n    tag_116:\n        /* \"#utility.yul\":2740:2803   */\n      swap2\n      pop\n        /* \"#utility.yul\":2696:2813   */\n      pop\n        /* \"#utility.yul\":2491:2820   */\n      swap3\n      swap2\n      pop\n      pop\n      jump\t// out\n        /* \"#utility.yul\":2826:2902   */\n    tag_66:\n        /* \"#utility.yul\":2862:2869   */\n      0x00\n        /* \"#utility.yul\":2891:2896   */\n      dup2\n        /* \"#utility.yul\":2880:2896   */\n      swap1\n      pop\n        /* \"#utility.yul\":2826:2902   */\n      swap2\n      swap1\n      pop\n      jump\t// out\n        /* \"#utility.yul\":2908:3023   */\n    tag_67:\n        /* \"#utility.yul\":2993:3016   */\n      tag_119\n        /* \"#utility.yul\":3010:3015   */\n      dup2\n        /* \"#utility.yul\":2993:3016   */\n      tag_66\n      jump\t// in\n    tag_119:\n        /* \"#utility.yul\":2988:2991   */\n      dup3\n        /* \"#utility.yul\":2981:3017   */\n      mstore\n        /* \"#utility.yul\":2908:3023   */\n      pop\n      pop\n      jump\t// out\n        /* \"#utility.yul\":3029:3247   */\n    tag_23:\n        /* \"#utility.yul\":3120:3124   */\n      0x00\n        /* \"#utility.yul\":3158:3160   */\n      0x20\n        /* \"#utility.yul\":3147:3156   */\n      dup3\n        /* \"#utility.yul\":3143:3161   */\n      add\n        /* \"#utility.yul\":3135:3161   */\n      swap1\n      pop\n        /* \"#utility.yul\":3171:3240   */\n      tag_121\n        /* \"#utility.yul\":3237:3238   */\n      0x00\n        /* \"#utility.yul\":3226:3235   */\n      dup4\n        /* \"#utility.yul\":3222:3239   */\n      add\n        /* \"#utility.yul\":3213:3219   */\n      dup5\n        /* \"#utility.yul\":3171:3240   */\n      tag_67\n      jump\t// in\n    tag_121:\n        /* \"#utility.yul\":3029:3247   */\n      swap3\n      swap2\n      pop\n      pop\n      jump\t// out\n        /* \"#utility.yul\":3253:3343   */\n    tag_68:\n        /* \"#utility.yul\":3287:3294   */\n      0x00\n        /* \"#utility.yul\":3330:3335   */\n      dup2\n        /* \"#utility.yul\":3323:3336   */\n      iszero\n        /* \"#utility.yul\":3316:3337   */\n      iszero\n        /* \"#utility.yul\":3305:3337   */\n      swap1\n      pop\n        /* \"#utility.yul\":3253:3343   */\n      swap2\n      swap1\n      pop\n      jump\t// out\n        /* \"#utility.yul\":3349:3458   */\n    tag_69:\n        /* \"#utility.yul\":3430:3451   */\n      tag_124\n        /* \"#utility.yul\":3445:3450   */\n      dup2\n        /* \"#utility.yul\":3430:3451   */\n      tag_68\n      jump\t// in\n    tag_124:\n        /* \"#utility.yul\":3425:3428   */\n      dup3\n        /* \"#utility.yul\":3418:3452   */\n      mstore\n        /* \"#utility.yul\":3349:3458   */\n      pop\n      pop\n      jump\t// out\n        /* \"#utility.yul\":3464:3674   */\n    tag_29:\n        /* \"#utility.yul\":3551:3555   */\n      0x00\n        /* \"#utility.yul\":3589:3591   */\n      0x20\n        /* \"#utility.yul\":3578:3587   */\n      dup3\n        /* \"#utility.yul\":3574:3592   */\n      add\n        /* \"#utility.yul\":3566:3592   */\n      swap1\n      pop\n        /* \"#utility.yul\":3602:3667   */\n      tag_126\n        /* \"#utility.yul\":3664:3665   */\n      0x00\n        /* \"#utility.yul\":3653:3662   */\n      dup4\n        /* \"#utility.yul\":3649:3666   */\n      add\n        /* \"#utility.yul\":3640:3646   */\n      dup5\n        /* \"#utility.yul\":3602:3667   */\n      tag_69\n      jump\t// in\n    tag_126:\n        /* \"#utility.yul\":3464:3674   */\n      swap3\n      swap2\n      pop\n      pop\n      jump\t// out\n        /* \"#utility.yul\":3680:3798   */\n    tag_70:\n        /* \"#utility.yul\":3767:3791   */\n      tag_128\n        /* \"#utility.yul\":3785:3790   */\n      dup2\n        /* \"#utility.yul\":3767:3791   */\n      tag_63\n      jump\t// in\n    tag_128:\n        /* \"#utility.yul\":3762:3765   */\n      dup3\n        /* \"#utility.yul\":3755:3792   */\n      mstore\n        /* \"#utility.yul\":3680:3798   */\n      pop\n      pop\n      jump\t// out\n        /* \"#utility.yul\":3804:4026   */\n    tag_34:\n        /* \"#utility.yul\":3897:3901   */\n      0x00\n        /* \"#utility.yul\":3935:3937   */\n      0x20\n        /* \"#utility.yul\":3924:3933   */\n      dup3\n        /* \"#utility.yul\":3920:3938   */\n      add\n        /* \"#utility.yul\":3912:3938   */\n      swap1\n      pop\n        /* \"#utility.yul\":3948:4019   */\n      tag_130\n        /* \"#utility.yul\":4016:4017   */\n      0x00\n        /* \"#utility.yul\":4005:4014   */\n      dup4\n        /* \"#utility.yul\":4001:4018   */\n      add\n        /* \"#utility.yul\":3992:3998   */\n      dup5\n        /* \"#utility.yul\":3948:4019   */\n      tag_70\n      jump\t// in\n    tag_130:\n        /* \"#utility.yul\":3804:4026   */\n      swap3\n      swap2\n      pop\n      pop\n      jump\t// out\n        /* \"#utility.yul\":4032:4150   */\n    tag_71:\n        /* \"#utility.yul\":4119:4143   */\n      tag_132\n        /* \"#utility.yul\":4137:4142   */\n      dup2\n        /* \"#utility.yul\":4119:4143   */\n      tag_52\n      jump\t// in\n    tag_132:\n        /* \"#utility.yul\":4114:4117   */\n      dup3\n        /* \"#utility.yul\":4107:4144   */\n      mstore\n        /* \"#utility.yul\":4032:4150   */\n      pop\n      pop\n      jump\t// out\n        /* \"#utility.yul\":4156:4378   */\n    tag_39:\n        /* \"#utility.yul\":4249:4253   */\n      0x00\n        /* \"#utility.yul\":4287:4289   */\n      0x20\n        /* \"#utility.yul\":4276:4285   */\n      dup3\n        /* \"#utility.yul\":4272:4290   */\n      add\n        /* \"#utility.yul\":4264:4290   */\n      swap1\n      pop\n        /* \"#utility.yul\":4300:4371   */\n      tag_134\n        /* \"#utility.yul\":4368:4369   */\n      0x00\n        /* \"#utility.yul\":4357:4366   */\n      dup4\n        /* \"#utility.yul\":4353:4370   */\n      add\n        /* \"#utility.yul\":4344:4350   */\n      dup5\n        /* \"#utility.yul\":4300:4371   */\n      tag_71\n      jump\t// in\n    tag_134:\n        /* \"#utility.yul\":4156:4378   */\n      swap3\n      swap2\n      pop\n      pop\n      jump\t// out\n        /* \"#utility.yul\":4384:4553   */\n    tag_72:\n        /* \"#utility.yul\":4468:4479   */\n      0x00\n        /* \"#utility.yul\":4502:4508   */\n      dup3\n        /* \"#utility.yul\":4497:4500   */\n      dup3\n        /* \"#utility.yul\":4490:4509   */\n      mstore\n        /* \"#utility.yul\":4542:4546   */\n      0x20\n        /* \"#utility.yul\":4537:4540   */\n      dup3\n        /* \"#utility.yul\":4533:4547   */\n      add\n        /* \"#utility.yul\":4518:4547   */\n      swap1\n      pop\n        /* \"#utility.yul\":4384:4553   */\n      swap3\n      swap2\n      pop\n      pop\n      jump\t// out\n        /* \"#utility.yul\":4559:4732   */\n    tag_73:\n        /* \"#utility.yul\":4699:4724   */\n      0x4f6e6c79206f776e65722063616e207769746864726177000000000000000000\n        /* \"#utility.yul\":4695:4696   */\n      0x00\n        /* \"#utility.yul\":4687:4693   */\n      dup3\n        /* \"#utility.yul\":4683:4697   */\n      add\n        /* \"#utility.yul\":4676:4725   */\n      mstore\n        /* \"#utility.yul\":4559:4732   */\n      pop\n      jump\t// out\n        /* \"#utility.yul\":4738:5104   */\n    tag_74:\n        /* \"#utility.yul\":4880:4883   */\n      0x00\n        /* \"#utility.yul\":4901:4968   */\n      tag_138\n        /* \"#utility.yul\":4965:4967   */\n      0x17\n        /* \"#utility.yul\":4960:4963   */\n      dup4\n        /* \"#utility.yul\":4901:4968   */\n      tag_72\n      jump\t// in\n    tag_138:\n        /* \"#utility.yul\":4894:4968   */\n      swap2\n      pop\n        /* \"#utility.yul\":4977:5070   */\n      tag_139\n        /* \"#utility.yul\":5066:5069   */\n      dup3\n        /* \"#utility.yul\":4977:5070   */\n      tag_73\n      jump\t// in\n    tag_139:\n        /* \"#utility.yul\":5095:5097   */\n      0x20\n        /* \"#utility.yul\":5090:5093   */\n      dup3\n        /* \"#utility.yul\":5086:5098   */\n      add\n        /* \"#utility.yul\":5079:5098   */\n      swap1\n      pop\n        /* \"#utility.yul\":4738:5104   */\n      swap2\n      swap1\n      pop\n      jump\t// out\n        /* \"#utility.yul\":5110:5529   */\n    tag_43:\n        /* \"#utility.yul\":5276:5280   */\n      0x00\n        /* \"#utility.yul\":5314:5316   */\n      0x20\n        /* \"#utility.yul\":5303:5312   */\n      dup3\n        /* \"#utility.yul\":5299:5317   */\n      add\n        /* \"#utility.yul\":5291:5317   */\n      swap1\n      pop\n        /* \"#utility.yul\":5363:5372   */\n      dup2\n        /* \"#utility.yul\":5357:5361   */\n      dup2\n        /* \"#utility.yul\":5353:5373   */\n      sub\n        /* \"#utility.yul\":5349:5350   */\n      0x00\n        /* \"#utility.yul\":5338:5347   */\n      dup4\n        /* \"#utility.yul\":5334:5351   */\n      add\n        /* \"#utility.yul\":5327:5374   */\n      mstore\n        /* \"#utility.yul\":5391:5522   */\n      tag_141\n        /* \"#utility.yul\":5517:5521   */\n      dup2\n        /* \"#utility.yul\":5391:5522   */\n      tag_74\n      jump\t// in\n    tag_141:\n        /* \"#utility.yul\":5383:5522   */\n      swap1\n      pop\n        /* \"#utility.yul\":5110:5529   */\n      swap2\n      swap1\n      pop\n      jump\t// out\n        /* \"#utility.yul\":5535:5702   */\n    tag_75:\n        /* \"#utility.yul\":5675:5694   */\n      0x496e737566666963656e742066756e6473000000000000000000000000000000\n        /* \"#utility.yul\":5671:5672   */\n      0x00\n        /* \"#utility.yul\":5663:5669   */\n      dup3\n        /* \"#utility.yul\":5659:5673   */\n      add\n        /* \"#utility.yul\":5652:5695   */\n      mstore\n        /* \"#utility.yul\":5535:5702   */\n      pop\n      jump\t// out\n        /* \"#utility.yul\":5708:6074   */\n    tag_76:\n        /* \"#utility.yul\":5850:5853   */\n      0x00\n        /* \"#utility.yul\":5871:5938   */\n      tag_144\n        /* \"#utility.yul\":5935:5937   */\n      0x11\n        /* \"#utility.yul\":5930:5933   */\n      dup4\n        /* \"#utility.yul\":5871:5938   */\n      tag_72\n      jump\t// in\n    tag_144:\n        /* \"#utility.yul\":5864:5938   */\n      swap2\n      pop\n        /* \"#utility.yul\":5947:6040   */\n      tag_145\n        /* \"#utility.yul\":6036:6039   */\n      dup3\n        /* \"#utility.yul\":5947:6040   */\n      tag_75\n      jump\t// in\n    tag_145:\n        /* \"#utility.yul\":6065:6067   */\n      0x20\n        /* \"#utility.yul\":6060:6063   */\n      dup3\n        /* \"#utility.yul\":6056:6068   */\n      add\n        /* \"#utility.yul\":6049:6068   */\n      swap1\n      pop\n        /* \"#utility.yul\":5708:6074   */\n      swap2\n      swap1\n      pop\n      jump\t// out\n        /* \"#utility.yul\":6080:6499   */\n    tag_46:\n        /* \"#utility.yul\":6246:6250   */\n      0x00\n        /* \"#utility.yul\":6284:6286   */\n      0x20\n        /* \"#utility.yul\":6273:6282   */\n      dup3\n        /* \"#utility.yul\":6269:6287   */\n      add\n        /* \"#utility.yul\":6261:6287   */\n      swap1\n      pop\n        /* \"#utility.yul\":6333:6342   */\n      dup2\n        /* \"#utility.yul\":6327:6331   */\n      dup2\n        /* \"#utility.yul\":6323:6343   */\n      sub\n        /* \"#utility.yul\":6319:6320   */\n      0x00\n        /* \"#utility.yul\":6308:6317   */\n      dup4\n        /* \"#utility.yul\":6304:6321   */\n      add\n        /* \"#utility.yul\":6297:6344   */\n      mstore\n        /* \"#utility.yul\":6361:6492   */\n      tag_147\n        /* \"#utility.yul\":6487:6491   */\n      dup2\n        /* \"#utility.yul\":6361:6492   */\n      tag_76\n      jump\t// in\n    tag_147:\n        /* \"#utility.yul\":6353:6492   */\n      swap1\n      pop\n        /* \"#utility.yul\":6080:6499   */\n      swap2\n      swap1\n      pop\n      jump\t// out\n        /* \"#utility.yul\":6505:6699   */\n    tag_51:\n        /* \"#utility.yul\":6545:6549   */\n      0x00\n        /* \"#utility.yul\":6565:6585   */\n      tag_149\n        /* \"#utility.yul\":6583:6584   */\n      dup3\n        /* \"#utility.yul\":6565:6585   */\n      tag_52\n      jump\t// in\n    tag_149:\n        /* \"#utility.yul\":6560:6585   */\n      swap2\n      pop\n        /* \"#utility.yul\":6599:6619   */\n      tag_150\n        /* \"#utility.yul\":6617:6618   */\n      dup4\n        /* \"#utility.yul\":6599:6619   */\n      tag_52\n      jump\t// in\n    tag_150:\n        /* \"#utility.yul\":6594:6619   */\n      swap3\n      pop\n        /* \"#utility.yul\":6643:6644   */\n      dup3\n        /* \"#utility.yul\":6640:6641   */\n      dup3\n        /* \"#utility.yul\":6636:6645   */\n      sub\n        /* \"#utility.yul\":6628:6645   */\n      swap1\n      pop\n        /* \"#utility.yul\":6667:6668   */\n      dup2\n        /* \"#utility.yul\":6661:6665   */\n      dup2\n        /* \"#utility.yul\":6658:6669   */\n      gt\n        /* \"#utility.yul\":6655:6692   */\n      iszero\n      tag_151\n      jumpi\n        /* \"#utility.yul\":6672:6690   */\n      tag_152\n      tag_53\n      jump\t// in\n    tag_152:\n        /* \"#utility.yul\":6655:6692   */\n    tag_151:\n        /* \"#utility.yul\":6505:6699   */\n      swap3\n      swap2\n      pop\n      pop\n      jump\t// out\n\n    auxdata: 0xa26469706673582212207818f99d936e2554363491840b86bdb2d04b65eb1bcf79f7fd24d170e1eb2d2064736f6c63430008110033\n}\n",
				"bytecode": {
					"linkReferences": {},
					"object": "608060405234801561001057600080fd5b50336000806101000a81548173ffffffffffffffffffffffffffffffffffffffff021916908373ffffffffffffffffffffffffffffffffffffffff1602179055506106bd806100606000396000f3fe60806040526004361061004d5760003560e01c8062f714ce1461007157806327e235e31461009a5780637cd380f1146100d75780638da5cb5b14610114578063b69ef8a81461013f5761006c565b3661006c573460016000828254610064919061033e565b925050819055005b600080fd5b34801561007d57600080fd5b5061009860048036038101906100939190610401565b61016a565b005b3480156100a657600080fd5b506100c160048036038101906100bc919061047f565b6102a3565b6040516100ce91906104c5565b60405180910390f35b3480156100e357600080fd5b506100fe60048036038101906100f9919061047f565b6102bb565b60405161010b91906104fb565b60405180910390f35b34801561012057600080fd5b506101296102db565b6040516101369190610525565b60405180910390f35b34801561014b57600080fd5b506101546102ff565b604051610161919061054f565b60405180910390f35b8160008054906101000a900473ffffffffffffffffffffffffffffffffffffffff1673ffffffffffffffffffffffffffffffffffffffff163373ffffffffffffffffffffffffffffffffffffffff16146101f9576040517f08c379a00000000000000000000000000000000000000000000000000000000081526004016101f0906105c7565b60405180910390fd5b60015481111561023e576040517f08c379a000000000000000000000000000000000000000000000000000000000815260040161023590610633565b60405180910390fd5b8173ffffffffffffffffffffffffffffffffffffffff166108fc849081150290604051600060405180830381858888f19350505050158015610284573d6000803e3d6000fd5b5082600160008282546102979190610653565b92505081905550505050565b60026020528060005260406000206000915090505481565b60036020528060005260406000206000915054906101000a900460ff1681565b60008054906101000a900473ffffffffffffffffffffffffffffffffffffffff1681565b60015481565b6000819050919050565b7f4e487b7100000000000000000000000000000000000000000000000000000000600052601160045260246000fd5b600061034982610305565b915061035483610305565b925082820190508082111561036c5761036b61030f565b5b92915050565b600080fd5b61038081610305565b811461038b57600080fd5b50565b60008135905061039d81610377565b92915050565b600073ffffffffffffffffffffffffffffffffffffffff82169050919050565b60006103ce826103a3565b9050919050565b6103de816103c3565b81146103e957600080fd5b50565b6000813590506103fb816103d5565b92915050565b6000806040838503121561041857610417610372565b5b60006104268582860161038e565b9250506020610437858286016103ec565b9150509250929050565b600061044c826103a3565b9050919050565b61045c81610441565b811461046757600080fd5b50565b60008135905061047981610453565b92915050565b60006020828403121561049557610494610372565b5b60006104a38482850161046a565b91505092915050565b6000819050919050565b6104bf816104ac565b82525050565b60006020820190506104da60008301846104b6565b92915050565b60008115159050919050565b6104f5816104e0565b82525050565b600060208201905061051060008301846104ec565b92915050565b61051f81610441565b82525050565b600060208201905061053a6000830184610516565b92915050565b61054981610305565b82525050565b60006020820190506105646000830184610540565b92915050565b600082825260208201905092915050565b7f4f6e6c79206f776e65722063616e207769746864726177000000000000000000600082015250565b60006105b160178361056a565b91506105bc8261057b565b602082019050919050565b600060208201905081810360008301526105e0816105a4565b9050919050565b7f496e737566666963656e742066756e6473000000000000000000000000000000600082015250565b600061061d60118361056a565b9150610628826105e7565b602082019050919050565b6000602082019050818103600083015261064c81610610565b9050919050565b600061065e82610305565b915061066983610305565b92508282039050818111156106815761068061030f565b5b9291505056fea26469706673582212207818f99d936e2554363491840b86bdb2d04b65eb1bcf79f7fd24d170e1eb2d2064736f6c63430008110033",
					"opcodes": "PUSH1 0x80 PUSH1 0x40 MSTORE CALLVALUE DUP1 ISZERO PUSH2 0x10 JUMPI PUSH1 0x0 DUP1 REVERT JUMPDEST POP CALLER PUSH1 0x0 DUP1 PUSH2 0x100 EXP DUP2 SLOAD DUP2 PUSH20 0xFFFFFFFFFFFFFFFFFFFFFFFFFFFFFFFFFFFFFFFF MUL NOT AND SWAP1 DUP4 PUSH20 0xFFFFFFFFFFFFFFFFFFFFFFFFFFFFFFFFFFFFFFFF AND MUL OR SWAP1 SSTORE POP PUSH2 0x6BD DUP1 PUSH2 0x60 PUSH1 0x0 CODECOPY PUSH1 0x0 RETURN INVALID PUSH1 0x80 PUSH1 0x40 MSTORE PUSH1 0x4 CALLDATASIZE LT PUSH2 0x4D JUMPI PUSH1 0x0 CALLDATALOAD PUSH1 0xE0 SHR DUP1 PUSH3 0xF714CE EQ PUSH2 0x71 JUMPI DUP1 PUSH4 0x27E235E3 EQ PUSH2 0x9A JUMPI DUP1 PUSH4 0x7CD380F1 EQ PUSH2 0xD7 JUMPI DUP1 PUSH4 0x8DA5CB5B EQ PUSH2 0x114 JUMPI DUP1 PUSH4 0xB69EF8A8 EQ PUSH2 0x13F JUMPI PUSH2 0x6C JUMP JUMPDEST CALLDATASIZE PUSH2 0x6C JUMPI CALLVALUE PUSH1 0x1 PUSH1 0x0 DUP3 DUP3 SLOAD PUSH2 0x64 SWAP2 SWAP1 PUSH2 0x33E JUMP JUMPDEST SWAP3 POP POP DUP2 SWAP1 SSTORE STOP JUMPDEST PUSH1 0x0 DUP1 REVERT JUMPDEST CALLVALUE DUP1 ISZERO PUSH2 0x7D JUMPI PUSH1 0x0 DUP1 REVERT JUMPDEST POP PUSH2 0x98 PUSH1 0x4 DUP1 CALLDATASIZE SUB DUP2 ADD SWAP1 PUSH2 0x93 SWAP2 SWAP1 PUSH2 0x401 JUMP JUMPDEST PUSH2 0x16A JUMP JUMPDEST STOP JUMPDEST CALLVALUE DUP1 ISZERO PUSH2 0xA6 JUMPI PUSH1 0x0 DUP1 REVERT JUMPDEST POP PUSH2 0xC1 PUSH1 0x4 DUP1 CALLDATASIZE SUB DUP2 ADD SWAP1 PUSH2 0xBC SWAP2 SWAP1 PUSH2 0x47F JUMP JUMPDEST PUSH2 0x2A3 JUMP JUMPDEST PUSH1 0x40 MLOAD PUSH2 0xCE SWAP2 SWAP1 PUSH2 0x4C5 JUMP JUMPDEST PUSH1 0x40 MLOAD DUP1 SWAP2 SUB SWAP1 RETURN JUMPDEST CALLVALUE DUP1 ISZERO PUSH2 0xE3 JUMPI PUSH1 0x0 DUP1 REVERT JUMPDEST POP PUSH2 0xFE PUSH1 0x4 DUP1 CALLDATASIZE SUB DUP2 ADD SWAP1 PUSH2 0xF9 SWAP2 SWAP1 PUSH2 0x47F JUMP JUMPDEST PUSH2 0x2BB JUMP JUMPDEST PUSH1 0x40 MLOAD PUSH2 0x10B SWAP2 SWAP1 PUSH2 0x4FB JUMP JUMPDEST PUSH1 0x40 MLOAD DUP1 SWAP2 SUB SWAP1 RETURN JUMPDEST CALLVALUE DUP1 ISZERO PUSH2 0x120 JUMPI PUSH1 0x0 DUP1 REVERT JUMPDEST POP PUSH2 0x129 PUSH2 0x2DB JUMP JUMPDEST PUSH1 0x40 MLOAD PUSH2 0x136 SWAP2 SWAP1 PUSH2 0x525 JUMP JUMPDEST PUSH1 0x40 MLOAD DUP1 SWAP2 SUB SWAP1 RETURN JUMPDEST CALLVALUE DUP1 ISZERO PUSH2 0x14B JUMPI PUSH1 0x0 DUP1 REVERT JUMPDEST POP PUSH2 0x154 PUSH2 0x2FF JUMP JUMPDEST PUSH1 0x40 MLOAD PUSH2 0x161 SWAP2 SWAP1 PUSH2 0x54F JUMP JUMPDEST PUSH1 0x40 MLOAD DUP1 SWAP2 SUB SWAP1 RETURN JUMPDEST DUP2 PUSH1 0x0 DUP1 SLOAD SWAP1 PUSH2 0x100 EXP SWAP1 DIV PUSH20 0xFFFFFFFFFFFFFFFFFFFFFFFFFFFFFFFFFFFFFFFF AND PUSH20 0xFFFFFFFFFFFFFFFFFFFFFFFFFFFFFFFFFFFFFFFF AND CALLER PUSH20 0xFFFFFFFFFFFFFFFFFFFFFFFFFFFFFFFFFFFFFFFF AND EQ PUSH2 0x1F9 JUMPI PUSH1 0x40 MLOAD PUSH32 0x8C379A000000000000000000000000000000000000000000000000000000000 DUP2 MSTORE PUSH1 0x4 ADD PUSH2 0x1F0 SWAP1 PUSH2 0x5C7 JUMP JUMPDEST PUSH1 0x40 MLOAD DUP1 SWAP2 SUB SWAP1 REVERT JUMPDEST PUSH1 0x1 SLOAD DUP2 GT ISZERO PUSH2 0x23E JUMPI PUSH1 0x40 MLOAD PUSH32 0x8C379A000000000000000000000000000000000000000000000000000000000 DUP2 MSTORE PUSH1 0x4 ADD PUSH2 0x235 SWAP1 PUSH2 0x633 JUMP JUMPDEST PUSH1 0x40 MLOAD DUP1 SWAP2 SUB SWAP1 REVERT JUMPDEST DUP2 PUSH20 0xFFFFFFFFFFFFFFFFFFFFFFFFFFFFFFFFFFFFFFFF AND PUSH2 0x8FC DUP5 SWAP1 DUP2 ISZERO MUL SWAP1 PUSH1 0x40 MLOAD PUSH1 0x0 PUSH1 0x40 MLOAD DUP1 DUP4 SUB DUP2 DUP6 DUP9 DUP9 CALL SWAP4 POP POP POP POP ISZERO DUP1 ISZERO PUSH2 0x284 JUMPI RETURNDATASIZE PUSH1 0x0 DUP1 RETURNDATACOPY RETURNDATASIZE PUSH1 0x0 REVERT JUMPDEST POP DUP3 PUSH1 0x1 PUSH1 0x0 DUP3 DUP3 SLOAD PUSH2 0x297 SWAP2 SWAP1 PUSH2 0x653 JUMP JUMPDEST SWAP3 POP POP DUP2 SWAP1 SSTORE POP POP POP POP JUMP JUMPDEST PUSH1 0x2 PUSH1 0x20 MSTORE DUP1 PUSH1 0x0 MSTORE PUSH1 0x40 PUSH1 0x0 KECCAK256 PUSH1 0x0 SWAP2 POP SWAP1 POP SLOAD DUP2 JUMP JUMPDEST PUSH1 0x3 PUSH1 0x20 MSTORE DUP1 PUSH1 0x0 MSTORE PUSH1 0x40 PUSH1 0x0 KECCAK256 PUSH1 0x0 SWAP2 POP SLOAD SWAP1 PUSH2 0x100 EXP SWAP1 DIV PUSH1 0xFF AND DUP2 JUMP JUMPDEST PUSH1 0x0 DUP1 SLOAD SWAP1 PUSH2 0x100 EXP SWAP1 DIV PUSH20 0xFFFFFFFFFFFFFFFFFFFFFFFFFFFFFFFFFFFFFFFF AND DUP2 JUMP JUMPDEST PUSH1 0x1 SLOAD DUP2 JUMP JUMPDEST PUSH1 0x0 DUP2 SWAP1 POP SWAP2 SWAP1 POP JUMP JUMPDEST PUSH32 0x4E487B7100000000000000000000000000000000000000000000000000000000 PUSH1 0x0 MSTORE PUSH1 0x11 PUSH1 0x4 MSTORE PUSH1 0x24 PUSH1 0x0 REVERT JUMPDEST PUSH1 0x0 PUSH2 0x349 DUP3 PUSH2 0x305 JUMP JUMPDEST SWAP2 POP PUSH2 0x354 DUP4 PUSH2 0x305 JUMP JUMPDEST SWAP3 POP DUP3 DUP3 ADD SWAP1 POP DUP1 DUP3 GT ISZERO PUSH2 0x36C JUMPI PUSH2 0x36B PUSH2 0x30F JUMP JUMPDEST JUMPDEST SWAP3 SWAP2 POP POP JUMP JUMPDEST PUSH1 0x0 DUP1 REVERT JUMPDEST PUSH2 0x380 DUP2 PUSH2 0x305 JUMP JUMPDEST DUP2 EQ PUSH2 0x38B JUMPI PUSH1 0x0 DUP1 REVERT JUMPDEST POP JUMP JUMPDEST PUSH1 0x0 DUP2 CALLDATALOAD SWAP1 POP PUSH2 0x39D DUP2 PUSH2 0x377 JUMP JUMPDEST SWAP3 SWAP2 POP POP JUMP JUMPDEST PUSH1 0x0 PUSH20 0xFFFFFFFFFFFFFFFFFFFFFFFFFFFFFFFFFFFFFFFF DUP3 AND SWAP1 POP SWAP2 SWAP1 POP JUMP JUMPDEST PUSH1 0x0 PUSH2 0x3CE DUP3 PUSH2 0x3A3 JUMP JUMPDEST SWAP1 POP SWAP2 SWAP1 POP JUMP JUMPDEST PUSH2 0x3DE DUP2 PUSH2 0x3C3 JUMP JUMPDEST DUP2 EQ PUSH2 0x3E9 JUMPI PUSH1 0x0 DUP1 REVERT JUMPDEST POP JUMP JUMPDEST PUSH1 0x0 DUP2 CALLDATALOAD SWAP1 POP PUSH2 0x3FB DUP2 PUSH2 0x3D5 JUMP JUMPDEST SWAP3 SWAP2 POP POP JUMP JUMPDEST PUSH1 0x0 DUP1 PUSH1 0x40 DUP4 DUP6 SUB SLT ISZERO PUSH2 0x418 JUMPI PUSH2 0x417 PUSH2 0x372 JUMP JUMPDEST JUMPDEST PUSH1 0x0 PUSH2 0x426 DUP6 DUP3 DUP7 ADD PUSH2 0x38E JUMP JUMPDEST SWAP3 POP POP PUSH1 0x20 PUSH2 0x437 DUP6 DUP3 DUP7 ADD PUSH2 0x3EC JUMP JUMPDEST SWAP2 POP POP SWAP3 POP SWAP3 SWAP1 POP JUMP JUMPDEST PUSH1 0x0 PUSH2 0x44C DUP3 PUSH2 0x3A3 JUMP JUMPDEST SWAP1 POP SWAP2 SWAP1 POP JUMP JUMPDEST PUSH2 0x45C DUP2 PUSH2 0x441 JUMP JUMPDEST DUP2 EQ PUSH2 0x467 JUMPI PUSH1 0x0 DUP1 REVERT JUMPDEST POP JUMP JUMPDEST PUSH1 0x0 DUP2 CALLDATALOAD SWAP1 POP PUSH2 0x479 DUP2 PUSH2 0x453 JUMP JUMPDEST SWAP3 SWAP2 POP POP JUMP JUMPDEST PUSH1 0x0 PUSH1 0x20 DUP3 DUP5 SUB SLT ISZERO PUSH2 0x495 JUMPI PUSH2 0x494 PUSH2 0x372 JUMP JUMPDEST JUMPDEST PUSH1 0x0 PUSH2 0x4A3 DUP5 DUP3 DUP6 ADD PUSH2 0x46A JUMP JUMPDEST SWAP2 POP POP SWAP3 SWAP2 POP POP JUMP JUMPDEST PUSH1 0x0 DUP2 SWAP1 POP SWAP2 SWAP1 POP JUMP JUMPDEST PUSH2 0x4BF DUP2 PUSH2 0x4AC JUMP JUMPDEST DUP3 MSTORE POP POP JUMP JUMPDEST PUSH1 0x0 PUSH1 0x20 DUP3 ADD SWAP1 POP PUSH2 0x4DA PUSH1 0x0 DUP4 ADD DUP5 PUSH2 0x4B6 JUMP JUMPDEST SWAP3 SWAP2 POP POP JUMP JUMPDEST PUSH1 0x0 DUP2 ISZERO ISZERO SWAP1 POP SWAP2 SWAP1 POP JUMP JUMPDEST PUSH2 0x4F5 DUP2 PUSH2 0x4E0 JUMP JUMPDEST DUP3 MSTORE POP POP JUMP JUMPDEST PUSH1 0x0 PUSH1 0x20 DUP3 ADD SWAP1 POP PUSH2 0x510 PUSH1 0x0 DUP4 ADD DUP5 PUSH2 0x4EC JUMP JUMPDEST SWAP3 SWAP2 POP POP JUMP JUMPDEST PUSH2 0x51F DUP2 PUSH2 0x441 JUMP JUMPDEST DUP3 MSTORE POP POP JUMP JUMPDEST PUSH1 0x0 PUSH1 0x20 DUP3 ADD SWAP1 POP PUSH2 0x53A PUSH1 0x0 DUP4 ADD DUP5 PUSH2 0x516 JUMP JUMPDEST SWAP3 SWAP2 POP POP JUMP JUMPDEST PUSH2 0x549 DUP2 PUSH2 0x305 JUMP JUMPDEST DUP3 MSTORE POP POP JUMP JUMPDEST PUSH1 0x0 PUSH1 0x20 DUP3 ADD SWAP1 POP PUSH2 0x564 PUSH1 0x0 DUP4 ADD DUP5 PUSH2 0x540 JUMP JUMPDEST SWAP3 SWAP2 POP POP JUMP JUMPDEST PUSH1 0x0 DUP3 DUP3 MSTORE PUSH1 0x20 DUP3 ADD SWAP1 POP SWAP3 SWAP2 POP POP JUMP JUMPDEST PUSH32 0x4F6E6C79206F776E65722063616E207769746864726177000000000000000000 PUSH1 0x0 DUP3 ADD MSTORE POP JUMP JUMPDEST PUSH1 0x0 PUSH2 0x5B1 PUSH1 0x17 DUP4 PUSH2 0x56A JUMP JUMPDEST SWAP2 POP PUSH2 0x5BC DUP3 PUSH2 0x57B JUMP JUMPDEST PUSH1 0x20 DUP3 ADD SWAP1 POP SWAP2 SWAP1 POP JUMP JUMPDEST PUSH1 0x0 PUSH1 0x20 DUP3 ADD SWAP1 POP DUP2 DUP2 SUB PUSH1 0x0 DUP4 ADD MSTORE PUSH2 0x5E0 DUP2 PUSH2 0x5A4 JUMP JUMPDEST SWAP1 POP SWAP2 SWAP1 POP JUMP JUMPDEST PUSH32 0x496E737566666963656E742066756E6473000000000000000000000000000000 PUSH1 0x0 DUP3 ADD MSTORE POP JUMP JUMPDEST PUSH1 0x0 PUSH2 0x61D PUSH1 0x11 DUP4 PUSH2 0x56A JUMP JUMPDEST SWAP2 POP PUSH2 0x628 DUP3 PUSH2 0x5E7 JUMP JUMPDEST PUSH1 0x20 DUP3 ADD SWAP1 POP SWAP2 SWAP1 POP JUMP JUMPDEST PUSH1 0x0 PUSH1 0x20 DUP3 ADD SWAP1 POP DUP2 DUP2 SUB PUSH1 0x0 DUP4 ADD MSTORE PUSH2 0x64C DUP2 PUSH2 0x610 JUMP JUMPDEST SWAP1 POP SWAP2 SWAP1 POP JUMP JUMPDEST PUSH1 0x0 PUSH2 0x65E DUP3 PUSH2 0x305 JUMP JUMPDEST SWAP2 POP PUSH2 0x669 DUP4 PUSH2 0x305 JUMP JUMPDEST SWAP3 POP DUP3 DUP3 SUB SWAP1 POP DUP2 DUP2 GT ISZERO PUSH2 0x681 JUMPI PUSH2 0x680 PUSH2 0x30F JUMP JUMPDEST JUMPDEST SWAP3 SWAP2 POP POP JUMP INVALID LOG2 PUSH5 0x6970667358 0x22 SLT KECCAK256 PUSH25 0x18F99D936E2554363491840B86BDB2D04B65EB1BCF79F7FD24 0xD1 PUSH17 0xE1EB2D2064736F6C634300081100330000 "
				},
				"gasEstimates": {
					"creation": {
						"codeDepositCost": "345000",
						"executionCost": "24646",
						"totalCost": "369646"
					},
					"external": {
						"balance()": "2495",
						"balances(address)": "2814",
						"inserted(address)": "2867",
						"owner()": "2555",
						"withdraw(uint256,address)": "infinite"
					}
				},
				"methodIdentifiers": {
					"balance()": "b69ef8a8",
					"balances(address)": "27e235e3",
					"inserted(address)": "7cd380f1",
					"owner()": "8da5cb5b",
					"withdraw(uint256,address)": "00f714ce"
				}
			},
			"storageLayout": {
				"storage": [
					{
						"astId": 3,
						"contract": "FeeCollector.sol:FeeCollector",
						"label": "owner",
						"offset": 0,
						"slot": "0",
						"type": "t_address"
					},
					{
						"astId": 5,
						"contract": "FeeCollector.sol:FeeCollector",
						"label": "balance",
						"offset": 0,
						"slot": "1",
						"type": "t_uint256"
					},
					{
						"astId": 9,
						"contract": "FeeCollector.sol:FeeCollector",
						"label": "balances",
						"offset": 0,
						"slot": "2",
						"type": "t_mapping(t_address,t_int256)"
					},
					{
						"astId": 13,
						"contract": "FeeCollector.sol:FeeCollector",
						"label": "inserted",
						"offset": 0,
						"slot": "3",
						"type": "t_mapping(t_address,t_bool)"
					}
				],
				"types": {
					"t_address": {
						"encoding": "inplace",
						"label": "address",
						"numberOfBytes": "20"
					},
					"t_bool": {
						"encoding": "inplace",
						"label": "bool",
						"numberOfBytes": "1"
					},
					"t_int256": {
						"encoding": "inplace",
						"label": "int256",
						"numberOfBytes": "32"
					},
					"t_mapping(t_address,t_bool)": {
						"encoding": "mapping",
						"key": "t_address",
						"label": "mapping(address => bool)",
						"numberOfBytes": "32",
						"value": "t_bool"
					},
					"t_mapping(t_address,t_int256)": {
						"encoding": "mapping",
						"key": "t_address",
						"label": "mapping(address => int256)",
						"numberOfBytes": "32",
						"value": "t_int256"
					},
					"t_uint256": {
						"encoding": "inplace",
						"label": "uint256",
						"numberOfBytes": "32"
					}
				}
			},
			"userdoc": {
				"kind": "user",
				"methods": {},
				"version": 1
			}
		}
	}
}