{
	"HelloWorld.sol": {
		"SimpleStorage": {
			"abi": [
				{
					"inputs": [
						{
							"components": [
								{
									"internalType": "string",
									"name": "text",
									"type": "string"
								},
								{
									"internalType": "bool",
									"name": "completed",
									"type": "bool"
								}
							],
							"internalType": "struct SimpleStorage.Todo",
							"name": "_todo",
							"type": "tuple"
						}
					],
					"name": "create",
					"outputs": [],
					"stateMutability": "nonpayable",
					"type": "function"
				},
				{
					"inputs": [],
					"name": "get",
					"outputs": [],
					"stateMutability": "view",
					"type": "function"
				},
				{
					"inputs": [
						{
							"internalType": "uint256",
							"name": "",
							"type": "uint256"
						}
					],
					"name": "todos",
					"outputs": [
						{
							"internalType": "string",
							"name": "text",
							"type": "string"
						},
						{
							"internalType": "bool",
							"name": "completed",
							"type": "bool"
						}
					],
					"stateMutability": "view",
					"type": "function"
				},
				{
					"inputs": [
						{
							"internalType": "uint256",
							"name": "index",
							"type": "uint256"
						},
						{
							"internalType": "string",
							"name": "_text",
							"type": "string"
						}
					],
					"name": "updateText",
					"outputs": [],
					"stateMutability": "nonpayable",
					"type": "function"
				}
			],
			"devdoc": {
				"kind": "dev",
				"methods": {},
				"version": 1
			},
			"evm": {
				"assembly": "    /* \"HelloWorld.sol\":56:417  contract SimpleStorage {... */\n  mstore(0x40, 0x80)\n  callvalue\n  dup1\n  iszero\n  tag_1\n  jumpi\n  0x00\n  dup1\n  revert\ntag_1:\n  pop\n  dataSize(sub_0)\n  dup1\n  dataOffset(sub_0)\n  0x00\n  codecopy\n  0x00\n  return\nstop\n\nsub_0: assembly {\n        /* \"HelloWorld.sol\":56:417  contract SimpleStorage {... */\n      mstore(0x40, 0x80)\n      callvalue\n      dup1\n      iszero\n      tag_1\n      jumpi\n      0x00\n      dup1\n      revert\n    tag_1:\n      pop\n      jumpi(tag_2, lt(calldatasize, 0x04))\n      shr(0xe0, calldataload(0x00))\n      dup1\n      0x5cce26f1\n      eq\n      tag_3\n      jumpi\n      dup1\n      0x6d4ce63c\n      eq\n      tag_4\n      jumpi\n      dup1\n      0xbc8bc2b4\n      eq\n      tag_5\n      jumpi\n      dup1\n      0xcd111614\n      eq\n      tag_6\n      jumpi\n    tag_2:\n      0x00\n      dup1\n      revert\n        /* \"HelloWorld.sol\":180:260  function create(Todo calldata _todo) external {... */\n    tag_3:\n      tag_7\n      0x04\n      dup1\n      calldatasize\n      sub\n      dup2\n      add\n      swap1\n      tag_8\n      swap2\n      swap1\n      tag_9\n      jump\t// in\n    tag_8:\n      tag_10\n      jump\t// in\n    tag_7:\n      stop\n        /* \"HelloWorld.sol\":378:415  function get() external view {... */\n    tag_4:\n      tag_11\n      tag_12\n      jump\t// in\n    tag_11:\n      stop\n        /* \"HelloWorld.sol\":154:173  Todo[] public todos */\n    tag_5:\n      tag_13\n      0x04\n      dup1\n      calldatasize\n      sub\n      dup2\n      add\n      swap1\n      tag_14\n      swap2\n      swap1\n      tag_15\n      jump\t// in\n    tag_14:\n      tag_16\n      jump\t// in\n    tag_13:\n      mload(0x40)\n      tag_17\n      swap3\n      swap2\n      swap1\n      tag_18\n      jump\t// in\n    tag_17:\n      mload(0x40)\n      dup1\n      swap2\n      sub\n      swap1\n      return\n        /* \"HelloWorld.sol\":266:372  function updateText(uint index, string calldata _text) external {... */\n    tag_6:\n      tag_19\n      0x04\n      dup1\n      calldatasize\n      sub\n      dup2\n      add\n      swap1\n      tag_20\n      swap2\n      swap1\n      tag_21\n      jump\t// in\n    tag_20:\n      tag_22\n      jump\t// in\n    tag_19:\n      stop\n        /* \"HelloWorld.sol\":180:260  function create(Todo calldata _todo) external {... */\n    tag_10:\n        /* \"HelloWorld.sol\":236:241  todos */\n      0x00\n        /* \"HelloWorld.sol\":247:252  _todo */\n      dup2\n        /* \"HelloWorld.sol\":236:253  todos.push(_todo) */\n      swap1\n      dup1\n      0x01\n      dup2\n      sload\n      add\n      dup1\n      dup3\n      sstore\n      dup1\n      swap2\n      pop\n      pop\n      0x01\n      swap1\n      sub\n      swap1\n      0x00\n      mstore\n      keccak256(0x00, 0x20)\n      swap1\n      0x02\n      mul\n      add\n      0x00\n      swap1\n      swap2\n      swap1\n      swap2\n      swap1\n      swap2\n      pop\n      dup2\n      dup2\n      tag_25\n      swap2\n      swap1\n      tag_26\n      jump\t// in\n    tag_25:\n      pop\n      pop\n        /* \"HelloWorld.sol\":180:260  function create(Todo calldata _todo) external {... */\n      pop\n      jump\t// out\n        /* \"HelloWorld.sol\":378:415  function get() external view {... */\n    tag_12:\n      jump\t// out\n        /* \"HelloWorld.sol\":154:173  Todo[] public todos */\n    tag_16:\n      0x00\n      dup2\n      dup2\n      sload\n      dup2\n      lt\n      tag_28\n      jumpi\n      0x00\n      dup1\n      revert\n    tag_28:\n      swap1\n      0x00\n      mstore\n      keccak256(0x00, 0x20)\n      swap1\n      0x02\n      mul\n      add\n      0x00\n      swap2\n      pop\n      swap1\n      pop\n      dup1\n      0x00\n      add\n      dup1\n      sload\n      tag_30\n      swap1\n      tag_31\n      jump\t// in\n    tag_30:\n      dup1\n      0x1f\n      add\n      0x20\n      dup1\n      swap2\n      div\n      mul\n      0x20\n      add\n      mload(0x40)\n      swap1\n      dup2\n      add\n      0x40\n      mstore\n      dup1\n      swap3\n      swap2\n      swap1\n      dup2\n      dup2\n      mstore\n      0x20\n      add\n      dup3\n      dup1\n      sload\n      tag_32\n      swap1\n      tag_31\n      jump\t// in\n    tag_32:\n      dup1\n      iszero\n      tag_33\n      jumpi\n      dup1\n      0x1f\n      lt\n      tag_34\n      jumpi\n      0x0100\n      dup1\n      dup4\n      sload\n      div\n      mul\n      dup4\n      mstore\n      swap2\n      0x20\n      add\n      swap2\n      jump(tag_33)\n    tag_34:\n      dup3\n      add\n      swap2\n      swap1\n      0x00\n      mstore\n      keccak256(0x00, 0x20)\n      swap1\n    tag_35:\n      dup2\n      sload\n      dup2\n      mstore\n      swap1\n      0x01\n      add\n      swap1\n      0x20\n      add\n      dup1\n      dup4\n      gt\n      tag_35\n      jumpi\n      dup3\n      swap1\n      sub\n      0x1f\n      and\n      dup3\n      add\n      swap2\n    tag_33:\n      pop\n      pop\n      pop\n      pop\n      pop\n      swap1\n      dup1\n      0x01\n      add\n      0x00\n      swap1\n      sload\n      swap1\n      0x0100\n      exp\n      swap1\n      div\n      0xff\n      and\n      swap1\n      pop\n      dup3\n      jump\t// out\n        /* \"HelloWorld.sol\":266:372  function updateText(uint index, string calldata _text) external {... */\n    tag_22:\n        /* \"HelloWorld.sol\":360:365  _text */\n      dup2\n      dup2\n        /* \"HelloWorld.sol\":340:345  todos */\n      0x00\n        /* \"HelloWorld.sol\":346:351  index */\n      dup6\n        /* \"HelloWorld.sol\":340:352  todos[index] */\n      dup2\n      sload\n      dup2\n      lt\n      tag_37\n      jumpi\n      tag_38\n      tag_39\n      jump\t// in\n    tag_38:\n    tag_37:\n      swap1\n      0x00\n      mstore\n      keccak256(0x00, 0x20)\n      swap1\n      0x02\n      mul\n      add\n        /* \"HelloWorld.sol\":340:357  todos[index].text */\n      0x00\n      add\n        /* \"HelloWorld.sol\":340:365  todos[index].text = _text */\n      swap2\n      swap1\n      tag_41\n      swap3\n      swap2\n      swap1\n      tag_42\n      jump\t// in\n    tag_41:\n      pop\n        /* \"HelloWorld.sol\":266:372  function updateText(uint index, string calldata _text) external {... */\n      pop\n      pop\n      pop\n      jump\t// out\n    tag_42:\n      dup3\n      dup1\n      sload\n      tag_43\n      swap1\n      tag_31\n      jump\t// in\n    tag_43:\n      swap1\n      0x00\n      mstore\n      keccak256(0x00, 0x20)\n      swap1\n      0x1f\n      add\n      0x20\n      swap1\n      div\n      dup2\n      add\n      swap3\n      dup3\n      tag_45\n      jumpi\n      0x00\n      dup6\n      sstore\n      jump(tag_44)\n    tag_45:\n      dup3\n      0x1f\n      lt\n      tag_46\n      jumpi\n      dup1\n      calldataload\n      not(0xff)\n      and\n      dup4\n      dup1\n      add\n      or\n      dup6\n      sstore\n      jump(tag_44)\n    tag_46:\n      dup3\n      dup1\n      add\n      0x01\n      add\n      dup6\n      sstore\n      dup3\n      iszero\n      tag_44\n      jumpi\n      swap2\n      dup3\n      add\n    tag_47:\n      dup3\n      dup2\n      gt\n      iszero\n      tag_48\n      jumpi\n      dup3\n      calldataload\n      dup3\n      sstore\n      swap2\n      0x20\n      add\n      swap2\n      swap1\n      0x01\n      add\n      swap1\n      jump(tag_47)\n    tag_48:\n    tag_44:\n      pop\n      swap1\n      pop\n      tag_49\n      swap2\n      swap1\n      tag_50\n      jump\t// in\n    tag_49:\n      pop\n      swap1\n      jump\t// out\n    tag_50:\n    tag_51:\n      dup1\n      dup3\n      gt\n      iszero\n      tag_52\n      jumpi\n      0x00\n      dup2\n      0x00\n      swap1\n      sstore\n      pop\n      0x01\n      add\n      jump(tag_51)\n    tag_52:\n      pop\n      swap1\n      jump\t// out\n        /* \"#utility.yul\":21:574   */\n    tag_54:\n        /* \"#utility.yul\":79:87   */\n      0x00\n        /* \"#utility.yul\":89:95   */\n      dup1\n        /* \"#utility.yul\":139:142   */\n      dup4\n        /* \"#utility.yul\":132:136   */\n      0x1f\n        /* \"#utility.yul\":124:130   */\n      dup5\n        /* \"#utility.yul\":120:137   */\n      add\n        /* \"#utility.yul\":116:143   */\n      slt\n        /* \"#utility.yul\":106:228   */\n      tag_56\n      jumpi\n        /* \"#utility.yul\":147:226   */\n      tag_57\n      tag_58\n      jump\t// in\n    tag_57:\n        /* \"#utility.yul\":106:228   */\n    tag_56:\n        /* \"#utility.yul\":260:266   */\n      dup3\n        /* \"#utility.yul\":247:267   */\n      calldataload\n        /* \"#utility.yul\":237:267   */\n      swap1\n      pop\n        /* \"#utility.yul\":290:308   */\n      0xffffffffffffffff\n        /* \"#utility.yul\":282:288   */\n      dup2\n        /* \"#utility.yul\":279:309   */\n      gt\n        /* \"#utility.yul\":276:393   */\n      iszero\n      tag_59\n      jumpi\n        /* \"#utility.yul\":312:391   */\n      tag_60\n      tag_61\n      jump\t// in\n    tag_60:\n        /* \"#utility.yul\":276:393   */\n    tag_59:\n        /* \"#utility.yul\":426:430   */\n      0x20\n        /* \"#utility.yul\":418:424   */\n      dup4\n        /* \"#utility.yul\":414:431   */\n      add\n        /* \"#utility.yul\":402:431   */\n      swap2\n      pop\n        /* \"#utility.yul\":480:483   */\n      dup4\n        /* \"#utility.yul\":472:476   */\n      0x01\n        /* \"#utility.yul\":464:470   */\n      dup3\n        /* \"#utility.yul\":460:477   */\n      mul\n        /* \"#utility.yul\":450:458   */\n      dup4\n        /* \"#utility.yul\":446:478   */\n      add\n        /* \"#utility.yul\":443:484   */\n      gt\n        /* \"#utility.yul\":440:568   */\n      iszero\n      tag_62\n      jumpi\n        /* \"#utility.yul\":487:566   */\n      tag_63\n      tag_64\n      jump\t// in\n    tag_63:\n        /* \"#utility.yul\":440:568   */\n    tag_62:\n        /* \"#utility.yul\":21:574   */\n      swap3\n      pop\n      swap3\n      swap1\n      pop\n      jump\t// out\n        /* \"#utility.yul\":613:838   */\n    tag_65:\n        /* \"#utility.yul\":680:685   */\n      0x00\n        /* \"#utility.yul\":721:723   */\n      0x40\n        /* \"#utility.yul\":712:718   */\n      dup3\n        /* \"#utility.yul\":707:710   */\n      dup5\n        /* \"#utility.yul\":703:719   */\n      sub\n        /* \"#utility.yul\":699:724   */\n      slt\n        /* \"#utility.yul\":696:808   */\n      iszero\n      tag_67\n      jumpi\n        /* \"#utility.yul\":727:806   */\n      tag_68\n      tag_69\n      jump\t// in\n    tag_68:\n        /* \"#utility.yul\":696:808   */\n    tag_67:\n        /* \"#utility.yul\":826:832   */\n      dup2\n        /* \"#utility.yul\":817:832   */\n      swap1\n      pop\n        /* \"#utility.yul\":613:838   */\n      swap3\n      swap2\n      pop\n      pop\n      jump\t// out\n        /* \"#utility.yul\":844:983   */\n    tag_70:\n        /* \"#utility.yul\":890:895   */\n      0x00\n        /* \"#utility.yul\":928:934   */\n      dup2\n        /* \"#utility.yul\":915:935   */\n      calldataload\n        /* \"#utility.yul\":906:935   */\n      swap1\n      pop\n        /* \"#utility.yul\":944:977   */\n      tag_72\n        /* \"#utility.yul\":971:976   */\n      dup2\n        /* \"#utility.yul\":944:977   */\n      tag_73\n      jump\t// in\n    tag_72:\n        /* \"#utility.yul\":844:983   */\n      swap3\n      swap2\n      pop\n      pop\n      jump\t// out\n        /* \"#utility.yul\":989:1520   */\n    tag_9:\n        /* \"#utility.yul\":1069:1075   */\n      0x00\n        /* \"#utility.yul\":1118:1120   */\n      0x20\n        /* \"#utility.yul\":1106:1115   */\n      dup3\n        /* \"#utility.yul\":1097:1104   */\n      dup5\n        /* \"#utility.yul\":1093:1116   */\n      sub\n        /* \"#utility.yul\":1089:1121   */\n      slt\n        /* \"#utility.yul\":1086:1205   */\n      iszero\n      tag_75\n      jumpi\n        /* \"#utility.yul\":1124:1203   */\n      tag_76\n      tag_77\n      jump\t// in\n    tag_76:\n        /* \"#utility.yul\":1086:1205   */\n    tag_75:\n        /* \"#utility.yul\":1272:1273   */\n      0x00\n        /* \"#utility.yul\":1261:1270   */\n      dup3\n        /* \"#utility.yul\":1257:1274   */\n      add\n        /* \"#utility.yul\":1244:1275   */\n      calldataload\n        /* \"#utility.yul\":1302:1320   */\n      0xffffffffffffffff\n        /* \"#utility.yul\":1294:1300   */\n      dup2\n        /* \"#utility.yul\":1291:1321   */\n      gt\n        /* \"#utility.yul\":1288:1405   */\n      iszero\n      tag_78\n      jumpi\n        /* \"#utility.yul\":1324:1403   */\n      tag_79\n      tag_80\n      jump\t// in\n    tag_79:\n        /* \"#utility.yul\":1288:1405   */\n    tag_78:\n        /* \"#utility.yul\":1429:1503   */\n      tag_81\n        /* \"#utility.yul\":1495:1502   */\n      dup5\n        /* \"#utility.yul\":1486:1492   */\n      dup3\n        /* \"#utility.yul\":1475:1484   */\n      dup6\n        /* \"#utility.yul\":1471:1493   */\n      add\n        /* \"#utility.yul\":1429:1503   */\n      tag_65\n      jump\t// in\n    tag_81:\n        /* \"#utility.yul\":1419:1503   */\n      swap2\n      pop\n        /* \"#utility.yul\":1215:1513   */\n      pop\n        /* \"#utility.yul\":989:1520   */\n      swap3\n      swap2\n      pop\n      pop\n      jump\t// out\n        /* \"#utility.yul\":1526:1855   */\n    tag_15:\n        /* \"#utility.yul\":1585:1591   */\n      0x00\n        /* \"#utility.yul\":1634:1636   */\n      0x20\n        /* \"#utility.yul\":1622:1631   */\n      dup3\n        /* \"#utility.yul\":1613:1620   */\n      dup5\n        /* \"#utility.yul\":1609:1632   */\n      sub\n        /* \"#utility.yul\":1605:1637   */\n      slt\n        /* \"#utility.yul\":1602:1721   */\n      iszero\n      tag_83\n      jumpi\n        /* \"#utility.yul\":1640:1719   */\n      tag_84\n      tag_77\n      jump\t// in\n    tag_84:\n        /* \"#utility.yul\":1602:1721   */\n    tag_83:\n        /* \"#utility.yul\":1760:1761   */\n      0x00\n        /* \"#utility.yul\":1785:1838   */\n      tag_85\n        /* \"#utility.yul\":1830:1837   */\n      dup5\n        /* \"#utility.yul\":1821:1827   */\n      dup3\n        /* \"#utility.yul\":1810:1819   */\n      dup6\n        /* \"#utility.yul\":1806:1828   */\n      add\n        /* \"#utility.yul\":1785:1838   */\n      tag_70\n      jump\t// in\n    tag_85:\n        /* \"#utility.yul\":1775:1838   */\n      swap2\n      pop\n        /* \"#utility.yul\":1731:1848   */\n      pop\n        /* \"#utility.yul\":1526:1855   */\n      swap3\n      swap2\n      pop\n      pop\n      jump\t// out\n        /* \"#utility.yul\":1861:2535   */\n    tag_21:\n        /* \"#utility.yul\":1941:1947   */\n      0x00\n        /* \"#utility.yul\":1949:1955   */\n      dup1\n        /* \"#utility.yul\":1957:1963   */\n      0x00\n        /* \"#utility.yul\":2006:2008   */\n      0x40\n        /* \"#utility.yul\":1994:2003   */\n      dup5\n        /* \"#utility.yul\":1985:1992   */\n      dup7\n        /* \"#utility.yul\":1981:2004   */\n      sub\n        /* \"#utility.yul\":1977:2009   */\n      slt\n        /* \"#utility.yul\":1974:2093   */\n      iszero\n      tag_87\n      jumpi\n        /* \"#utility.yul\":2012:2091   */\n      tag_88\n      tag_77\n      jump\t// in\n    tag_88:\n        /* \"#utility.yul\":1974:2093   */\n    tag_87:\n        /* \"#utility.yul\":2132:2133   */\n      0x00\n        /* \"#utility.yul\":2157:2210   */\n      tag_89\n        /* \"#utility.yul\":2202:2209   */\n      dup7\n        /* \"#utility.yul\":2193:2199   */\n      dup3\n        /* \"#utility.yul\":2182:2191   */\n      dup8\n        /* \"#utility.yul\":2178:2200   */\n      add\n        /* \"#utility.yul\":2157:2210   */\n      tag_70\n      jump\t// in\n    tag_89:\n        /* \"#utility.yul\":2147:2210   */\n      swap4\n      pop\n        /* \"#utility.yul\":2103:2220   */\n      pop\n        /* \"#utility.yul\":2287:2289   */\n      0x20\n        /* \"#utility.yul\":2276:2285   */\n      dup5\n        /* \"#utility.yul\":2272:2290   */\n      add\n        /* \"#utility.yul\":2259:2291   */\n      calldataload\n        /* \"#utility.yul\":2318:2336   */\n      0xffffffffffffffff\n        /* \"#utility.yul\":2310:2316   */\n      dup2\n        /* \"#utility.yul\":2307:2337   */\n      gt\n        /* \"#utility.yul\":2304:2421   */\n      iszero\n      tag_90\n      jumpi\n        /* \"#utility.yul\":2340:2419   */\n      tag_91\n      tag_80\n      jump\t// in\n    tag_91:\n        /* \"#utility.yul\":2304:2421   */\n    tag_90:\n        /* \"#utility.yul\":2453:2518   */\n      tag_92\n        /* \"#utility.yul\":2510:2517   */\n      dup7\n        /* \"#utility.yul\":2501:2507   */\n      dup3\n        /* \"#utility.yul\":2490:2499   */\n      dup8\n        /* \"#utility.yul\":2486:2508   */\n      add\n        /* \"#utility.yul\":2453:2518   */\n      tag_54\n      jump\t// in\n    tag_92:\n        /* \"#utility.yul\":2435:2518   */\n      swap3\n      pop\n      swap3\n      pop\n        /* \"#utility.yul\":2230:2528   */\n      pop\n        /* \"#utility.yul\":1861:2535   */\n      swap3\n      pop\n      swap3\n      pop\n      swap3\n      jump\t// out\n        /* \"#utility.yul\":2541:2650   */\n    tag_93:\n        /* \"#utility.yul\":2622:2643   */\n      tag_95\n        /* \"#utility.yul\":2637:2642   */\n      dup2\n        /* \"#utility.yul\":2622:2643   */\n      tag_96\n      jump\t// in\n    tag_95:\n        /* \"#utility.yul\":2617:2620   */\n      dup3\n        /* \"#utility.yul\":2610:2644   */\n      mstore\n        /* \"#utility.yul\":2541:2650   */\n      pop\n      pop\n      jump\t// out\n        /* \"#utility.yul\":2656:3020   */\n    tag_97:\n        /* \"#utility.yul\":2744:2747   */\n      0x00\n        /* \"#utility.yul\":2772:2811   */\n      tag_99\n        /* \"#utility.yul\":2805:2810   */\n      dup3\n        /* \"#utility.yul\":2772:2811   */\n      tag_100\n      jump\t// in\n    tag_99:\n        /* \"#utility.yul\":2827:2898   */\n      tag_101\n        /* \"#utility.yul\":2891:2897   */\n      dup2\n        /* \"#utility.yul\":2886:2889   */\n      dup6\n        /* \"#utility.yul\":2827:2898   */\n      tag_102\n      jump\t// in\n    tag_101:\n        /* \"#utility.yul\":2820:2898   */\n      swap4\n      pop\n        /* \"#utility.yul\":2907:2959   */\n      tag_103\n        /* \"#utility.yul\":2952:2958   */\n      dup2\n        /* \"#utility.yul\":2947:2950   */\n      dup6\n        /* \"#utility.yul\":2940:2944   */\n      0x20\n        /* \"#utility.yul\":2933:2938   */\n      dup7\n        /* \"#utility.yul\":2929:2945   */\n      add\n        /* \"#utility.yul\":2907:2959   */\n      tag_104\n      jump\t// in\n    tag_103:\n        /* \"#utility.yul\":2984:3013   */\n      tag_105\n        /* \"#utility.yul\":3006:3012   */\n      dup2\n        /* \"#utility.yul\":2984:3013   */\n      tag_106\n      jump\t// in\n    tag_105:\n        /* \"#utility.yul\":2979:2982   */\n      dup5\n        /* \"#utility.yul\":2975:3014   */\n      add\n        /* \"#utility.yul\":2968:3014   */\n      swap2\n      pop\n        /* \"#utility.yul\":2748:3020   */\n      pop\n        /* \"#utility.yul\":2656:3020   */\n      swap3\n      swap2\n      pop\n      pop\n      jump\t// out\n        /* \"#utility.yul\":3026:3437   */\n    tag_18:\n        /* \"#utility.yul\":3161:3165   */\n      0x00\n        /* \"#utility.yul\":3199:3201   */\n      0x40\n        /* \"#utility.yul\":3188:3197   */\n      dup3\n        /* \"#utility.yul\":3184:3202   */\n      add\n        /* \"#utility.yul\":3176:3202   */\n      swap1\n      pop\n        /* \"#utility.yul\":3248:3257   */\n      dup2\n        /* \"#utility.yul\":3242:3246   */\n      dup2\n        /* \"#utility.yul\":3238:3258   */\n      sub\n        /* \"#utility.yul\":3234:3235   */\n      0x00\n        /* \"#utility.yul\":3223:3232   */\n      dup4\n        /* \"#utility.yul\":3219:3236   */\n      add\n        /* \"#utility.yul\":3212:3259   */\n      mstore\n        /* \"#utility.yul\":3276:3354   */\n      tag_108\n        /* \"#utility.yul\":3349:3353   */\n      dup2\n        /* \"#utility.yul\":3340:3346   */\n      dup6\n        /* \"#utility.yul\":3276:3354   */\n      tag_97\n      jump\t// in\n    tag_108:\n        /* \"#utility.yul\":3268:3354   */\n      swap1\n      pop\n        /* \"#utility.yul\":3364:3430   */\n      tag_109\n        /* \"#utility.yul\":3426:3428   */\n      0x20\n        /* \"#utility.yul\":3415:3424   */\n      dup4\n        /* \"#utility.yul\":3411:3429   */\n      add\n        /* \"#utility.yul\":3402:3408   */\n      dup5\n        /* \"#utility.yul\":3364:3430   */\n      tag_93\n      jump\t// in\n    tag_109:\n        /* \"#utility.yul\":3026:3437   */\n      swap4\n      swap3\n      pop\n      pop\n      pop\n      jump\t// out\n        /* \"#utility.yul\":3443:4168   */\n    tag_110:\n        /* \"#utility.yul\":3521:3525   */\n      0x00\n        /* \"#utility.yul\":3527:3533   */\n      dup1\n        /* \"#utility.yul\":3583:3594   */\n      dup4\n        /* \"#utility.yul\":3570:3595   */\n      calldataload\n        /* \"#utility.yul\":3683:3684   */\n      0x01\n        /* \"#utility.yul\":3677:3681   */\n      0x20\n        /* \"#utility.yul\":3673:3685   */\n      sub\n        /* \"#utility.yul\":3662:3670   */\n      dup5\n        /* \"#utility.yul\":3646:3660   */\n      calldatasize\n        /* \"#utility.yul\":3642:3671   */\n      sub\n        /* \"#utility.yul\":3638:3686   */\n      sub\n        /* \"#utility.yul\":3618:3636   */\n      dup2\n        /* \"#utility.yul\":3614:3687   */\n      slt\n        /* \"#utility.yul\":3604:3772   */\n      tag_112\n      jumpi\n        /* \"#utility.yul\":3691:3770   */\n      tag_113\n      tag_114\n      jump\t// in\n    tag_113:\n        /* \"#utility.yul\":3604:3772   */\n    tag_112:\n        /* \"#utility.yul\":3803:3821   */\n      dup1\n        /* \"#utility.yul\":3793:3801   */\n      dup5\n        /* \"#utility.yul\":3789:3822   */\n      add\n        /* \"#utility.yul\":3781:3822   */\n      swap3\n      pop\n        /* \"#utility.yul\":3855:3859   */\n      dup3\n        /* \"#utility.yul\":3842:3860   */\n      calldataload\n        /* \"#utility.yul\":3832:3860   */\n      swap2\n      pop\n        /* \"#utility.yul\":3883:3901   */\n      0xffffffffffffffff\n        /* \"#utility.yul\":3875:3881   */\n      dup3\n        /* \"#utility.yul\":3872:3902   */\n      gt\n        /* \"#utility.yul\":3869:3986   */\n      iszero\n      tag_115\n      jumpi\n        /* \"#utility.yul\":3905:3984   */\n      tag_116\n      tag_117\n      jump\t// in\n    tag_116:\n        /* \"#utility.yul\":3869:3986   */\n    tag_115:\n        /* \"#utility.yul\":4013:4015   */\n      0x20\n        /* \"#utility.yul\":4007:4011   */\n      dup4\n        /* \"#utility.yul\":4003:4016   */\n      add\n        /* \"#utility.yul\":3995:4016   */\n      swap3\n      pop\n        /* \"#utility.yul\":4070:4074   */\n      0x01\n        /* \"#utility.yul\":4062:4068   */\n      dup3\n        /* \"#utility.yul\":4058:4075   */\n      mul\n        /* \"#utility.yul\":4042:4056   */\n      calldatasize\n        /* \"#utility.yul\":4038:4076   */\n      sub\n        /* \"#utility.yul\":4032:4036   */\n      dup4\n        /* \"#utility.yul\":4028:4077   */\n      sgt\n        /* \"#utility.yul\":4025:4161   */\n      iszero\n      tag_118\n      jumpi\n        /* \"#utility.yul\":4080:4159   */\n      tag_119\n      tag_120\n      jump\t// in\n    tag_119:\n        /* \"#utility.yul\":4025:4161   */\n    tag_118:\n        /* \"#utility.yul\":3534:4168   */\n      pop\n        /* \"#utility.yul\":3443:4168   */\n      swap3\n      pop\n      swap3\n      swap1\n      pop\n      jump\t// out\n        /* \"#utility.yul\":4255:4396   */\n    tag_123:\n        /* \"#utility.yul\":4304:4308   */\n      0x00\n        /* \"#utility.yul\":4327:4330   */\n      dup2\n        /* \"#utility.yul\":4319:4330   */\n      swap1\n      pop\n        /* \"#utility.yul\":4350:4353   */\n      dup2\n        /* \"#utility.yul\":4347:4348   */\n      0x00\n        /* \"#utility.yul\":4340:4354   */\n      mstore\n        /* \"#utility.yul\":4384:4388   */\n      0x20\n        /* \"#utility.yul\":4381:4382   */\n      0x00\n        /* \"#utility.yul\":4371:4389   */\n      keccak256\n        /* \"#utility.yul\":4363:4389   */\n      swap1\n      pop\n        /* \"#utility.yul\":4255:4396   */\n      swap2\n      swap1\n      pop\n      jump\t// out\n        /* \"#utility.yul\":4402:4499   */\n    tag_125:\n        /* \"#utility.yul\":4461:4467   */\n      0x00\n        /* \"#utility.yul\":4489:4492   */\n      dup3\n        /* \"#utility.yul\":4479:4492   */\n      swap1\n      pop\n        /* \"#utility.yul\":4402:4499   */\n      swap3\n      swap2\n      pop\n      pop\n      jump\t// out\n        /* \"#utility.yul\":4505:4604   */\n    tag_100:\n        /* \"#utility.yul\":4557:4563   */\n      0x00\n        /* \"#utility.yul\":4591:4596   */\n      dup2\n        /* \"#utility.yul\":4585:4597   */\n      mload\n        /* \"#utility.yul\":4575:4597   */\n      swap1\n      pop\n        /* \"#utility.yul\":4505:4604   */\n      swap2\n      swap1\n      pop\n      jump\t// out\n        /* \"#utility.yul\":4610:4779   */\n    tag_102:\n        /* \"#utility.yul\":4694:4705   */\n      0x00\n        /* \"#utility.yul\":4728:4734   */\n      dup3\n        /* \"#utility.yul\":4723:4726   */\n      dup3\n        /* \"#utility.yul\":4716:4735   */\n      mstore\n        /* \"#utility.yul\":4768:4772   */\n      0x20\n        /* \"#utility.yul\":4763:4766   */\n      dup3\n        /* \"#utility.yul\":4759:4773   */\n      add\n        /* \"#utility.yul\":4744:4773   */\n      swap1\n      pop\n        /* \"#utility.yul\":4610:4779   */\n      swap3\n      swap2\n      pop\n      pop\n      jump\t// out\n        /* \"#utility.yul\":4785:5328   */\n    tag_129:\n        /* \"#utility.yul\":4886:4888   */\n      0x1f\n        /* \"#utility.yul\":4881:4884   */\n      dup3\n        /* \"#utility.yul\":4878:4889   */\n      gt\n        /* \"#utility.yul\":4875:5321   */\n      iszero\n      tag_131\n      jumpi\n        /* \"#utility.yul\":4920:4958   */\n      tag_132\n        /* \"#utility.yul\":4952:4957   */\n      dup2\n        /* \"#utility.yul\":4920:4958   */\n      tag_123\n      jump\t// in\n    tag_132:\n        /* \"#utility.yul\":5004:5033   */\n      tag_133\n        /* \"#utility.yul\":5022:5032   */\n      dup5\n        /* \"#utility.yul\":5004:5033   */\n      tag_134\n      jump\t// in\n    tag_133:\n        /* \"#utility.yul\":4994:5002   */\n      dup2\n        /* \"#utility.yul\":4990:5034   */\n      add\n        /* \"#utility.yul\":5187:5189   */\n      0x20\n        /* \"#utility.yul\":5175:5185   */\n      dup6\n        /* \"#utility.yul\":5172:5190   */\n      lt\n        /* \"#utility.yul\":5169:5218   */\n      iszero\n      tag_135\n      jumpi\n        /* \"#utility.yul\":5208:5216   */\n      dup2\n        /* \"#utility.yul\":5193:5216   */\n      swap1\n      pop\n        /* \"#utility.yul\":5169:5218   */\n    tag_135:\n        /* \"#utility.yul\":5231:5311   */\n      tag_136\n        /* \"#utility.yul\":5287:5309   */\n      tag_137\n        /* \"#utility.yul\":5305:5308   */\n      dup6\n        /* \"#utility.yul\":5287:5309   */\n      tag_134\n      jump\t// in\n    tag_137:\n        /* \"#utility.yul\":5277:5285   */\n      dup4\n        /* \"#utility.yul\":5273:5310   */\n      add\n        /* \"#utility.yul\":5260:5271   */\n      dup3\n        /* \"#utility.yul\":5231:5311   */\n      tag_138\n      jump\t// in\n    tag_136:\n        /* \"#utility.yul\":4890:5321   */\n      pop\n      pop\n        /* \"#utility.yul\":4875:5321   */\n    tag_131:\n        /* \"#utility.yul\":4785:5328   */\n      pop\n      pop\n      pop\n      jump\t// out\n        /* \"#utility.yul\":5334:5424   */\n    tag_96:\n        /* \"#utility.yul\":5368:5375   */\n      0x00\n        /* \"#utility.yul\":5411:5416   */\n      dup2\n        /* \"#utility.yul\":5404:5417   */\n      iszero\n        /* \"#utility.yul\":5397:5418   */\n      iszero\n        /* \"#utility.yul\":5386:5418   */\n      swap1\n      pop\n        /* \"#utility.yul\":5334:5424   */\n      swap2\n      swap1\n      pop\n      jump\t// out\n        /* \"#utility.yul\":5430:5507   */\n    tag_140:\n        /* \"#utility.yul\":5467:5474   */\n      0x00\n        /* \"#utility.yul\":5496:5501   */\n      dup2\n        /* \"#utility.yul\":5485:5501   */\n      swap1\n      pop\n        /* \"#utility.yul\":5430:5507   */\n      swap2\n      swap1\n      pop\n      jump\t// out\n        /* \"#utility.yul\":5513:5699   */\n    tag_138:\n        /* \"#utility.yul\":5573:5693   */\n    tag_143:\n        /* \"#utility.yul\":5590:5593   */\n      dup2\n        /* \"#utility.yul\":5583:5588   */\n      dup2\n        /* \"#utility.yul\":5580:5594   */\n      lt\n        /* \"#utility.yul\":5573:5693   */\n      iszero\n      tag_145\n      jumpi\n        /* \"#utility.yul\":5644:5683   */\n      tag_146\n        /* \"#utility.yul\":5681:5682   */\n      0x00\n        /* \"#utility.yul\":5674:5679   */\n      dup3\n        /* \"#utility.yul\":5644:5683   */\n      tag_147\n      jump\t// in\n    tag_146:\n        /* \"#utility.yul\":5617:5618   */\n      0x01\n        /* \"#utility.yul\":5610:5615   */\n      dup2\n        /* \"#utility.yul\":5606:5619   */\n      add\n        /* \"#utility.yul\":5597:5619   */\n      swap1\n      pop\n        /* \"#utility.yul\":5573:5693   */\n      jump(tag_143)\n    tag_145:\n        /* \"#utility.yul\":5513:5699   */\n      pop\n      pop\n      jump\t// out\n        /* \"#utility.yul\":5705:5809   */\n    tag_148:\n        /* \"#utility.yul\":5749:5758   */\n      0x00\n        /* \"#utility.yul\":5782:5803   */\n      tag_150\n        /* \"#utility.yul\":5797:5802   */\n      dup3\n        /* \"#utility.yul\":5782:5803   */\n      tag_96\n      jump\t// in\n    tag_150:\n        /* \"#utility.yul\":5769:5803   */\n      swap1\n      pop\n        /* \"#utility.yul\":5705:5809   */\n      swap2\n      swap1\n      pop\n      jump\t// out\n        /* \"#utility.yul\":5815:5928   */\n    tag_151:\n        /* \"#utility.yul\":5865:5874   */\n      0x00\n        /* \"#utility.yul\":5898:5922   */\n      tag_153\n        /* \"#utility.yul\":5916:5921   */\n      dup3\n        /* \"#utility.yul\":5898:5922   */\n      tag_140\n      jump\t// in\n    tag_153:\n        /* \"#utility.yul\":5885:5922   */\n      swap1\n      pop\n        /* \"#utility.yul\":5815:5928   */\n      swap2\n      swap1\n      pop\n      jump\t// out\n        /* \"#utility.yul\":5934:7337   */\n    tag_154:\n        /* \"#utility.yul\":6058:6102   */\n      tag_156\n        /* \"#utility.yul\":6098:6101   */\n      dup4\n        /* \"#utility.yul\":6093:6096   */\n      dup4\n        /* \"#utility.yul\":6058:6102   */\n      tag_125\n      jump\t// in\n    tag_156:\n        /* \"#utility.yul\":6167:6185   */\n      0xffffffffffffffff\n        /* \"#utility.yul\":6159:6165   */\n      dup2\n        /* \"#utility.yul\":6156:6186   */\n      gt\n        /* \"#utility.yul\":6153:6209   */\n      iszero\n      tag_157\n      jumpi\n        /* \"#utility.yul\":6189:6207   */\n      tag_158\n      tag_159\n      jump\t// in\n    tag_158:\n        /* \"#utility.yul\":6153:6209   */\n    tag_157:\n        /* \"#utility.yul\":6233:6271   */\n      tag_160\n        /* \"#utility.yul\":6265:6269   */\n      dup3\n        /* \"#utility.yul\":6259:6270   */\n      sload\n        /* \"#utility.yul\":6233:6271   */\n      tag_31\n      jump\t// in\n    tag_160:\n        /* \"#utility.yul\":6318:6385   */\n      tag_161\n        /* \"#utility.yul\":6378:6384   */\n      dup3\n        /* \"#utility.yul\":6370:6376   */\n      dup3\n        /* \"#utility.yul\":6364:6368   */\n      dup6\n        /* \"#utility.yul\":6318:6385   */\n      tag_129\n      jump\t// in\n    tag_161:\n        /* \"#utility.yul\":6412:6413   */\n      0x00\n        /* \"#utility.yul\":6441:6443   */\n      0x1f\n        /* \"#utility.yul\":6433:6439   */\n      dup4\n        /* \"#utility.yul\":6430:6444   */\n      gt\n        /* \"#utility.yul\":6458:6459   */\n      0x01\n        /* \"#utility.yul\":6453:7085   */\n      dup2\n      eq\n      tag_163\n      jumpi\n        /* \"#utility.yul\":7129:7130   */\n      0x00\n        /* \"#utility.yul\":7146:7152   */\n      dup5\n        /* \"#utility.yul\":7143:7227   */\n      iszero\n      tag_164\n      jumpi\n        /* \"#utility.yul\":7202:7211   */\n      dup3\n        /* \"#utility.yul\":7197:7200   */\n      dup8\n        /* \"#utility.yul\":7193:7212   */\n      add\n        /* \"#utility.yul\":7180:7213   */\n      calldataload\n        /* \"#utility.yul\":7171:7213   */\n      swap1\n      pop\n        /* \"#utility.yul\":7143:7227   */\n    tag_164:\n        /* \"#utility.yul\":7253:7320   */\n      tag_165\n        /* \"#utility.yul\":7313:7319   */\n      dup6\n        /* \"#utility.yul\":7306:7311   */\n      dup3\n        /* \"#utility.yul\":7253:7320   */\n      tag_166\n      jump\t// in\n    tag_165:\n        /* \"#utility.yul\":7247:7251   */\n      dup7\n        /* \"#utility.yul\":7240:7321   */\n      sstore\n        /* \"#utility.yul\":7102:7331   */\n      pop\n        /* \"#utility.yul\":6423:7331   */\n      jump(tag_162)\n        /* \"#utility.yul\":6453:7085   */\n    tag_163:\n        /* \"#utility.yul\":6505:6509   */\n      0x1f\n        /* \"#utility.yul\":6501:6510   */\n      not\n        /* \"#utility.yul\":6493:6499   */\n      dup5\n        /* \"#utility.yul\":6489:6511   */\n      and\n        /* \"#utility.yul\":6539:6576   */\n      tag_167\n        /* \"#utility.yul\":6571:6575   */\n      dup7\n        /* \"#utility.yul\":6539:6576   */\n      tag_123\n      jump\t// in\n    tag_167:\n        /* \"#utility.yul\":6598:6599   */\n      0x00\n        /* \"#utility.yul\":6612:6827   */\n    tag_168:\n        /* \"#utility.yul\":6626:6633   */\n      dup3\n        /* \"#utility.yul\":6623:6624   */\n      dup2\n        /* \"#utility.yul\":6620:6634   */\n      lt\n        /* \"#utility.yul\":6612:6827   */\n      iszero\n      tag_170\n      jumpi\n        /* \"#utility.yul\":6712:6721   */\n      dup5\n        /* \"#utility.yul\":6707:6710   */\n      dup10\n        /* \"#utility.yul\":6703:6722   */\n      add\n        /* \"#utility.yul\":6690:6723   */\n      calldataload\n        /* \"#utility.yul\":6682:6688   */\n      dup3\n        /* \"#utility.yul\":6675:6724   */\n      sstore\n        /* \"#utility.yul\":6763:6764   */\n      0x01\n        /* \"#utility.yul\":6755:6761   */\n      dup3\n        /* \"#utility.yul\":6751:6765   */\n      add\n        /* \"#utility.yul\":6741:6765   */\n      swap2\n      pop\n        /* \"#utility.yul\":6810:6812   */\n      0x20\n        /* \"#utility.yul\":6799:6808   */\n      dup6\n        /* \"#utility.yul\":6795:6813   */\n      add\n        /* \"#utility.yul\":6782:6813   */\n      swap5\n      pop\n        /* \"#utility.yul\":6649:6653   */\n      0x20\n        /* \"#utility.yul\":6646:6647   */\n      dup2\n        /* \"#utility.yul\":6642:6654   */\n      add\n        /* \"#utility.yul\":6637:6654   */\n      swap1\n      pop\n        /* \"#utility.yul\":6612:6827   */\n      jump(tag_168)\n    tag_170:\n        /* \"#utility.yul\":6855:6861   */\n      dup7\n        /* \"#utility.yul\":6846:6853   */\n      dup4\n        /* \"#utility.yul\":6843:6862   */\n      lt\n        /* \"#utility.yul\":6840:7026   */\n      iszero\n      tag_171\n      jumpi\n        /* \"#utility.yul\":6920:6929   */\n      dup5\n        /* \"#utility.yul\":6915:6918   */\n      dup10\n        /* \"#utility.yul\":6911:6930   */\n      add\n        /* \"#utility.yul\":6898:6931   */\n      calldataload\n        /* \"#utility.yul\":6963:7011   */\n      tag_172\n        /* \"#utility.yul\":7005:7009   */\n      0x1f\n        /* \"#utility.yul\":6997:7003   */\n      dup10\n        /* \"#utility.yul\":6993:7010   */\n      and\n        /* \"#utility.yul\":6982:6991   */\n      dup3\n        /* \"#utility.yul\":6963:7011   */\n      tag_173\n      jump\t// in\n    tag_172:\n        /* \"#utility.yul\":6955:6961   */\n      dup4\n        /* \"#utility.yul\":6948:7012   */\n      sstore\n        /* \"#utility.yul\":6863:7026   */\n      pop\n        /* \"#utility.yul\":6840:7026   */\n    tag_171:\n        /* \"#utility.yul\":7072:7073   */\n      0x01\n        /* \"#utility.yul\":7068:7069   */\n      0x02\n        /* \"#utility.yul\":7060:7066   */\n      dup9\n        /* \"#utility.yul\":7056:7070   */\n      mul\n        /* \"#utility.yul\":7052:7074   */\n      add\n        /* \"#utility.yul\":7046:7050   */\n      dup9\n        /* \"#utility.yul\":7039:7075   */\n      sstore\n        /* \"#utility.yul\":6460:7085   */\n      pop\n      pop\n      pop\n        /* \"#utility.yul\":6423:7331   */\n    tag_162:\n      pop\n        /* \"#utility.yul\":6033:7337   */\n      pop\n      pop\n      pop\n        /* \"#utility.yul\":5934:7337   */\n      pop\n      pop\n      pop\n      jump\t// out\n        /* \"#utility.yul\":7343:7650   */\n    tag_104:\n        /* \"#utility.yul\":7411:7412   */\n      0x00\n        /* \"#utility.yul\":7421:7534   */\n    tag_175:\n        /* \"#utility.yul\":7435:7441   */\n      dup4\n        /* \"#utility.yul\":7432:7433   */\n      dup2\n        /* \"#utility.yul\":7429:7442   */\n      lt\n        /* \"#utility.yul\":7421:7534   */\n      iszero\n      tag_177\n      jumpi\n        /* \"#utility.yul\":7520:7521   */\n      dup1\n        /* \"#utility.yul\":7515:7518   */\n      dup3\n        /* \"#utility.yul\":7511:7522   */\n      add\n        /* \"#utility.yul\":7505:7523   */\n      mload\n        /* \"#utility.yul\":7501:7502   */\n      dup2\n        /* \"#utility.yul\":7496:7499   */\n      dup5\n        /* \"#utility.yul\":7492:7503   */\n      add\n        /* \"#utility.yul\":7485:7524   */\n      mstore\n        /* \"#utility.yul\":7457:7459   */\n      0x20\n        /* \"#utility.yul\":7454:7455   */\n      dup2\n        /* \"#utility.yul\":7450:7460   */\n      add\n        /* \"#utility.yul\":7445:7460   */\n      swap1\n      pop\n        /* \"#utility.yul\":7421:7534   */\n      jump(tag_175)\n    tag_177:\n        /* \"#utility.yul\":7552:7558   */\n      dup4\n        /* \"#utility.yul\":7549:7550   */\n      dup2\n        /* \"#utility.yul\":7546:7559   */\n      gt\n        /* \"#utility.yul\":7543:7644   */\n      iszero\n      tag_178\n      jumpi\n        /* \"#utility.yul\":7632:7633   */\n      0x00\n        /* \"#utility.yul\":7623:7629   */\n      dup5\n        /* \"#utility.yul\":7618:7621   */\n      dup5\n        /* \"#utility.yul\":7614:7630   */\n      add\n        /* \"#utility.yul\":7607:7634   */\n      mstore\n        /* \"#utility.yul\":7543:7644   */\n    tag_178:\n        /* \"#utility.yul\":7392:7650   */\n      pop\n        /* \"#utility.yul\":7343:7650   */\n      pop\n      pop\n      pop\n      jump\t// out\n        /* \"#utility.yul\":7656:8467   */\n    tag_179:\n        /* \"#utility.yul\":7820:7821   */\n      0x00\n        /* \"#utility.yul\":7814:7818   */\n      dup2\n        /* \"#utility.yul\":7810:7822   */\n      add\n        /* \"#utility.yul\":7866:7867   */\n      0x00\n        /* \"#utility.yul\":7859:7864   */\n      dup4\n        /* \"#utility.yul\":7855:7868   */\n      add\n        /* \"#utility.yul\":7931:7994   */\n      tag_181\n        /* \"#utility.yul\":7981:7993   */\n      dup2\n        /* \"#utility.yul\":7974:7979   */\n      dup6\n        /* \"#utility.yul\":7931:7994   */\n      tag_110\n      jump\t// in\n    tag_181:\n        /* \"#utility.yul\":8008:8120   */\n      tag_182\n        /* \"#utility.yul\":8106:8119   */\n      dup2\n        /* \"#utility.yul\":8091:8104   */\n      dup4\n        /* \"#utility.yul\":8079:8089   */\n      dup7\n        /* \"#utility.yul\":8008:8120   */\n      tag_183\n      jump\t// in\n    tag_182:\n        /* \"#utility.yul\":7777:8131   */\n      pop\n      pop\n      pop\n      pop\n        /* \"#utility.yul\":8184:8185   */\n      0x01\n        /* \"#utility.yul\":8178:8182   */\n      dup2\n        /* \"#utility.yul\":8174:8186   */\n      add\n        /* \"#utility.yul\":8230:8232   */\n      0x20\n        /* \"#utility.yul\":8223:8228   */\n      dup4\n        /* \"#utility.yul\":8219:8233   */\n      add\n        /* \"#utility.yul\":8281:8293   */\n      dup1\n        /* \"#utility.yul\":8324:8363   */\n      tag_184\n        /* \"#utility.yul\":8349:8362   */\n      dup2\n        /* \"#utility.yul\":8324:8363   */\n      tag_185\n      jump\t// in\n    tag_184:\n        /* \"#utility.yul\":8307:8363   */\n      swap1\n      pop\n        /* \"#utility.yul\":8377:8449   */\n      tag_186\n        /* \"#utility.yul\":8435:8448   */\n      dup2\n        /* \"#utility.yul\":8423:8433   */\n      dup5\n        /* \"#utility.yul\":8377:8449   */\n      tag_187\n      jump\t// in\n    tag_186:\n        /* \"#utility.yul\":8141:8460   */\n      pop\n      pop\n      pop\n        /* \"#utility.yul\":7656:8467   */\n      pop\n      pop\n      jump\t// out\n        /* \"#utility.yul\":8473:8566   */\n    tag_134:\n        /* \"#utility.yul\":8510:8516   */\n      0x00\n        /* \"#utility.yul\":8557:8559   */\n      0x20\n        /* \"#utility.yul\":8552:8554   */\n      0x1f\n        /* \"#utility.yul\":8545:8550   */\n      dup4\n        /* \"#utility.yul\":8541:8555   */\n      add\n        /* \"#utility.yul\":8537:8560   */\n      div\n        /* \"#utility.yul\":8527:8560   */\n      swap1\n      pop\n        /* \"#utility.yul\":8473:8566   */\n      swap2\n      swap1\n      pop\n      jump\t// out\n        /* \"#utility.yul\":8572:8892   */\n    tag_31:\n        /* \"#utility.yul\":8616:8622   */\n      0x00\n        /* \"#utility.yul\":8653:8654   */\n      0x02\n        /* \"#utility.yul\":8647:8651   */\n      dup3\n        /* \"#utility.yul\":8643:8655   */\n      div\n        /* \"#utility.yul\":8633:8655   */\n      swap1\n      pop\n        /* \"#utility.yul\":8700:8701   */\n      0x01\n        /* \"#utility.yul\":8694:8698   */\n      dup3\n        /* \"#utility.yul\":8690:8702   */\n      and\n        /* \"#utility.yul\":8721:8739   */\n      dup1\n        /* \"#utility.yul\":8711:8792   */\n      tag_190\n      jumpi\n        /* \"#utility.yul\":8777:8781   */\n      0x7f\n        /* \"#utility.yul\":8769:8775   */\n      dup3\n        /* \"#utility.yul\":8765:8782   */\n      and\n        /* \"#utility.yul\":8755:8782   */\n      swap2\n      pop\n        /* \"#utility.yul\":8711:8792   */\n    tag_190:\n        /* \"#utility.yul\":8839:8841   */\n      0x20\n        /* \"#utility.yul\":8831:8837   */\n      dup3\n        /* \"#utility.yul\":8828:8842   */\n      lt\n        /* \"#utility.yul\":8808:8826   */\n      dup2\n        /* \"#utility.yul\":8805:8843   */\n      eq\n        /* \"#utility.yul\":8802:8886   */\n      iszero\n      tag_191\n      jumpi\n        /* \"#utility.yul\":8858:8876   */\n      tag_192\n      tag_193\n      jump\t// in\n    tag_192:\n        /* \"#utility.yul\":8802:8886   */\n    tag_191:\n        /* \"#utility.yul\":8623:8892   */\n      pop\n        /* \"#utility.yul\":8572:8892   */\n      swap2\n      swap1\n      pop\n      jump\t// out\n        /* \"#utility.yul\":8898:9193   */\n    tag_166:\n        /* \"#utility.yul\":8974:8978   */\n      0x00\n        /* \"#utility.yul\":9120:9149   */\n      tag_195\n        /* \"#utility.yul\":9145:9148   */\n      dup4\n        /* \"#utility.yul\":9139:9143   */\n      dup4\n        /* \"#utility.yul\":9120:9149   */\n      tag_173\n      jump\t// in\n    tag_195:\n        /* \"#utility.yul\":9112:9149   */\n      swap2\n      pop\n        /* \"#utility.yul\":9182:9185   */\n      dup3\n        /* \"#utility.yul\":9179:9180   */\n      0x02\n        /* \"#utility.yul\":9175:9186   */\n      mul\n        /* \"#utility.yul\":9169:9173   */\n      dup3\n        /* \"#utility.yul\":9166:9187   */\n      or\n        /* \"#utility.yul\":9158:9187   */\n      swap1\n      pop\n        /* \"#utility.yul\":8898:9193   */\n      swap3\n      swap2\n      pop\n      pop\n      jump\t// out\n        /* \"#utility.yul\":9198:9367   */\n    tag_173:\n        /* \"#utility.yul\":9242:9248   */\n      0x00\n        /* \"#utility.yul\":9275:9326   */\n      tag_197\n        /* \"#utility.yul\":9323:9324   */\n      0x00\n        /* \"#utility.yul\":9319:9325   */\n      not\n        /* \"#utility.yul\":9311:9316   */\n      dup5\n        /* \"#utility.yul\":9308:9309   */\n      0x08\n        /* \"#utility.yul\":9304:9317   */\n      mul\n        /* \"#utility.yul\":9275:9326   */\n      tag_198\n      jump\t// in\n    tag_197:\n        /* \"#utility.yul\":9271:9327   */\n      not\n        /* \"#utility.yul\":9356:9360   */\n      dup1\n        /* \"#utility.yul\":9350:9354   */\n      dup4\n        /* \"#utility.yul\":9346:9361   */\n      and\n        /* \"#utility.yul\":9336:9361   */\n      swap2\n      pop\n        /* \"#utility.yul\":9249:9367   */\n      pop\n        /* \"#utility.yul\":9198:9367   */\n      swap3\n      swap2\n      pop\n      pop\n      jump\t// out\n        /* \"#utility.yul\":9558:9738   */\n    tag_193:\n        /* \"#utility.yul\":9606:9683   */\n      0x4e487b7100000000000000000000000000000000000000000000000000000000\n        /* \"#utility.yul\":9603:9604   */\n      0x00\n        /* \"#utility.yul\":9596:9684   */\n      mstore\n        /* \"#utility.yul\":9703:9707   */\n      0x22\n        /* \"#utility.yul\":9700:9701   */\n      0x04\n        /* \"#utility.yul\":9693:9708   */\n      mstore\n        /* \"#utility.yul\":9727:9731   */\n      0x24\n        /* \"#utility.yul\":9724:9725   */\n      0x00\n        /* \"#utility.yul\":9717:9732   */\n      revert\n        /* \"#utility.yul\":9744:9924   */\n    tag_39:\n        /* \"#utility.yul\":9792:9869   */\n      0x4e487b7100000000000000000000000000000000000000000000000000000000\n        /* \"#utility.yul\":9789:9790   */\n      0x00\n        /* \"#utility.yul\":9782:9870   */\n      mstore\n        /* \"#utility.yul\":9889:9893   */\n      0x32\n        /* \"#utility.yul\":9886:9887   */\n      0x04\n        /* \"#utility.yul\":9879:9894   */\n      mstore\n        /* \"#utility.yul\":9913:9917   */\n      0x24\n        /* \"#utility.yul\":9910:9911   */\n      0x00\n        /* \"#utility.yul\":9903:9918   */\n      revert\n        /* \"#utility.yul\":9930:10110   */\n    tag_159:\n        /* \"#utility.yul\":9978:10055   */\n      0x4e487b7100000000000000000000000000000000000000000000000000000000\n        /* \"#utility.yul\":9975:9976   */\n      0x00\n        /* \"#utility.yul\":9968:10056   */\n      mstore\n        /* \"#utility.yul\":10075:10079   */\n      0x41\n        /* \"#utility.yul\":10072:10073   */\n      0x04\n        /* \"#utility.yul\":10065:10080   */\n      mstore\n        /* \"#utility.yul\":10099:10103   */\n      0x24\n        /* \"#utility.yul\":10096:10097   */\n      0x00\n        /* \"#utility.yul\":10089:10104   */\n      revert\n        /* \"#utility.yul\":10116:10188   */\n    tag_204:\n        /* \"#utility.yul\":10156:10159   */\n      0x00\n        /* \"#utility.yul\":10177:10182   */\n      dup2\n        /* \"#utility.yul\":10170:10182   */\n      swap1\n      pop\n        /* \"#utility.yul\":10116:10188   */\n      swap2\n      swap1\n      pop\n      jump\t// out\n        /* \"#utility.yul\":10194:10269   */\n    tag_206:\n        /* \"#utility.yul\":10237:10240   */\n      0x00\n        /* \"#utility.yul\":10258:10263   */\n      dup2\n        /* \"#utility.yul\":10251:10263   */\n      swap1\n      pop\n        /* \"#utility.yul\":10194:10269   */\n      swap2\n      swap1\n      pop\n      jump\t// out\n        /* \"#utility.yul\":10275:10455   */\n    tag_185:\n        /* \"#utility.yul\":10317:10328   */\n      0x00\n        /* \"#utility.yul\":10366:10369   */\n      dup2\n        /* \"#utility.yul\":10353:10370   */\n      calldataload\n        /* \"#utility.yul\":10379:10409   */\n      tag_209\n        /* \"#utility.yul\":10403:10408   */\n      dup2\n        /* \"#utility.yul\":10379:10409   */\n      tag_210\n      jump\t// in\n    tag_209:\n        /* \"#utility.yul\":10443:10448   */\n      dup1\n        /* \"#utility.yul\":10419:10448   */\n      swap2\n      pop\n        /* \"#utility.yul\":10329:10455   */\n      pop\n        /* \"#utility.yul\":10275:10455   */\n      swap2\n      swap1\n      pop\n      jump\t// out\n        /* \"#utility.yul\":10461:10578   */\n    tag_61:\n        /* \"#utility.yul\":10570:10571   */\n      0x00\n        /* \"#utility.yul\":10567:10568   */\n      dup1\n        /* \"#utility.yul\":10560:10572   */\n      revert\n        /* \"#utility.yul\":10584:10701   */\n    tag_58:\n        /* \"#utility.yul\":10693:10694   */\n      0x00\n        /* \"#utility.yul\":10690:10691   */\n      dup1\n        /* \"#utility.yul\":10683:10695   */\n      revert\n        /* \"#utility.yul\":10707:10824   */\n    tag_117:\n        /* \"#utility.yul\":10816:10817   */\n      0x00\n        /* \"#utility.yul\":10813:10814   */\n      dup1\n        /* \"#utility.yul\":10806:10818   */\n      revert\n        /* \"#utility.yul\":10830:10947   */\n    tag_69:\n        /* \"#utility.yul\":10939:10940   */\n      0x00\n        /* \"#utility.yul\":10936:10937   */\n      dup1\n        /* \"#utility.yul\":10929:10941   */\n      revert\n        /* \"#utility.yul\":10953:11070   */\n    tag_114:\n        /* \"#utility.yul\":11062:11063   */\n      0x00\n        /* \"#utility.yul\":11059:11060   */\n      dup1\n        /* \"#utility.yul\":11052:11064   */\n      revert\n        /* \"#utility.yul\":11076:11193   */\n    tag_64:\n        /* \"#utility.yul\":11185:11186   */\n      0x00\n        /* \"#utility.yul\":11182:11183   */\n      dup1\n        /* \"#utility.yul\":11175:11187   */\n      revert\n        /* \"#utility.yul\":11199:11316   */\n    tag_120:\n        /* \"#utility.yul\":11308:11309   */\n      0x00\n        /* \"#utility.yul\":11305:11306   */\n      dup1\n        /* \"#utility.yul\":11298:11310   */\n      revert\n        /* \"#utility.yul\":11322:11439   */\n    tag_80:\n        /* \"#utility.yul\":11431:11432   */\n      0x00\n        /* \"#utility.yul\":11428:11429   */\n      dup1\n        /* \"#utility.yul\":11421:11433   */\n      revert\n        /* \"#utility.yul\":11445:11562   */\n    tag_77:\n        /* \"#utility.yul\":11554:11555   */\n      0x00\n        /* \"#utility.yul\":11551:11552   */\n      dup1\n        /* \"#utility.yul\":11544:11556   */\n      revert\n        /* \"#utility.yul\":11568:11670   */\n    tag_106:\n        /* \"#utility.yul\":11609:11615   */\n      0x00\n        /* \"#utility.yul\":11660:11662   */\n      0x1f\n        /* \"#utility.yul\":11656:11663   */\n      not\n        /* \"#utility.yul\":11651:11653   */\n      0x1f\n        /* \"#utility.yul\":11644:11649   */\n      dup4\n        /* \"#utility.yul\":11640:11654   */\n      add\n        /* \"#utility.yul\":11636:11664   */\n      and\n        /* \"#utility.yul\":11626:11664   */\n      swap1\n      pop\n        /* \"#utility.yul\":11568:11670   */\n      swap2\n      swap1\n      pop\n      jump\t// out\n        /* \"#utility.yul\":11676:11768   */\n    tag_221:\n        /* \"#utility.yul\":11708:11716   */\n      0x00\n        /* \"#utility.yul\":11755:11760   */\n      dup2\n        /* \"#utility.yul\":11752:11753   */\n      0x00\n        /* \"#utility.yul\":11748:11761   */\n      shl\n        /* \"#utility.yul\":11727:11761   */\n      swap1\n      pop\n        /* \"#utility.yul\":11676:11768   */\n      swap2\n      swap1\n      pop\n      jump\t// out\n        /* \"#utility.yul\":11774:11881   */\n    tag_223:\n        /* \"#utility.yul\":11818:11826   */\n      0x00\n        /* \"#utility.yul\":11868:11873   */\n      dup3\n        /* \"#utility.yul\":11862:11866   */\n      dup3\n        /* \"#utility.yul\":11858:11874   */\n      shl\n        /* \"#utility.yul\":11837:11874   */\n      swap1\n      pop\n        /* \"#utility.yul\":11774:11881   */\n      swap3\n      swap2\n      pop\n      pop\n      jump\t// out\n        /* \"#utility.yul\":11887:12004   */\n    tag_198:\n        /* \"#utility.yul\":11941:11949   */\n      0x00\n        /* \"#utility.yul\":11991:11996   */\n      dup3\n        /* \"#utility.yul\":11985:11989   */\n      dup3\n        /* \"#utility.yul\":11981:11997   */\n      shr\n        /* \"#utility.yul\":11960:11997   */\n      swap1\n      pop\n        /* \"#utility.yul\":11887:12004   */\n      swap3\n      swap2\n      pop\n      pop\n      jump\t// out\n        /* \"#utility.yul\":12010:12199   */\n    tag_147:\n        /* \"#utility.yul\":12087:12119   */\n      tag_227\n      tag_228\n      jump\t// in\n    tag_227:\n        /* \"#utility.yul\":12128:12193   */\n      tag_229\n        /* \"#utility.yul\":12186:12192   */\n      dup2\n        /* \"#utility.yul\":12178:12184   */\n      dup5\n        /* \"#utility.yul\":12172:12176   */\n      dup5\n        /* \"#utility.yul\":12128:12193   */\n      tag_230\n      jump\t// in\n    tag_229:\n        /* \"#utility.yul\":12063:12199   */\n      pop\n        /* \"#utility.yul\":12010:12199   */\n      pop\n      pop\n      jump\t// out\n        /* \"#utility.yul\":12205:12431   */\n    tag_231:\n        /* \"#utility.yul\":12262:12268   */\n      0x00\n        /* \"#utility.yul\":12291:12294   */\n      0xff\n        /* \"#utility.yul\":12315:12337   */\n      tag_233\n        /* \"#utility.yul\":12328:12336   */\n      dup5\n        /* \"#utility.yul\":12315:12337   */\n      tag_221\n      jump\t// in\n    tag_233:\n        /* \"#utility.yul\":12303:12337   */\n      swap4\n      pop\n        /* \"#utility.yul\":12370:12374   */\n      dup1\n        /* \"#utility.yul\":12366:12375   */\n      not\n        /* \"#utility.yul\":12359:12364   */\n      dup4\n        /* \"#utility.yul\":12355:12376   */\n      and\n        /* \"#utility.yul\":12346:12376   */\n      swap3\n      pop\n        /* \"#utility.yul\":12419:12423   */\n      dup1\n        /* \"#utility.yul\":12409:12417   */\n      dup5\n        /* \"#utility.yul\":12405:12424   */\n      and\n        /* \"#utility.yul\":12398:12403   */\n      dup4\n        /* \"#utility.yul\":12395:12425   */\n      or\n        /* \"#utility.yul\":12385:12425   */\n      swap2\n      pop\n        /* \"#utility.yul\":12269:12431   */\n      pop\n        /* \"#utility.yul\":12205:12431   */\n      swap3\n      swap2\n      pop\n      pop\n      jump\t// out\n        /* \"#utility.yul\":12437:12830   */\n    tag_234:\n        /* \"#utility.yul\":12506:12512   */\n      0x00\n        /* \"#utility.yul\":12556:12557   */\n      0x08\n        /* \"#utility.yul\":12544:12554   */\n      dup4\n        /* \"#utility.yul\":12540:12558   */\n      mul\n        /* \"#utility.yul\":12579:12676   */\n      tag_236\n        /* \"#utility.yul\":12609:12675   */\n      0xffffffffffffffffffffffffffffffffffffffffffffffffffffffffffffffff\n        /* \"#utility.yul\":12598:12607   */\n      dup3\n        /* \"#utility.yul\":12579:12676   */\n      tag_223\n      jump\t// in\n    tag_236:\n        /* \"#utility.yul\":12697:12736   */\n      tag_237\n        /* \"#utility.yul\":12727:12735   */\n      dup7\n        /* \"#utility.yul\":12716:12725   */\n      dup4\n        /* \"#utility.yul\":12697:12736   */\n      tag_223\n      jump\t// in\n    tag_237:\n        /* \"#utility.yul\":12685:12736   */\n      swap6\n      pop\n        /* \"#utility.yul\":12769:12773   */\n      dup1\n        /* \"#utility.yul\":12765:12774   */\n      not\n        /* \"#utility.yul\":12758:12763   */\n      dup5\n        /* \"#utility.yul\":12754:12775   */\n      and\n        /* \"#utility.yul\":12745:12775   */\n      swap4\n      pop\n        /* \"#utility.yul\":12818:12822   */\n      dup1\n        /* \"#utility.yul\":12808:12816   */\n      dup7\n        /* \"#utility.yul\":12804:12823   */\n      and\n        /* \"#utility.yul\":12797:12802   */\n      dup5\n        /* \"#utility.yul\":12794:12824   */\n      or\n        /* \"#utility.yul\":12784:12824   */\n      swap3\n      pop\n        /* \"#utility.yul\":12513:12830   */\n      pop\n      pop\n        /* \"#utility.yul\":12437:12830   */\n      swap4\n      swap3\n      pop\n      pop\n      pop\n      jump\t// out\n        /* \"#utility.yul\":12836:13082   */\n    tag_187:\n        /* \"#utility.yul\":12940:12973   */\n      tag_239\n        /* \"#utility.yul\":12965:12972   */\n      dup3\n        /* \"#utility.yul\":12940:12973   */\n      tag_148\n      jump\t// in\n    tag_239:\n        /* \"#utility.yul\":12995:13075   */\n      tag_240\n        /* \"#utility.yul\":13036:13074   */\n      tag_241\n        /* \"#utility.yul\":13057:13073   */\n      dup3\n        /* \"#utility.yul\":13036:13074   */\n      tag_204\n      jump\t// in\n    tag_241:\n        /* \"#utility.yul\":13029:13033   */\n      dup4\n        /* \"#utility.yul\":13023:13034   */\n      sload\n        /* \"#utility.yul\":12995:13075   */\n      tag_231\n      jump\t// in\n    tag_240:\n        /* \"#utility.yul\":12989:12993   */\n      dup3\n        /* \"#utility.yul\":12982:13076   */\n      sstore\n        /* \"#utility.yul\":12906:13082   */\n      pop\n        /* \"#utility.yul\":12836:13082   */\n      pop\n      pop\n      jump\t// out\n        /* \"#utility.yul\":13088:13306   */\n    tag_183:\n        /* \"#utility.yul\":13203:13300   */\n      tag_243\n        /* \"#utility.yul\":13292:13299   */\n      dup4\n        /* \"#utility.yul\":13283:13290   */\n      dup4\n        /* \"#utility.yul\":13277:13281   */\n      dup4\n        /* \"#utility.yul\":13203:13300   */\n      tag_154\n      jump\t// in\n    tag_243:\n        /* \"#utility.yul\":13088:13306   */\n      pop\n      pop\n      pop\n      jump\t// out\n        /* \"#utility.yul\":13312:13544   */\n    tag_26:\n        /* \"#utility.yul\":13436:13538   */\n      tag_245\n        /* \"#utility.yul\":13530:13537   */\n      dup3\n        /* \"#utility.yul\":13524:13528   */\n      dup3\n        /* \"#utility.yul\":13436:13538   */\n      tag_179\n      jump\t// in\n    tag_245:\n        /* \"#utility.yul\":13312:13544   */\n      pop\n      pop\n      jump\t// out\n        /* \"#utility.yul\":13550:13819   */\n    tag_230:\n        /* \"#utility.yul\":13660:13699   */\n      tag_247\n        /* \"#utility.yul\":13691:13698   */\n      dup4\n        /* \"#utility.yul\":13660:13699   */\n      tag_151\n      jump\t// in\n    tag_247:\n        /* \"#utility.yul\":13721:13812   */\n      tag_248\n        /* \"#utility.yul\":13770:13811   */\n      tag_249\n        /* \"#utility.yul\":13794:13810   */\n      dup3\n        /* \"#utility.yul\":13770:13811   */\n      tag_206\n      jump\t// in\n    tag_249:\n        /* \"#utility.yul\":13762:13768   */\n      dup5\n        /* \"#utility.yul\":13755:13759   */\n      dup5\n        /* \"#utility.yul\":13749:13760   */\n      sload\n        /* \"#utility.yul\":13721:13812   */\n      tag_234\n      jump\t// in\n    tag_248:\n        /* \"#utility.yul\":13715:13719   */\n      dup3\n        /* \"#utility.yul\":13708:13813   */\n      sstore\n        /* \"#utility.yul\":13626:13819   */\n      pop\n        /* \"#utility.yul\":13550:13819   */\n      pop\n      pop\n      pop\n      jump\t// out\n        /* \"#utility.yul\":13825:13941   */\n    tag_210:\n        /* \"#utility.yul\":13895:13916   */\n      tag_251\n        /* \"#utility.yul\":13910:13915   */\n      dup2\n        /* \"#utility.yul\":13895:13916   */\n      tag_96\n      jump\t// in\n    tag_251:\n        /* \"#utility.yul\":13888:13893   */\n      dup2\n        /* \"#utility.yul\":13885:13917   */\n      eq\n        /* \"#utility.yul\":13875:13935   */\n      tag_252\n      jumpi\n        /* \"#utility.yul\":13931:13932   */\n      0x00\n        /* \"#utility.yul\":13928:13929   */\n      dup1\n        /* \"#utility.yul\":13921:13933   */\n      revert\n        /* \"#utility.yul\":13875:13935   */\n    tag_252:\n        /* \"#utility.yul\":13825:13941   */\n      pop\n      jump\t// out\n        /* \"#utility.yul\":13947:14069   */\n    tag_73:\n        /* \"#utility.yul\":14020:14044   */\n      tag_254\n        /* \"#utility.yul\":14038:14043   */\n      dup2\n        /* \"#utility.yul\":14020:14044   */\n      tag_140\n      jump\t// in\n    tag_254:\n        /* \"#utility.yul\":14013:14018   */\n      dup2\n        /* \"#utility.yul\":14010:14045   */\n      eq\n        /* \"#utility.yul\":14000:14063   */\n      tag_255\n      jumpi\n        /* \"#utility.yul\":14059:14060   */\n      0x00\n        /* \"#utility.yul\":14056:14057   */\n      dup1\n        /* \"#utility.yul\":14049:14061   */\n      revert\n        /* \"#utility.yul\":14000:14063   */\n    tag_255:\n        /* \"#utility.yul\":13947:14069   */\n      pop\n      jump\t// out\n        /* \"#utility.yul\":14075:14148   */\n    tag_228:\n        /* \"#utility.yul\":14120:14123   */\n      0x00\n        /* \"#utility.yul\":14075:14148   */\n      swap1\n      jump\t// out\n\n    auxdata: 0xa2646970667358221220953040a38b3f4b86e253f175b679695f1d6c879550d6a4753d2becc6cdd54e7d64736f6c63430008070033\n}\n",
				"bytecode": {
					"linkReferences": {},
					"object": "608060405234801561001057600080fd5b50610a00806100206000396000f3fe608060405234801561001057600080fd5b506004361061004c5760003560e01c80635cce26f1146100515780636d4ce63c1461006d578063bc8bc2b414610077578063cd111614146100a8575b600080fd5b61006b60048036038101906100669190610333565b6100c4565b005b610075610101565b005b610091600480360381019061008c919061037c565b610103565b60405161009f929190610451565b60405180910390f35b6100c260048036038101906100bd91906103a9565b6101cc565b005b600081908060018154018082558091505060019003906000526020600020906002020160009091909190915081816100fc9190610964565b505050565b565b6000818154811061011357600080fd5b90600052602060002090600202016000915090508060000180546101369061071c565b80601f01602080910402602001604051908101604052809291908181526020018280546101629061071c565b80156101af5780601f10610184576101008083540402835291602001916101af565b820191906000526020600020905b81548152906001019060200180831161019257829003601f168201915b5050505050908060010160009054906101000a900460ff16905082565b8181600085815481106101e2576101e16107b7565b5b90600052602060002090600202016000019190610200929190610206565b50505050565b8280546102129061071c565b90600052602060002090601f016020900481019282610234576000855561027b565b82601f1061024d57803560ff191683800117855561027b565b8280016001018555821561027b579182015b8281111561027a57823582559160200191906001019061025f565b5b509050610288919061028c565b5090565b5b808211156102a557600081600090555060010161028d565b5090565b60008083601f8401126102bf576102be610844565b5b8235905067ffffffffffffffff8111156102dc576102db61083f565b5b6020830191508360018202830111156102f8576102f7610858565b5b9250929050565b6000604082840312156103155761031461084e565b5b81905092915050565b60008135905061032d816109ae565b92915050565b60006020828403121561034957610348610867565b5b600082013567ffffffffffffffff81111561036757610366610862565b5b610373848285016102ff565b91505092915050565b60006020828403121561039257610391610867565b5b60006103a08482850161031e565b91505092915050565b6000806000604084860312156103c2576103c1610867565b5b60006103d08682870161031e565b935050602084013567ffffffffffffffff8111156103f1576103f0610862565b5b6103fd868287016102a9565b92509250509250925092565b61041281610566565b82525050565b600061042382610504565b61042d818561050f565b935061043d818560208601610693565b6104468161086c565b840191505092915050565b6000604082019050818103600083015261046b8185610418565b905061047a6020830184610409565b9392505050565b6000808335600160200384360303811261049e5761049d610853565b5b80840192508235915067ffffffffffffffff8211156104c0576104bf610849565b5b6020830192506001820236038313156104dc576104db61085d565b5b509250929050565b60008190508160005260206000209050919050565b600082905092915050565b600081519050919050565b600082825260208201905092915050565b601f82111561056157610532816104e4565b61053b8461070c565b8101602085101561054a578190505b61055e6105568561070c565b83018261057c565b50505b505050565b60008115159050919050565b6000819050919050565b5b8181101561059b576105906000826108a4565b60018101905061057d565b5050565b60006105aa82610566565b9050919050565b60006105bc82610572565b9050919050565b6105cd83836104f9565b67ffffffffffffffff8111156105e6576105e56107e6565b5b6105f0825461071c565b6105fb828285610520565b6000601f83116001811461062a5760008415610618578287013590505b610622858261074e565b86555061068a565b601f198416610638866104e4565b60005b828110156106605784890135825560018201915060208501945060208101905061063b565b8683101561067d5784890135610679601f89168261076a565b8355505b6001600288020188555050505b50505050505050565b60005b838110156106b1578082015181840152602081019050610696565b838111156106c0576000848401525b50505050565b60008101600083016106d88185610481565b6106e3818386610954565b505050506001810160208301806106f981610829565b90506107058184610931565b5050505050565b60006020601f8301049050919050565b6000600282049050600182168061073457607f821691505b6020821081141561074857610747610788565b5b50919050565b600061075a838361076a565b9150826002028217905092915050565b600061077b60001984600802610897565b1980831691505092915050565b7f4e487b7100000000000000000000000000000000000000000000000000000000600052602260045260246000fd5b7f4e487b7100000000000000000000000000000000000000000000000000000000600052603260045260246000fd5b7f4e487b7100000000000000000000000000000000000000000000000000000000600052604160045260246000fd5b6000819050919050565b6000819050919050565b6000813561083681610997565b80915050919050565b600080fd5b600080fd5b600080fd5b600080fd5b600080fd5b600080fd5b600080fd5b600080fd5b600080fd5b6000601f19601f8301169050919050565b60008160001b9050919050565b600082821b905092915050565b600082821c905092915050565b6108ac6109c5565b6108b7818484610972565b505050565b600060ff6108c98461087d565b9350801983169250808416831791505092915050565b60006008830261090f7fffffffffffffffffffffffffffffffffffffffffffffffffffffffffffffffff8261088a565b610919868361088a565b95508019841693508086168417925050509392505050565b61093a8261059f565b61094d61094682610815565b83546108bc565b8255505050565b61095f8383836105c3565b505050565b61096e82826106c6565b5050565b61097b836105b1565b61098f6109878261081f565b8484546108df565b825550505050565b6109a081610566565b81146109ab57600080fd5b50565b6109b781610572565b81146109c257600080fd5b50565b60009056fea2646970667358221220953040a38b3f4b86e253f175b679695f1d6c879550d6a4753d2becc6cdd54e7d64736f6c63430008070033",
					"opcodes": "PUSH1 0x80 PUSH1 0x40 MSTORE CALLVALUE DUP1 ISZERO PUSH2 0x10 JUMPI PUSH1 0x0 DUP1 REVERT JUMPDEST POP PUSH2 0xA00 DUP1 PUSH2 0x20 PUSH1 0x0 CODECOPY PUSH1 0x0 RETURN INVALID PUSH1 0x80 PUSH1 0x40 MSTORE CALLVALUE DUP1 ISZERO PUSH2 0x10 JUMPI PUSH1 0x0 DUP1 REVERT JUMPDEST POP PUSH1 0x4 CALLDATASIZE LT PUSH2 0x4C JUMPI PUSH1 0x0 CALLDATALOAD PUSH1 0xE0 SHR DUP1 PUSH4 0x5CCE26F1 EQ PUSH2 0x51 JUMPI DUP1 PUSH4 0x6D4CE63C EQ PUSH2 0x6D JUMPI DUP1 PUSH4 0xBC8BC2B4 EQ PUSH2 0x77 JUMPI DUP1 PUSH4 0xCD111614 EQ PUSH2 0xA8 JUMPI JUMPDEST PUSH1 0x0 DUP1 REVERT JUMPDEST PUSH2 0x6B PUSH1 0x4 DUP1 CALLDATASIZE SUB DUP2 ADD SWAP1 PUSH2 0x66 SWAP2 SWAP1 PUSH2 0x333 JUMP JUMPDEST PUSH2 0xC4 JUMP JUMPDEST STOP JUMPDEST PUSH2 0x75 PUSH2 0x101 JUMP JUMPDEST STOP JUMPDEST PUSH2 0x91 PUSH1 0x4 DUP1 CALLDATASIZE SUB DUP2 ADD SWAP1 PUSH2 0x8C SWAP2 SWAP1 PUSH2 0x37C JUMP JUMPDEST PUSH2 0x103 JUMP JUMPDEST PUSH1 0x40 MLOAD PUSH2 0x9F SWAP3 SWAP2 SWAP1 PUSH2 0x451 JUMP JUMPDEST PUSH1 0x40 MLOAD DUP1 SWAP2 SUB SWAP1 RETURN JUMPDEST PUSH2 0xC2 PUSH1 0x4 DUP1 CALLDATASIZE SUB DUP2 ADD SWAP1 PUSH2 0xBD SWAP2 SWAP1 PUSH2 0x3A9 JUMP JUMPDEST PUSH2 0x1CC JUMP JUMPDEST STOP JUMPDEST PUSH1 0x0 DUP2 SWAP1 DUP1 PUSH1 0x1 DUP2 SLOAD ADD DUP1 DUP3 SSTORE DUP1 SWAP2 POP POP PUSH1 0x1 SWAP1 SUB SWAP1 PUSH1 0x0 MSTORE PUSH1 0x20 PUSH1 0x0 KECCAK256 SWAP1 PUSH1 0x2 MUL ADD PUSH1 0x0 SWAP1 SWAP2 SWAP1 SWAP2 SWAP1 SWAP2 POP DUP2 DUP2 PUSH2 0xFC SWAP2 SWAP1 PUSH2 0x964 JUMP JUMPDEST POP POP POP JUMP JUMPDEST JUMP JUMPDEST PUSH1 0x0 DUP2 DUP2 SLOAD DUP2 LT PUSH2 0x113 JUMPI PUSH1 0x0 DUP1 REVERT JUMPDEST SWAP1 PUSH1 0x0 MSTORE PUSH1 0x20 PUSH1 0x0 KECCAK256 SWAP1 PUSH1 0x2 MUL ADD PUSH1 0x0 SWAP2 POP SWAP1 POP DUP1 PUSH1 0x0 ADD DUP1 SLOAD PUSH2 0x136 SWAP1 PUSH2 0x71C JUMP JUMPDEST DUP1 PUSH1 0x1F ADD PUSH1 0x20 DUP1 SWAP2 DIV MUL PUSH1 0x20 ADD PUSH1 0x40 MLOAD SWAP1 DUP2 ADD PUSH1 0x40 MSTORE DUP1 SWAP3 SWAP2 SWAP1 DUP2 DUP2 MSTORE PUSH1 0x20 ADD DUP3 DUP1 SLOAD PUSH2 0x162 SWAP1 PUSH2 0x71C JUMP JUMPDEST DUP1 ISZERO PUSH2 0x1AF JUMPI DUP1 PUSH1 0x1F LT PUSH2 0x184 JUMPI PUSH2 0x100 DUP1 DUP4 SLOAD DIV MUL DUP4 MSTORE SWAP2 PUSH1 0x20 ADD SWAP2 PUSH2 0x1AF JUMP JUMPDEST DUP3 ADD SWAP2 SWAP1 PUSH1 0x0 MSTORE PUSH1 0x20 PUSH1 0x0 KECCAK256 SWAP1 JUMPDEST DUP2 SLOAD DUP2 MSTORE SWAP1 PUSH1 0x1 ADD SWAP1 PUSH1 0x20 ADD DUP1 DUP4 GT PUSH2 0x192 JUMPI DUP3 SWAP1 SUB PUSH1 0x1F AND DUP3 ADD SWAP2 JUMPDEST POP POP POP POP POP SWAP1 DUP1 PUSH1 0x1 ADD PUSH1 0x0 SWAP1 SLOAD SWAP1 PUSH2 0x100 EXP SWAP1 DIV PUSH1 0xFF AND SWAP1 POP DUP3 JUMP JUMPDEST DUP2 DUP2 PUSH1 0x0 DUP6 DUP2 SLOAD DUP2 LT PUSH2 0x1E2 JUMPI PUSH2 0x1E1 PUSH2 0x7B7 JUMP JUMPDEST JUMPDEST SWAP1 PUSH1 0x0 MSTORE PUSH1 0x20 PUSH1 0x0 KECCAK256 SWAP1 PUSH1 0x2 MUL ADD PUSH1 0x0 ADD SWAP2 SWAP1 PUSH2 0x200 SWAP3 SWAP2 SWAP1 PUSH2 0x206 JUMP JUMPDEST POP POP POP POP JUMP JUMPDEST DUP3 DUP1 SLOAD PUSH2 0x212 SWAP1 PUSH2 0x71C JUMP JUMPDEST SWAP1 PUSH1 0x0 MSTORE PUSH1 0x20 PUSH1 0x0 KECCAK256 SWAP1 PUSH1 0x1F ADD PUSH1 0x20 SWAP1 DIV DUP2 ADD SWAP3 DUP3 PUSH2 0x234 JUMPI PUSH1 0x0 DUP6 SSTORE PUSH2 0x27B JUMP JUMPDEST DUP3 PUSH1 0x1F LT PUSH2 0x24D JUMPI DUP1 CALLDATALOAD PUSH1 0xFF NOT AND DUP4 DUP1 ADD OR DUP6 SSTORE PUSH2 0x27B JUMP JUMPDEST DUP3 DUP1 ADD PUSH1 0x1 ADD DUP6 SSTORE DUP3 ISZERO PUSH2 0x27B JUMPI SWAP2 DUP3 ADD JUMPDEST DUP3 DUP2 GT ISZERO PUSH2 0x27A JUMPI DUP3 CALLDATALOAD DUP3 SSTORE SWAP2 PUSH1 0x20 ADD SWAP2 SWAP1 PUSH1 0x1 ADD SWAP1 PUSH2 0x25F JUMP JUMPDEST JUMPDEST POP SWAP1 POP PUSH2 0x288 SWAP2 SWAP1 PUSH2 0x28C JUMP JUMPDEST POP SWAP1 JUMP JUMPDEST JUMPDEST DUP1 DUP3 GT ISZERO PUSH2 0x2A5 JUMPI PUSH1 0x0 DUP2 PUSH1 0x0 SWAP1 SSTORE POP PUSH1 0x1 ADD PUSH2 0x28D JUMP JUMPDEST POP SWAP1 JUMP JUMPDEST PUSH1 0x0 DUP1 DUP4 PUSH1 0x1F DUP5 ADD SLT PUSH2 0x2BF JUMPI PUSH2 0x2BE PUSH2 0x844 JUMP JUMPDEST JUMPDEST DUP3 CALLDATALOAD SWAP1 POP PUSH8 0xFFFFFFFFFFFFFFFF DUP2 GT ISZERO PUSH2 0x2DC JUMPI PUSH2 0x2DB PUSH2 0x83F JUMP JUMPDEST JUMPDEST PUSH1 0x20 DUP4 ADD SWAP2 POP DUP4 PUSH1 0x1 DUP3 MUL DUP4 ADD GT ISZERO PUSH2 0x2F8 JUMPI PUSH2 0x2F7 PUSH2 0x858 JUMP JUMPDEST JUMPDEST SWAP3 POP SWAP3 SWAP1 POP JUMP JUMPDEST PUSH1 0x0 PUSH1 0x40 DUP3 DUP5 SUB SLT ISZERO PUSH2 0x315 JUMPI PUSH2 0x314 PUSH2 0x84E JUMP JUMPDEST JUMPDEST DUP2 SWAP1 POP SWAP3 SWAP2 POP POP JUMP JUMPDEST PUSH1 0x0 DUP2 CALLDATALOAD SWAP1 POP PUSH2 0x32D DUP2 PUSH2 0x9AE JUMP JUMPDEST SWAP3 SWAP2 POP POP JUMP JUMPDEST PUSH1 0x0 PUSH1 0x20 DUP3 DUP5 SUB SLT ISZERO PUSH2 0x349 JUMPI PUSH2 0x348 PUSH2 0x867 JUMP JUMPDEST JUMPDEST PUSH1 0x0 DUP3 ADD CALLDATALOAD PUSH8 0xFFFFFFFFFFFFFFFF DUP2 GT ISZERO PUSH2 0x367 JUMPI PUSH2 0x366 PUSH2 0x862 JUMP JUMPDEST JUMPDEST PUSH2 0x373 DUP5 DUP3 DUP6 ADD PUSH2 0x2FF JUMP JUMPDEST SWAP2 POP POP SWAP3 SWAP2 POP POP JUMP JUMPDEST PUSH1 0x0 PUSH1 0x20 DUP3 DUP5 SUB SLT ISZERO PUSH2 0x392 JUMPI PUSH2 0x391 PUSH2 0x867 JUMP JUMPDEST JUMPDEST PUSH1 0x0 PUSH2 0x3A0 DUP5 DUP3 DUP6 ADD PUSH2 0x31E JUMP JUMPDEST SWAP2 POP POP SWAP3 SWAP2 POP POP JUMP JUMPDEST PUSH1 0x0 DUP1 PUSH1 0x0 PUSH1 0x40 DUP5 DUP7 SUB SLT ISZERO PUSH2 0x3C2 JUMPI PUSH2 0x3C1 PUSH2 0x867 JUMP JUMPDEST JUMPDEST PUSH1 0x0 PUSH2 0x3D0 DUP7 DUP3 DUP8 ADD PUSH2 0x31E JUMP JUMPDEST SWAP4 POP POP PUSH1 0x20 DUP5 ADD CALLDATALOAD PUSH8 0xFFFFFFFFFFFFFFFF DUP2 GT ISZERO PUSH2 0x3F1 JUMPI PUSH2 0x3F0 PUSH2 0x862 JUMP JUMPDEST JUMPDEST PUSH2 0x3FD DUP7 DUP3 DUP8 ADD PUSH2 0x2A9 JUMP JUMPDEST SWAP3 POP SWAP3 POP POP SWAP3 POP SWAP3 POP SWAP3 JUMP JUMPDEST PUSH2 0x412 DUP2 PUSH2 0x566 JUMP JUMPDEST DUP3 MSTORE POP POP JUMP JUMPDEST PUSH1 0x0 PUSH2 0x423 DUP3 PUSH2 0x504 JUMP JUMPDEST PUSH2 0x42D DUP2 DUP6 PUSH2 0x50F JUMP JUMPDEST SWAP4 POP PUSH2 0x43D DUP2 DUP6 PUSH1 0x20 DUP7 ADD PUSH2 0x693 JUMP JUMPDEST PUSH2 0x446 DUP2 PUSH2 0x86C JUMP JUMPDEST DUP5 ADD SWAP2 POP POP SWAP3 SWAP2 POP POP JUMP JUMPDEST PUSH1 0x0 PUSH1 0x40 DUP3 ADD SWAP1 POP DUP2 DUP2 SUB PUSH1 0x0 DUP4 ADD MSTORE PUSH2 0x46B DUP2 DUP6 PUSH2 0x418 JUMP JUMPDEST SWAP1 POP PUSH2 0x47A PUSH1 0x20 DUP4 ADD DUP5 PUSH2 0x409 JUMP JUMPDEST SWAP4 SWAP3 POP POP POP JUMP JUMPDEST PUSH1 0x0 DUP1 DUP4 CALLDATALOAD PUSH1 0x1 PUSH1 0x20 SUB DUP5 CALLDATASIZE SUB SUB DUP2 SLT PUSH2 0x49E JUMPI PUSH2 0x49D PUSH2 0x853 JUMP JUMPDEST JUMPDEST DUP1 DUP5 ADD SWAP3 POP DUP3 CALLDATALOAD SWAP2 POP PUSH8 0xFFFFFFFFFFFFFFFF DUP3 GT ISZERO PUSH2 0x4C0 JUMPI PUSH2 0x4BF PUSH2 0x849 JUMP JUMPDEST JUMPDEST PUSH1 0x20 DUP4 ADD SWAP3 POP PUSH1 0x1 DUP3 MUL CALLDATASIZE SUB DUP4 SGT ISZERO PUSH2 0x4DC JUMPI PUSH2 0x4DB PUSH2 0x85D JUMP JUMPDEST JUMPDEST POP SWAP3 POP SWAP3 SWAP1 POP JUMP JUMPDEST PUSH1 0x0 DUP2 SWAP1 POP DUP2 PUSH1 0x0 MSTORE PUSH1 0x20 PUSH1 0x0 KECCAK256 SWAP1 POP SWAP2 SWAP1 POP JUMP JUMPDEST PUSH1 0x0 DUP3 SWAP1 POP SWAP3 SWAP2 POP POP JUMP JUMPDEST PUSH1 0x0 DUP2 MLOAD SWAP1 POP SWAP2 SWAP1 POP JUMP JUMPDEST PUSH1 0x0 DUP3 DUP3 MSTORE PUSH1 0x20 DUP3 ADD SWAP1 POP SWAP3 SWAP2 POP POP JUMP JUMPDEST PUSH1 0x1F DUP3 GT ISZERO PUSH2 0x561 JUMPI PUSH2 0x532 DUP2 PUSH2 0x4E4 JUMP JUMPDEST PUSH2 0x53B DUP5 PUSH2 0x70C JUMP JUMPDEST DUP2 ADD PUSH1 0x20 DUP6 LT ISZERO PUSH2 0x54A JUMPI DUP2 SWAP1 POP JUMPDEST PUSH2 0x55E PUSH2 0x556 DUP6 PUSH2 0x70C JUMP JUMPDEST DUP4 ADD DUP3 PUSH2 0x57C JUMP JUMPDEST POP POP JUMPDEST POP POP POP JUMP JUMPDEST PUSH1 0x0 DUP2 ISZERO ISZERO SWAP1 POP SWAP2 SWAP1 POP JUMP JUMPDEST PUSH1 0x0 DUP2 SWAP1 POP SWAP2 SWAP1 POP JUMP JUMPDEST JUMPDEST DUP2 DUP2 LT ISZERO PUSH2 0x59B JUMPI PUSH2 0x590 PUSH1 0x0 DUP3 PUSH2 0x8A4 JUMP JUMPDEST PUSH1 0x1 DUP2 ADD SWAP1 POP PUSH2 0x57D JUMP JUMPDEST POP POP JUMP JUMPDEST PUSH1 0x0 PUSH2 0x5AA DUP3 PUSH2 0x566 JUMP JUMPDEST SWAP1 POP SWAP2 SWAP1 POP JUMP JUMPDEST PUSH1 0x0 PUSH2 0x5BC DUP3 PUSH2 0x572 JUMP JUMPDEST SWAP1 POP SWAP2 SWAP1 POP JUMP JUMPDEST PUSH2 0x5CD DUP4 DUP4 PUSH2 0x4F9 JUMP JUMPDEST PUSH8 0xFFFFFFFFFFFFFFFF DUP2 GT ISZERO PUSH2 0x5E6 JUMPI PUSH2 0x5E5 PUSH2 0x7E6 JUMP JUMPDEST JUMPDEST PUSH2 0x5F0 DUP3 SLOAD PUSH2 0x71C JUMP JUMPDEST PUSH2 0x5FB DUP3 DUP3 DUP6 PUSH2 0x520 JUMP JUMPDEST PUSH1 0x0 PUSH1 0x1F DUP4 GT PUSH1 0x1 DUP2 EQ PUSH2 0x62A JUMPI PUSH1 0x0 DUP5 ISZERO PUSH2 0x618 JUMPI DUP3 DUP8 ADD CALLDATALOAD SWAP1 POP JUMPDEST PUSH2 0x622 DUP6 DUP3 PUSH2 0x74E JUMP JUMPDEST DUP7 SSTORE POP PUSH2 0x68A JUMP JUMPDEST PUSH1 0x1F NOT DUP5 AND PUSH2 0x638 DUP7 PUSH2 0x4E4 JUMP JUMPDEST PUSH1 0x0 JUMPDEST DUP3 DUP2 LT ISZERO PUSH2 0x660 JUMPI DUP5 DUP10 ADD CALLDATALOAD DUP3 SSTORE PUSH1 0x1 DUP3 ADD SWAP2 POP PUSH1 0x20 DUP6 ADD SWAP5 POP PUSH1 0x20 DUP2 ADD SWAP1 POP PUSH2 0x63B JUMP JUMPDEST DUP7 DUP4 LT ISZERO PUSH2 0x67D JUMPI DUP5 DUP10 ADD CALLDATALOAD PUSH2 0x679 PUSH1 0x1F DUP10 AND DUP3 PUSH2 0x76A JUMP JUMPDEST DUP4 SSTORE POP JUMPDEST PUSH1 0x1 PUSH1 0x2 DUP9 MUL ADD DUP9 SSTORE POP POP POP JUMPDEST POP POP POP POP POP POP POP JUMP JUMPDEST PUSH1 0x0 JUMPDEST DUP4 DUP2 LT ISZERO PUSH2 0x6B1 JUMPI DUP1 DUP3 ADD MLOAD DUP2 DUP5 ADD MSTORE PUSH1 0x20 DUP2 ADD SWAP1 POP PUSH2 0x696 JUMP JUMPDEST DUP4 DUP2 GT ISZERO PUSH2 0x6C0 JUMPI PUSH1 0x0 DUP5 DUP5 ADD MSTORE JUMPDEST POP POP POP POP JUMP JUMPDEST PUSH1 0x0 DUP2 ADD PUSH1 0x0 DUP4 ADD PUSH2 0x6D8 DUP2 DUP6 PUSH2 0x481 JUMP JUMPDEST PUSH2 0x6E3 DUP2 DUP4 DUP7 PUSH2 0x954 JUMP JUMPDEST POP POP POP POP PUSH1 0x1 DUP2 ADD PUSH1 0x20 DUP4 ADD DUP1 PUSH2 0x6F9 DUP2 PUSH2 0x829 JUMP JUMPDEST SWAP1 POP PUSH2 0x705 DUP2 DUP5 PUSH2 0x931 JUMP JUMPDEST POP POP POP POP POP JUMP JUMPDEST PUSH1 0x0 PUSH1 0x20 PUSH1 0x1F DUP4 ADD DIV SWAP1 POP SWAP2 SWAP1 POP JUMP JUMPDEST PUSH1 0x0 PUSH1 0x2 DUP3 DIV SWAP1 POP PUSH1 0x1 DUP3 AND DUP1 PUSH2 0x734 JUMPI PUSH1 0x7F DUP3 AND SWAP2 POP JUMPDEST PUSH1 0x20 DUP3 LT DUP2 EQ ISZERO PUSH2 0x748 JUMPI PUSH2 0x747 PUSH2 0x788 JUMP JUMPDEST JUMPDEST POP SWAP2 SWAP1 POP JUMP JUMPDEST PUSH1 0x0 PUSH2 0x75A DUP4 DUP4 PUSH2 0x76A JUMP JUMPDEST SWAP2 POP DUP3 PUSH1 0x2 MUL DUP3 OR SWAP1 POP SWAP3 SWAP2 POP POP JUMP JUMPDEST PUSH1 0x0 PUSH2 0x77B PUSH1 0x0 NOT DUP5 PUSH1 0x8 MUL PUSH2 0x897 JUMP JUMPDEST NOT DUP1 DUP4 AND SWAP2 POP POP SWAP3 SWAP2 POP POP JUMP JUMPDEST PUSH32 0x4E487B7100000000000000000000000000000000000000000000000000000000 PUSH1 0x0 MSTORE PUSH1 0x22 PUSH1 0x4 MSTORE PUSH1 0x24 PUSH1 0x0 REVERT JUMPDEST PUSH32 0x4E487B7100000000000000000000000000000000000000000000000000000000 PUSH1 0x0 MSTORE PUSH1 0x32 PUSH1 0x4 MSTORE PUSH1 0x24 PUSH1 0x0 REVERT JUMPDEST PUSH32 0x4E487B7100000000000000000000000000000000000000000000000000000000 PUSH1 0x0 MSTORE PUSH1 0x41 PUSH1 0x4 MSTORE PUSH1 0x24 PUSH1 0x0 REVERT JUMPDEST PUSH1 0x0 DUP2 SWAP1 POP SWAP2 SWAP1 POP JUMP JUMPDEST PUSH1 0x0 DUP2 SWAP1 POP SWAP2 SWAP1 POP JUMP JUMPDEST PUSH1 0x0 DUP2 CALLDATALOAD PUSH2 0x836 DUP2 PUSH2 0x997 JUMP JUMPDEST DUP1 SWAP2 POP POP SWAP2 SWAP1 POP JUMP JUMPDEST PUSH1 0x0 DUP1 REVERT JUMPDEST PUSH1 0x0 DUP1 REVERT JUMPDEST PUSH1 0x0 DUP1 REVERT JUMPDEST PUSH1 0x0 DUP1 REVERT JUMPDEST PUSH1 0x0 DUP1 REVERT JUMPDEST PUSH1 0x0 DUP1 REVERT JUMPDEST PUSH1 0x0 DUP1 REVERT JUMPDEST PUSH1 0x0 DUP1 REVERT JUMPDEST PUSH1 0x0 DUP1 REVERT JUMPDEST PUSH1 0x0 PUSH1 0x1F NOT PUSH1 0x1F DUP4 ADD AND SWAP1 POP SWAP2 SWAP1 POP JUMP JUMPDEST PUSH1 0x0 DUP2 PUSH1 0x0 SHL SWAP1 POP SWAP2 SWAP1 POP JUMP JUMPDEST PUSH1 0x0 DUP3 DUP3 SHL SWAP1 POP SWAP3 SWAP2 POP POP JUMP JUMPDEST PUSH1 0x0 DUP3 DUP3 SHR SWAP1 POP SWAP3 SWAP2 POP POP JUMP JUMPDEST PUSH2 0x8AC PUSH2 0x9C5 JUMP JUMPDEST PUSH2 0x8B7 DUP2 DUP5 DUP5 PUSH2 0x972 JUMP JUMPDEST POP POP POP JUMP JUMPDEST PUSH1 0x0 PUSH1 0xFF PUSH2 0x8C9 DUP5 PUSH2 0x87D JUMP JUMPDEST SWAP4 POP DUP1 NOT DUP4 AND SWAP3 POP DUP1 DUP5 AND DUP4 OR SWAP2 POP POP SWAP3 SWAP2 POP POP JUMP JUMPDEST PUSH1 0x0 PUSH1 0x8 DUP4 MUL PUSH2 0x90F PUSH32 0xFFFFFFFFFFFFFFFFFFFFFFFFFFFFFFFFFFFFFFFFFFFFFFFFFFFFFFFFFFFFFFFF DUP3 PUSH2 0x88A JUMP JUMPDEST PUSH2 0x919 DUP7 DUP4 PUSH2 0x88A JUMP JUMPDEST SWAP6 POP DUP1 NOT DUP5 AND SWAP4 POP DUP1 DUP7 AND DUP5 OR SWAP3 POP POP POP SWAP4 SWAP3 POP POP POP JUMP JUMPDEST PUSH2 0x93A DUP3 PUSH2 0x59F JUMP JUMPDEST PUSH2 0x94D PUSH2 0x946 DUP3 PUSH2 0x815 JUMP JUMPDEST DUP4 SLOAD PUSH2 0x8BC JUMP JUMPDEST DUP3 SSTORE POP POP POP JUMP JUMPDEST PUSH2 0x95F DUP4 DUP4 DUP4 PUSH2 0x5C3 JUMP JUMPDEST POP POP POP JUMP JUMPDEST PUSH2 0x96E DUP3 DUP3 PUSH2 0x6C6 JUMP JUMPDEST POP POP JUMP JUMPDEST PUSH2 0x97B DUP4 PUSH2 0x5B1 JUMP JUMPDEST PUSH2 0x98F PUSH2 0x987 DUP3 PUSH2 0x81F JUMP JUMPDEST DUP5 DUP5 SLOAD PUSH2 0x8DF JUMP JUMPDEST DUP3 SSTORE POP POP POP POP JUMP JUMPDEST PUSH2 0x9A0 DUP2 PUSH2 0x566 JUMP JUMPDEST DUP2 EQ PUSH2 0x9AB JUMPI PUSH1 0x0 DUP1 REVERT JUMPDEST POP JUMP JUMPDEST PUSH2 0x9B7 DUP2 PUSH2 0x572 JUMP JUMPDEST DUP2 EQ PUSH2 0x9C2 JUMPI PUSH1 0x0 DUP1 REVERT JUMPDEST POP JUMP JUMPDEST PUSH1 0x0 SWAP1 JUMP INVALID LOG2 PUSH5 0x6970667358 0x22 SLT KECCAK256 SWAP6 ADDRESS BLOCKHASH LOG3 DUP12 EXTCODEHASH 0x4B DUP7 0xE2 MSTORE8 CALL PUSH22 0xB679695F1D6C879550D6A4753D2BECC6CDD54E7D6473 PUSH16 0x6C634300080700330000000000000000 "
				},
				"gasEstimates": {
					"creation": {
						"codeDepositCost": "512000",
						"executionCost": "543",
						"totalCost": "512543"
					},
					"external": {
						"create((string,bool))": "infinite",
						"get()": "144",
						"todos(uint256)": "infinite",
						"updateText(uint256,string)": "infinite"
					}
				},
				"methodIdentifiers": {
					"create((string,bool))": "5cce26f1",
					"get()": "6d4ce63c",
					"todos(uint256)": "bc8bc2b4",
					"updateText(uint256,string)": "cd111614"
				}
			},
			"storageLayout": {
				"storage": [
					{
						"astId": 10,
						"contract": "HelloWorld.sol:SimpleStorage",
						"label": "todos",
						"offset": 0,
						"slot": "0",
						"type": "t_array(t_struct(Todo)6_storage)dyn_storage"
					}
				],
				"types": {
					"t_array(t_struct(Todo)6_storage)dyn_storage": {
						"base": "t_struct(Todo)6_storage",
						"encoding": "dynamic_array",
						"label": "struct SimpleStorage.Todo[]",
						"numberOfBytes": "32"
					},
					"t_bool": {
						"encoding": "inplace",
						"label": "bool",
						"numberOfBytes": "1"
					},
					"t_string_storage": {
						"encoding": "bytes",
						"label": "string",
						"numberOfBytes": "32"
					},
					"t_struct(Todo)6_storage": {
						"encoding": "inplace",
						"label": "struct SimpleStorage.Todo",
						"members": [
							{
								"astId": 3,
								"contract": "HelloWorld.sol:SimpleStorage",
								"label": "text",
								"offset": 0,
								"slot": "0",
								"type": "t_string_storage"
							},
							{
								"astId": 5,
								"contract": "HelloWorld.sol:SimpleStorage",
								"label": "completed",
								"offset": 0,
								"slot": "1",
								"type": "t_bool"
							}
						],
						"numberOfBytes": "64"
					}
				}
			},
			"userdoc": {
				"kind": "user",
				"methods": {},
				"version": 1
			}
		}
	}
}